:020000021000EC
:1090000000600020A59301005D9301005F930100C3
:10901000619301006393010065930100000000006B
:109020000000000000000000000000006793010045
:1090300069930100000000006B9301006D93010033
:109040000DC201006F93010035C5010025C7010065
:109050006F93010000000000E9C301006F9301005D
:109060006F9301001DCE01006F9301006F9301000B
:109070006F9301006F9301006F9301006F930100E4
:109080006F9301009DA301006F9301006F93010096
:109090006F9301006F930100311D02006F93010077
:1090A0006F9301006F9301000000000000000000BA
:1090B0006F9301006F9301000000000000000000AA
:1090C00000000000000000000000000000000000A0
:1090D0000000000000000000000000000000000090
:1090E0000000000000000000000000000000000080
:1090F0000000000000000000000000000000000070
:10910000000000000000000000000000000000005F
:10911000000000000000000000000000000000004F
:10912000000000000000000000000000000000003F
:10913000000000000000000000000000000000002F
:10914000000000000000000000000000000000001F
:10915000000000000000000000000000000000000F
:1091600000000000000000000000000000000000FF
:1091700000000000000000000000000000000000EF
:1091800000000000000000000000000000000000DF
:1091900000000000000000000000000000000000CF
:1091A00000000000000000000000000000000000BF
:1091B00000000000000000000000000000000000AF
:1091C000000000000000000000000000000000009F
:1091D000000000000000000000000000000000008F
:1091E000000000000000000000000000000000007F
:1091F000000000000000000000000000000000006F
:10920000354936480A1A02D0072291438D4634491F
:1092100034480A1A06D00722914381F309880222B2
:1092200082F3148830483149314A00F044F831481B
:109230003149324A00F03FF831483249324A00F0B1
:109240003AF832483249334A00F035F83248334967
:10925000334A00F030F833483349344A00F02BF8F1
:1092600033483449344A00F026F83448344900225F
:1092700000F02CF833483449002200F027F8334836
:109280003349091A082902DB002202604160314A91
:1092900090471F481F49884205D00268043003B434
:1092A000904703BCF7E700208646EC4600200021EB
:1092B000294A9047FEE7884207D0521A05D0037822
:1092C00001300B700131013AF9D17047884202D068
:1092D00002700130FAE7704700600020005800205B
:1092E0000060002000600020B4500200FC2A002032
:1092F000582B0020EC930100EC930100C02E0200DB
:10930000B4500200FC2A0020FC2A00206430020035
:1093100064300200643002006430020064300200F5
:10932000643002006430020064300200B350020076
:1093300010510200582B0020582B0020582B0020E1
:10934000A43A0020A43A0020A43A0020A43A002025
:10935000A4420020BB93010009D80100FEE7FEE70C
:10936000FEE7FEE7FEE7FEE7FEE7FEE7FEE7FEE7D5
:1093700009480068094909680A280AD1002908D162
:10938000074802686FF070031A404FF040031A4319
:10939000026000F009B80000300100103401001034
:1093A000E40E0040FFF7E4BF0B484FF0070188438D
:1093B00085460A488047FFF723BF094809490A4AFA
:1093C000884207D0521A05D0037801300B70013162
:1093D000013AF9D17047000000600020CDBC0100C7
:0C93E00050300200E82A0020FC2A002087
:1093EC007047000007B5044B0093044A402300F07B
:1093FC0032F803B05DF804FB0D940100592B0020EA
:10940C002DE9F84388461446B2B10F4B0F4E032595
:10941C00002743F00109224608EB0701002004F065
:10942C00C3FE0744241A48B933782BB14FF47A4061
:10943C00C847013D02D13570BDE8F8830123337074
:10944C00002CE8D1F8E700BF70300200582B002048
:10945C00704704F0D9BEF0B595B01D4616460846C7
:10946C000C4601F097FB1A9B0D93CDE9086500257E
:10947C002B46082205A920460A958DF82C500C95F0
:10948C0001F0A4FB079B0293069B03939DF81430F9
:10949C008DF8115003F00302012A1DD1BDF81420E0
:1094AC00059DC3F3C203C2F383168DF81030B200CE
:1094BC0008230EA9204601F089FBC5F3952508ABBE
:1094CC000093324602AB0EA9284600F041FB204621
:1094DC0001F064FB15B0F0BD022AF8D1BDF81650AE
:1094EC00C3F3C203C5F389158DF810300827082D76
:1094FC002E4628BF08263B4632460EA9204601F0D0
:10950C0065FBAD1B08AB02AA31460EA8374400F030
:10951C0083FB002DEBD1DAE708B5FFF79AFF04487F
:10952C00042100F085FA034B01225A7108BD00BFDB
:10953C0040300200FC2A00200378024613F004009D
:10954C0006D003F00300012803D0022809D0012023
:10955C0070470B6812880233C2F3831213440B60FA
:10956C0070470B685288023303EB92130B60EEE7E3
:10957C002DE9F04FDFF81CA187B00F4600230446FD
:10958C00861C0DF1070015468DF8073000F094FD90
:10959C00DAF804203A60DAF8083003F580739B1A85
:1095AC000AF21C470AF583690AF21448B3421AD32B
:1095BC000020002D69D004F00F039B0143F005033C
:1095CC0063F30F00DAF80430DAB2033233444AF8AA
:1095DC0022009DF80700CAF8043000F091FD01202C
:1095EC0007B0BDE8F08F0121384601F001F848467C
:1095FC0001F016F8404601F013F8DAF80800029072
:10960C00C0B203300AEB800002A9FFF795FF029B62
:10961C0030BBDAB20AEB8202D16803919A1C013397
:10962C00DBB20AEB83030292D3F80CB001F0030314
:10963C00012B22D0022B15D08346404600F0F3FFBD
:10964C0010B1029BCAF808305946384600F0D0FFDA
:10965C00DAF80830DAF8042003F580739B1AA5E7D2
:10966C00D8B2CEE7BDF80E30C3F3891303334FEAFB
:10967C001B4B02EB93030293DFE7BDF80C30C3F3F3
:10968C0083134FEA1B4B1344F5E7A40544F0060083
:10969C0098E700BF6C2C0020064B074810B5002241
:1096AC001A7001F030FA044610B9044801F014FBAA
:1096BC00204610BD6C2C00205C2F0200AC30020048
:1096CC0030B50A4C71B10A4A0A49121BD208002360
:1096DC009A4201D1002030BD31F82350854202D08E
:1096EC000133F5E7034654F83300F4E7702F02001A
:1096FC0040300200FC2A0020094B013903EBC0006A
:10970C00032909D8DFE801F00A0204060420704797
:10971C0000797047407970470020704702207047ED
:10972C00702F0200034BD3E90130C31A5842584141
:10973C00704700BF6C2C00202DE9F04186B0FFF77C
:10974C00F1FF0546002840F0ED80774CC4F8180472
:10975C00BFF34F8FA3680293DBB2033304EB830098
:10976C0002A9FFF7E9FE029B18B1D4F81824002ACD
:10977C005AD0DAB2991C013304EB8202DBB204EB4F
:10978C008303D268DB68049302F00303022B039279
:10979C00029154D1BDF80E306448C3F38917502F91
:1097AC003E4628BF502606F1080166F38F13C1F31D
:1097BC000901ADF80E3001F0BEF90546002800F0A5
:1097CC009C8001F0E7F90023082203A9284601F048
:1097DC00F3F90299CB43DBB20133C9B20331B6EBD7
:1097EC00830F4FEA830204EB810125D95FFA82F8DB
:1097FC000823A6EB0806284601F0DEF9F6B208F1BC
:10980C0008034B4903F0FC033246284601F0D4F917
:10981C00029B033703EB97070297D4F81834002BFD
:10982C0043D1D4F8106453E062689A4294D8A26091
:10983C00284606B0BDE8F08108233246E5E7012B47
:10984C005BD1BDF80C303948C3F38311062928BF0E
:10985C00062161F38913023101F00F018900ADF883
:10986C000C3001F068F90546002846D001F092F959
:10987C000023082203A9284601F09EF90026BDF812
:10988C000C20C2F38312B300964203F10803C4D236
:10989C0002994A1CC9B20331029204EB81010422E1
:1098AC00284601F089F90136E9E7284601F076F9F6
:1098BC00FFF738FF80F00105EDB2B9E7F3685B798B
:1098CC0023B1336829461B6830469847F3681E68F5
:1098DC00002EF3D1284601F061F90DF107008DF847
:1098EC00076000F0E9FBD4F818340BB9029BA360B5
:1098FC009DF8070000F004FCDAE7D4F8104454B9E2
:10990C000C4B0D480D49C01AC008000440F0020071
:10991C0000F05CF8CCE7236820469B689847E36826
:10992C001C68ECE7002583E76C2C00205C2F020000
:10993C00782C0020702F0200982F02009430020027
:10994C002DE9F34704460E46924601A9012218461A
:10995C009946FFF70DFE1B4F10B3019D4FF0000809
:10996C00AA1CC84508EB020123D11748002100F0BE
:10997C00F8FD80F31000000440EA1440E4006B1C76
:10998C0004F03804DBB2EDB244F0010407EB8303BE
:10999C00033544EA881444EA8624D86047F8254005
:1099AC003B781BB1FFF7C8FE0028FBD102B0BDE825
:1099BC00F087C9B207EB81015AF82830CB6008F167
:1099CC000108CEE76C2C00208830002000231A46BA
:1099DC00FFF7B6BF07B50123019201AAFFF7B0FF4D
:1099EC0003B05DF804FB07B5CDE9002302236A46FA
:1099FC00FFF7A6FF03B05DF804FB1FB5CDE901230B
:109A0C00069B039301AA0323FFF79AFF05B05DF8A9
:109A1C0004FB1FB5CDE90023069B0293079B039320
:109A2C006A460423FFF78CFF05B05DF804FB0000C9
:109A3C0030B50F4CD4F8102403460020114631B930
:109A4C00D96808714AB9C4F810340A6030BDC968C5
:109A5C000D79854206D00968F1E7D26814680C606C
:109A6C001360F3E701300A28E8D14FF0FF30EDE73F
:109A7C006C2C002038B5084B0125D3F810441D7010
:109A8C0004B938BDE3685D71236820465B6898476C
:109A9C00E3681C68F4E700BF6C2C0020C38873B526
:109AAC0004460D4633B1144A00921449144A284610
:109ABC0000F01CFE217A05291CD0637A4BB1A088DA
:109ACC00FFF71AFE0F4B104953F82020284600F0E0
:109ADC000DFE227A0D4BA08853F822600021FFF76F
:109AEC00EFFD0B4903463246284602B0BDE87040F4
:109AFC0000F0FCBD02B070BDD8300200C0300200D6
:109B0C00B830020044310200DD300200683102003E
:109B1C00E030020010B5037A052B0C460FD0437AC7
:109B2C0023B1084A0849204600F0E0FD07492046C9
:109B3C0000F0DCFD2046BDE8104000F0CCBD002A52
:109B4C00F8D0F3E7D8300200DD300200D530020047
:109B5C002DE9F04385B01F460C9D002395F80C9021
:109B6C002B7306460C46904629463846FFF796FF5F
:109B7C00B8F1060F09D8DFE808F00412181F2833D3
:109B8C0040003146284600F0B1FD002229463846F7
:109B9C00FFF7C0FF85F80C9005B0BDE8F083226894
:109BAC003146284600F0A2FDEFE7D4E90023314608
:109BBC00284600F09BFDE8E7A36800933146D4E902
:109BCC000023284600F092FDDFE7E3680193A368C9
:109BDC0000933146D4E90023284600F087FDD4E7F2
:109BEC0023690293E3680193A36800933146D4E997
:109BFC000023284600F07AFDC7E7636903932369C5
:109C0C000293E3680193A36800933146D4E90023DF
:109C1C00284600F06BFDB8E708292DE9F74F804680
:109C2C000E4617461C463DD800251B7B2573214646
:109C3C0010460193FFF732FFDFF888A0DFF888B0F9
:109C4C00AE4232D918F805205946204600F04EFD98
:109C5C000135082DF4D11D49DFF874A0DFF874B07C
:109C6C00204600F043FD4FF000094E4524D918F86A
:109C7C0009507E2D1ED8284608F0ECFC002814BF95
:109C8C002A462E225946204600F030FD09F10109E2
:109C9C00B9F1080FE9D1012221463846FFF73AFF06
:109CAC00019B237303B0BDE8F08F5146204600F0B2
:109CBC001DFDCDE72E22E5E75146204600F016FDAE
:109CCC00E4E700BFF0300200EA300200F43002009A
:109CDC00F2300200F63002001FB50021039001AAF9
:109CEC0044F20100CDE9011100F004F805B05DF873
:109CFC0004FB000038B572B6FFF7BCFEFFF71CFD85
:109D0C000028FBD1104B114C114D1249E41AE408F8
:109D1C00240444F00100FFF759FED5F8F030DB07BE
:109D2C0000D500BE0C4944F00200FFF74FFEBFF314
:109D3C004F8FEA68094B02F4E0621343EB60BFF308
:109D4C004F8F00BFFDE700BF702F0200982F02005D
:109D5C0000ED00E087310200933102000400FA05A7
:109D6C0010B5D0E90243D1E90202A04272EB030321
:109D7C002CBF0120002010BD08B50A4800F0F1FAF4
:109D8C00094AD2E90031C018084BD3E9002341F14C
:109D9C000001904271EB030303D210F1807041F18A
:109DAC00000108BD042B002028310020A031002028
:109DBC0037B505460C460A4801A900F006FB60B110
:109DCC000570446001A9064800F029FB18B105484C
:109DDC0000F0CCFA002003B030BD0420FBE700BF3C
:109DEC008C310020042B002038B5184B1B7804460E
:109DFC0013B90025284638BD0028FAD0037F03F09C
:109E0C00FF05002BF5D0FFF7B7FFD4E902239042F2
:109E1C0071EB030314D3236903B92377D4E9053019
:109E2C00984721690029E4D0237F03F0FF05002B1C
:109E3C00DFD0D4E902325B1842F10002C4E90232ED
:109E4C000348214600F067FFD4E700BF3031002003
:109E5C00B031020013B5114B114918680190082359
:109E6C001048582200F09EFA044698B90E4A0F4842
:109E7C0001A900F067F9044660B90C48012100F013
:109E8C0053FA01230A4A0948194600F0B5F9094B5F
:109E9C0001221A70204602B010BD00BFAA31020088
:109EAC00343100208C310020359F0100042B002020
:109EBC00FFFF7F00303100203AB103685A614A1E1F
:109ECC00514251411961002070470720704738B545
:109EDC00037F04460D4683B98261FFF74DFF23696A
:109EEC00281841F10001C4E9020103B125612146A2
:109EFC000020BDE83840FFF75BBF002038BD0023D1
:109F0C00014603770120FFF753BF0000024B0021ED
:109F1C0002201970FFF74CBF30310020014800F0CF
:109F2C0020BA00BF042B00202DE9F347064600F0B1
:109F3C0003FA40B1584AD2E9003113F1807341F170
:109F4C000001C2E900310021304600F004FA38B1BA
:109F5C00524C236823B12068FFF746FF002323608F
:109F6C000121304600F0F7F920B1FFF705FF4C4B0B
:109F7C00C3E900014B48494D4B4C4C4F01A900F033
:109F8C005EFA002842D1DFF82081444CDFF82091A2
:109F9C00404600F0D6FE2368002872D07BB12368BF
:109FAC00D0E90252D3E902138D4272EB03032AD299
:109FBC0023681B7F1BB12168404600F0ACFE404675
:109FCC0000F0B9FED0E9027A0546FFF7D5FE3F1A3C
:109FDC006AEB010A012F7AF1000345DBB7F5350F67
:109FEC0040D3FFF79BFF334A02444FF49603002102
:109FFC00484600F021F900283ED1236813B93046B9
:10A00C0000F0F2F8256002B0BDE8F0870378012B70
:10A01C001DD0022B09D14FF00008204600F08BFE1A
:10A02C00002836D080F81C80F7E73BB941680B7FDD
:10A03C0023B901230B77204600F06DFE01A91948C6
:10A04C0000F028FA01A9174800F0F9F999E74168DE
:10A05C002B68994202D100232B60EFE7204600F0D9
:10A06C0073FEEBE7AA68C0E70021484600F069F9E7
:10A07C002846FFF7B9FE01E00D28F9D00023236034
:10A08C0086E7002BBFD1304602B0BDE8F04700F0A8
:10A09C00AFB801233B70D1E728310020A831002054
:10A0AC00A03100208C310020B03102003031002072
:10A0BC00042B0020FFFFB40070B5EFF3108672B6CE
:10A0CC000C4A946801239CB993600B4B0B4DD3F84D
:10A0DC00801029401160C3F88050D3F8841051606F
:10A0EC004FF0FF32C3F88420047006B962B670BD1D
:10A0FC000370FAE7AC31002000E100E0FC06FFBD84
:10A10C00084B9A6810B55AB150B9EFF3108172B67A
:10A11C00054A1C6814605C685460986001B962B6AA
:10A12C0010BD00BFAC31002000E100E003464058F8
:10A13C0082B028B100225A505B580193019B012038
:10A14C0002B07047F8B5204B4479204E43F82420D8
:10A15C001F4A204B06EBC4049B1A2279DB081B0414
:10A16C0032B143F002001C49FFF730FC0820F8BD67
:10A17C0002680C88C2F8084590F904508A78047972
:10A18C005201002DD2B219DB14494F1987F8002364
:10A19C0001226D0904F01F0402FA04F441F8254071
:10A1AC00427906EBC201012446F832000C7143F0EF
:10A1BC0003000B49FFF70AFC0020D8E7094904F01B
:10A1CC000F040A55ECE700BFC0310020B831002065
:10A1DC00702F0200A82F0200BC31020000E100E049
:10A1EC00DE31020014ED00E0036801221A607047B2
:10A1FC00036801225A60704773B501F15005AD0038
:10A20C000068ADB24FF480348C400026C0F808438F
:10A21C00C0F84843465101F5A8714559019522F003
:10A22C007F42019D40F82120C0F844430BB1C0F897
:10A23C00044302B070BD00002DE9F74F0D4622F02B
:10A24C007F4402684FF4803705F150068F408046FA
:10A25C00B60002EB8500C2F84873B6B2C2F80873B8
:10A26C00D2F8041599464FF0000BD0F84035C0F8E1
:10A27C00401542F806B05B1A9259009223F07F43C6
:10A28C00012B009A4FEA850A0CD1264B4FF48060C3
:10A29C0043F001039847D8F8003043F806B09B59B7
:10A2AC000193019BD8F80010D1F80465C1F84473F0
:10A2BC00A31B23F07F43012B1CD11A4B05F5A8756A
:10A2CC00013443F0010341F825404FF48060984776
:10A2DC00D8F80030D3F804359E4209D1D8F80030B4
:10A2EC000020C3F84473C3F8047303B0BDE8F08FC7
:10A2FC000D20FAE78A44C9F1FF13CAF84045D1F89A
:10A30C000405221A013A22F07F4203F57F4393425F
:10A31C00EED3002AE2D10134CAF84045D1F8043515
:10A32C009842DAE7F031020003680222C3F84423B2
:10A33C0009B1C3F80423704700684FF48271FFF72A
:10A34C00F5BE4FF4803303FA01F10368C3F84813E8
:10A35C00C3F80813704750318900006889B2FFF7C1
:10A36C00E5BE0368D3F804057047000090F904308B
:10A37C00002B09DB5A09012103F01F0301FA03F337
:10A38C004032024941F82230704700BF00E100E042
:10A39C00024B034A1B681068184700BFC0310020ED
:10A3AC00B831002030B5054659B1B2FBF3F403FBCC
:10A3BC001424A0B238B9C5E90010A860AA81EB81B9
:10A3CC0030BD0E20FCE70920FAE737B550E8013F15
:10A3DC009DB2C48925448489A54228BF2D1B0489BC
:10A3EC00A54202BFBFF32F8F002207E0C5EA030589
:10A3FC0040E80154002CE9D14FF001028DF8032004
:10A40C000193019A0A609DF8031001F0FF0321B13A
:10A41C00006810FA82F003B030BD1846FBE70A88DA
:10A42C004B889A4209D150E8012FC2EA024240E817
:10A43C000123002BF7D1012070470020704737B55E
:10A44C0050E8023F1FFAA3F5C488A54202BFBFF330
:10A45C002F8F00220DE0C48925448489A54228BF92
:10A46C002D1BC3EA054540E80254002CE8D14FF0FF
:10A47C0001028DF803200193019A0A609DF80310E4
:10A48C0001F0FF0321B1006800EB124003B030BDB6
:10A49C001846FBE70A884B889A4209D150E8022FEC
:10A4AC00C2EA224240E80223002BF7D10120704778
:10A4BC000020704701F01F024B090121914000EB75
:10A4CC00830000F065B84B0910B501F01F040121A1
:10A4DC00A14000EB830000F04FF8E04000F00100D9
:10A4EC0010BD01F01F0301229A404B0900EB8300C1
:10A4FC00D14300F065B84B0901F01F0150F823005F
:10A50C00C84000F0010070472DE9F0474F1E7F094D
:10A51C0080460E460137002558F8254008EB850982
:10A52C00E44394FAA4F4B4FA84F44FEA451A202CC8
:10A53C0006D10135AF42EFD834462046BDE8F0874E
:10A54C005444A642F5D921464046FFF7BCFF0028EB
:10A55C00F3D0D9F80040E44394FAA4F4B4FA84F4A8
:10A56C00E5E710B5034653E8000F0A4643E800241C
:10A57C0094F0000FF7D110BD10B5034653E8000F4F
:10A58C0040EA010243E8002494F0000FF6D110BD1C
:10A59C0010B5034653E8002F42EA010043E80004DB
:10A5AC0094F0000FF6D110BD10B5034653E8000F20
:10A5BC0000EA010243E8002494F0000FF6D110BD2C
:10A5CC0010B5034653E8002F02EA010043E80004EB
:10A5DC0094F0000FF6D110BD10B5034653E8000FF0
:10A5EC0000EB010243E8002494F0000FF6D110BDFB
:10A5FC0010B5034653E8002F02EB010043E80004BA
:10A60C0094F0000FF6D110BD10B5034653E8002F9F
:10A61C00A2EB010043E8000494F0000FF6D110BD4A
:10A62C000121FFF7B5BF0021FFF7BEBF10B590B1F8
:10A63C00D0E9012301689B1ADBB20A60013BDBB253
:10A64C00FF2B026802D10020107110BD11684C1C48
:10A65C0014600B70F2E70E20F7E737B505460024BF
:10A66C000DF107008DF80740FFF726FD2A686B688F
:10A67C00116899420ED9481E106011F8013CEC6823
:10A68C00298A01FB0344AB6811791B1ADBB299428E
:10A69C0038BF13719DF80700FFF732FD204603B059
:10A6AC0030BD37B5054600230DF107000C468DF87B
:10A6BC000730FFF701FD2A681368591C1160E9681F
:10A6CC00641A298AB4FBF1F41C709DF80700FFF79B
:10A6DC0017FD03B030BD826810B504462AB143693A
:10A6EC000168006998470023A36010BD0EB403B540
:10A6FC00039921B104AB01AA019300F077F802B0E1
:10A70C005DF804EB03B070470A2938B504460D46D2
:10A71C0002D10D21FFF7F8FFA3682268591CA16034
:10A72C00D554D4E901329A4204D32046BDE83840CE
:10A73C00FFF7D1BF38BD00002DE9F84F9846DDE991
:10A74C000A43154682460F460A464FF00109AA42B3
:10A75C000FD2C14538BFC14613F0010B01D16CB902
:10A76C0000240126B8F1010F1BD908F1FF386E4304
:10A77C00F8E709F10109B2FBF5F2E8E79B070ED502
:10A78C00B8F1000F0CBF30262026A145E9D2013CC0
:10A79C0031465046FFF7B8FF002CF6D1E0E72026F3
:10A7AC00F3E7B7FBF6F39D42E1D9DFF83C80B7FB4A
:10A7BC00F6F3504618F8031006FB1377FFF7A4FFC7
:10A7CC003346AB42B6FBF5F6F1D2BBF1000F02D02B
:10A7DC000CB1A14501D3BDE8F88F20215046013CB6
:10A7EC00FFF792FFF4E700BFF63102002DE9F74FB7
:10A7FC00054617468846002900F03E8118F8011BD3
:10A80C0049B92B7B002B00F03781284603B0BDE8FB
:10A81C00F04FFFF760BF252940F0B780002698F86D
:10A82C0000302D2B424608F1010823D0302B24D0C8
:10A83C002B2B25D000242A2B02F1010123D13B68BC
:10A84C001A1D1B683A601C440A4613782E2B26D11D
:10A85C0001324FF0000A104610F8011BA1F1300C28
:10A86C00BCF1090F1DD80A2303FB0A13A3F1300A0C
:10A87C000246F0E746F00106D1E746F00206CEE7C5
:10A88C0046F00406CBE711F8013CA3F1300009288F
:10A89C00DBD80A2202FB0434303C0A46CBE74FF0EB
:10A8AC00000A12F8011B01F0FB0068289046F8D052
:10A8BC00782909D86F290CD8632962D022D8252988
:10A8CC0063D0582900F0888098F80030002B95D17F
:10A8DC0097E770390829F7D801A353F821F000BF86
:10A8EC005FAA0100D5A80100D5A80100F5A90100B7
:10A8FC00D5A80100D3A90100D5A80100D5A8010055
:10A90C00E5A90100642901D06929DDD13A68D2F8A2
:10A91C000090111D89EAE9723960A2EBE9724FF0DF
:10A92C00010B092A35DCD34538BFD3462CB1B9F11C
:10A93C00000F01DB720700D5013CB30702D5BAF159
:10A94C00000F03D0F00701D44CBB0024B9F1000F69
:10A95C002DDAC9F100092D212846FFF7D5FE06F0A6
:10A96C000302022A04D1BAF1000F01D11CBB00244E
:10A97C00CDE9004653460A2249462846FFF7DCFE3D
:10A98C00A2E73B681A1D19783A602846FFF7BCFE0F
:10A99C009AE70A230BF1010BB2FBF3F2C1E7A345D3
:10A9AC00D4D220212846013CFFF7AEFECCE771073C
:10A9BC00D5D52B21D0E7A345DAD230212846013C4E
:10A9CC00FFF7A2FED2E73968CDE900460A1D3A60CE
:10A9DC0053460A220968D0E739680A1D3A60CDE966
:10A9EC00004653461022F5E73B681A1D3A6016F0F4
:10A9FC000106D3F8009024D1B9F1000F03D04846DA
:10AA0C0007F009FF0646B4421DD809F1FF3919F8C1
:10AA1C00011F00293FF458AF2846FFF775FEF6E7F3
:10AA2C0028460136FFF770FE19F806100029F7D1F9
:10AA3C00A642BFF449AF20212846013CFFF764FE33
:10AA4C00F6E70026F0E720212846013CFFF75CFEE4
:10AA5C00D9E73B681A1D3A60302128461C68FFF77D
:10AA6C0053FE78212846FFF74FFE00220823CDE93C
:10AA7C0000322146102280E703B0BDE8F08F00BF02
:10AA8C002DE9F84FB0F806A04579D2F800B09DF842
:10AA9C0028900AFB05F5043D88460BEB0301A942FF
:10AAAC0003F1040488BFA5EB030BB4FBFAF60746CD
:10AABC000AFB1644C2F800B04EB9AAEB04055D457A
:10AACC0028BF5D46BBF1000F04D1BDE8F88F3F688D
:10AADC00013EF1E7043408EB06003C442A46B9F188
:10AAEC00000F0DD02146ABEB050B07F016FEDA4537
:10AAFC002E443F6855464FF0000428BF5D46E1E701
:10AB0C0001462046EFE7FFF791BDF8B546790146BF
:10AB1C00721E0546002393422D6803D30024A642DF
:10AB2C0002D8F8BD0133F6E70F682846FFF7B9FDE8
:10AB3C0001343946F3E72DE9F843068ACD1C074664
:10AB4C00FFF78BFD043E35440446B5FBF6F5F0B13A
:10AB5C004FF48073EDB28380C680013D076081465F
:10AB6C004FF00008A84512D23846FFF776FD06468E
:10AB7C0048B163790133637108F10108C9F8000029
:10AB8C0007608146EEE72046FFF7BFFF34462046BC
:10AB9C00BDE8F88301210430FFF72ABD10B501216F
:10ABAC0004460430FFF730FDC0B220B92046BDE8A2
:10ABBC001040FFF7AABF10BD1FB5039200220092F0
:10ABCC0003AAFFF75DFF05B05DF804FB1FB5039208
:10ABDC000122009203AAFFF753FF05B05DF804FBB6
:10ABEC0033DF704741DF7047064B10B500241C70F3
:10ABFC00054B1C60BFF35F8F0449054800F075F8E6
:10AC0C00204610BDCD310020D03100201032020082
:10AC1C00C431002008B507F06BF818B1BDE8084046
:10AC2C00FFF7E0BF20BF40BF20BF08BD70B5244D6B
:10AC3C00044601212846FFF794FCBFF35F8F38B917
:10AC4C00042C0AD01F4B1A781AB1BFF35F8F2860FF
:10AC5C0070BD1D4A147001221A701C4C1A4E636888
:10AC6C00BBB9FEF707FFFEF767FD0028FBD1164BBB
:10AC7C001B78023B012B15D8BFF34F8F1449154B92
:10AC8C00CA6802F4E0621343CB60BFF34F8F00BF7E
:10AC9C00FDE71B68307898470028D6D0204600F096
:10ACAC002EF8DCE707F024F808B1FFF799FF4FF016
:10ACBC0080430122C3F80025BFF34F8F20BFFDE76F
:10ACCC00D0310020CD310020CC310020C431002007
:10ACDC0000ED00E00400FA05836800225A60C3E925
:10ACEC0004229A60DA601A6070470B684A68436005
:10ACFC00934208BF0023016008BF4360704743685C
:10AD0C0043B10268916852680B449342436004BF9C
:10AD1C0000234360704770B5446806460D462068B2
:10AD2C0018B1B3682946984718B923682B60256079
:10AD3C0070BD2468F3E74368186808B102681A60AC
:10AD4C0070474368186870474368186800B97047C3
:10AD5C00884203D102681A600120704703460068DC
:10AD6C00F4E7000010B50D49A1F59472914201D899
:10AD7C0000200FE08C1AE30F03EBE4035B1002EBF3
:10AD8C00C30452F83330834205D802D204F10802CE
:10AD9C00ECE7606810BD2146E8E700BF1C370200F5
:10ADAC0008B5FFF7DFFF024B002808BF184608BDA7
:10ADBC00DF35020070B5064E0546002456F8043BFC
:10ADCC000BB1284698470134042CF7D170BD00BF55
:10ADDC00E03100204388033300EB830399420BD30B
:10ADEC0082884FF6FF739A4208D0038833B180688B
:10ADFC00431C58425841704702207047012070474D
:10AE0C00033080B240F2FE33984230B51FD8134B5A
:10AE1C001A783AB91C895D892C440444A4B2B4F55F
:10AE2C00806F0AD91A7DAAB99A8BDC8B2244024412
:10AE3C0092B2B2F5806F0DD801220A80144614220A
:10AE4C0002FB04335A8910445881002030BD48F26B
:10AE5C000860FBE748F20660F8E700BF14320020F8
:10AE6C000B4A0C495388142000FB0311CB6833B9EF
:10AE7C000420496810700122074800F083BD07497F
:10AE8C000523137002238B80012209680023F3E74A
:10AE9C00F831002014320020E82A00205032002023
:10AEAC0007B5002305490093054A0968054808239E
:10AEBC0000F0CEFC03B05DF804FB00BF5032002064
:10AECC0028370200E82A002007B50023014600932A
:10AEDC00034A0448082300F0BBFC03B05DF804FBF4
:10AEEC0020370200E82A002013B500230C460093FB
:10AEFC000146084A0848042300F0AAFC38B9074B5D
:10AF0C00142101FB043101230B7402B010BD48F273
:10AF1C000D60FAE71C370200E82A002014320020EA
:10AF2C0037B50A480A4B42689C8819685388032530
:10AF3C00033305709BB2002000909B0001EB840151
:10AF4C00044800F085FC03B030BD00BFF831002090
:10AF5C0050320020E82A002010B501460448FFF7C3
:10AF6C0034FA1C220446002107F000FC204610BDD8
:10AF7C003C32002038B5144B14220D4602FB003332
:10AF8C005C682B6804F58051A3B15C88033403EB37
:10AF9C0084048C4215D22368013312D02046FFF76B
:10AFAC0019FF012808D002280BD00028F1D12C6001
:10AFBC00012038BD0834ECE76388033304EB8304C9
:10AFCC00E7E70020F5E700BF14320020426873B5B4
:10AFDC0004460D466AB3234BD9688A4229D31B69B0
:10AFEC009A4226D812F0030323D11F4900890989FC
:10AFFC0088421ED12068916888421AD11B4841684A
:10B00C008A4203D901F580518A420DD381698A4263
:10B01C000CD901F580518A4208D201222A80B3FA58
:10B02C0083F0400902B070BD1A46F7E748F2096395
:10B03C00F5E700262E800196288801A9FFF79AFFD4
:10B04C0030B92B8801339BB2012B2B80F3D9E9E764
:10B05C00019B226899689142EED16360024B1B8977
:10B06C002381DFE7E82A0020F83100201432002089
:10B07C002DE9F8431C461D4B1B7806460F4615461A
:10B08C0073B382B37CB3DFF868804FF01409A388E4
:10B09C00012B02D948F2096020E009FB03F318F8F0
:10B0AC0003302BB9A0882146FFF764FF20B920603C
:10B0BC00A3880133A380EAE723681EB199883288FC
:10B0CC009142EFD11FB119883A889142EAD19A681E
:10B0DC00C5E90023074B1B892B810020BDE8F883B1
:10B0EC0048F20160FAE748F20460F7E7F03100201B
:10B0FC0014320020F831002008B5074B5888191D70
:10B10C00FFF738FF18B1BDE80840FFF709BFBDE8ED
:10B11C000840FFF7A5BE00BFF83100202DE9F0472D
:10B12C00A14FDFF8888288B006463B6823B9A04857
:10B13C004146FFF784F938603D6829784B1E052B92
:10B14C0007D8DFE813F02000790079000B010B0120
:10B15C00610148F20E641422002103A807F006FBDB
:10B16C0041F61D539C4208BF00243B6804941A7896
:10B17C00023A042A00F20082DFE812F0E101ED014C
:10B18C000F0217021E022EB18A4B00225A604FF496
:10B19C000644E0E72B79032B1CD8DFE803F01402FC
:10B1AC002A35854A1378022B1AD0137D022B4FF0C7
:10B1BC00010317D114214B43D1180020D0544868F7
:10B1CC00FFF782FE03E001232B71FFF769FE0028D5
:10B1DC0000F0BE80774B00225A6048F20D64BAE74B
:10B1EC000023E7E7734A13700023536041F61D54A4
:10B1FC00B1E772497248002302222B718A800968D8
:10B20C00012200F0BFFBE2E76C4C00262E71206897
:10B21C00FFF75AFE6B4B68495B8825681422534331
:10B22C00CA18CE54D2F804C05560A58815810222E4
:10B23C00C4F800C0A280CAE7B5F814A0AA7DDFF854
:10B24C007891AEB1022AEB8806D9142101FB0A9140
:10B25C00DA1C088902440A81142202FB0A99C3F5FC
:10B26C007F43B9F80A20FD331344A9F80A308EE75E
:10B27C00142303FB0A9318895C6804EB8004062AE8
:10B28C0069D8DFE802F0274E36441D5A040041F617
:10B29C001D54AA7DEB88022A06D9142101FB0A91C0
:10B2AC00DA1C088902440A81142202FB0A99C3F5AC
:10B2BC007F43B9F80A20FD331344A9F80A304AE752
:10B2CC004148424900234360AB690360FFF77EFEAF
:10B2DC0000285BD00223AB75002300930423EA18EB
:10B2EC002146374800F0B4FA002831D048F20D64FA
:10B2FC00CFE72B69002B14BF03230123AB7500236D
:10B30C00009305F10C02042304F10801E9E7012381
:10B31C00AB750022EB8800922A699B0004F10C01AA
:10B32C00DFE703290CBF05230623AB75002300932D
:10B33C00042305F10802E118D3E70623AB75234B70
:10B34C001988214B5868FFF7CFFD04460028A0D17F
:10B35C0008B0BDE8F08748F20E649AE7002E7FF43F
:10B36C0016AF2B79012B33D0022B3FF43FAF002BC0
:10B37C007FF4EFAE02232B710DF10A01EB680393FE
:10B38C0003A8CDE90466FFF721FE10B948F2096461
:10B39C00E1E60498BDF80A108388EB8003882B81C2
:10B3AC00FFF7A2FD044628E01032002008320020EE
:10B3BC003C320020F03100201432002050320020AA
:10B3CC00E82A0020F8310020D43100205832002027
:10B3DC00DFF8EC9103AA4B463146A81DFFF748FE57
:10B3EC00044670B9B9F804100498FFF77DFD0446C3
:10B3FC0048F209639C423FF4F9AE002C7FF4ABAEEB
:10B40C00A6E7C9E90066F3E7002E7FF4C0AE6D4BEA
:10B41C001A7BBAB11E731A78013A062A3FF699AE16
:10B42C0001A151F822F000BFDFB4010005B5010005
:10B43C0023B5010029B501005FB101002FB5010052
:10B44C0041B501001A78072AE5D801A151F822F07C
:10B45C007DB4010023B4010023B40100A3B40100A6
:10B46C00B7B40100DBB40100DBB401009FB40100F0
:10B47C001A89554901321A8100225A801A730A78A6
:10B48C00B2FA82F252099A720A7DB2FA82F2520927
:10B49C00DA72012207E04D4958688A8840880332E5
:10B4AC0002448A8002221A70B5E75C88464A4749F2
:10B4BC00142505FB042208685468506088881081A4
:10B4CC0002200C608880002111740622EBE7072211
:10B4DC00E9E79A7A32B9DA7A8AB900221A705A8074
:10B4EC005A6083E6384900229A72CA68002AF2D15F
:10B4FC00097C0029EFD05A80FFF7FEFD52E70022AD
:10B50C00DA72314A116A0029E7D192F82420002A14
:10B51C00E3D00122EFE7FFF703FD43E7FFF7A0FCC1
:10B52C0040E75A88284B142101FB02335868FFF777
:10B53C00CBFC37E700225A60FFF7B2FC32E701225E
:10B54C008DF80C201A89ADF818209A88DB68ADF8B4
:10B55C001A20059310E002228DF80C201A89ADF800
:10B56C0018209A88ADF81A20DA689B7D05929A1FEC
:10B57C00534253418DF81C3003A8FFF71BFC0026E7
:10B58C00414613483E60FEF785FF12480121FFF744
:10B59C003BF800287FF4C9ADDAE603228DF80C20C5
:10B5AC00DA88ADF818201A89D0E704228DF80C201F
:10B5BC00DB88ADF81830DFE705238DF80C30DBE7BE
:10B5CC005C320020F8310020143200205032002070
:10B5DC003C3200204C3200204068FFF79FBD000039
:10B5EC0008B505480121FEF7F7FF18B9BDE808407A
:10B5FC00FFF794BD08BD00BF4C3200202DE9F3418C
:10B60C009846374B1B7806460D46002B5CD000291C
:10B61C005DD009884FF6FF7399425BD06B88002B85
:10B62C0058D06B689B0758D14AB92F890DF102018C
:10B63C003846FFF7E5FB30B102B0BDE8F081138866
:10B64C005788ADF8023001A8FFF786FC044660B9B4
:10B65C00BDF80220234B142101FB02335889033817
:10B66C00C01B588148F20760E6E780F80080002391
:10B67C008375BDF8023083826B68036101211A481F
:10B68C00FEF7B6FF2B882381B8F1030F6B88A380DC
:10B69C0004BF0423A3754FF0000508BF3368E060B6
:10B6AC0008BFA3611148E780658101A9FEF7B7FEC9
:10B6BC0036B1E36833600E4B75601B89B57233810C
:10B6CC00FFF78EFF0020B7E748F20160B4E748F2BD
:10B6DC000460B1E748F20360AEE748F20260ABE702
:10B6EC00F0310020143200200C3200203C320020BB
:10B6FC00F831002073B50D460446C8B1C1B10DF147
:10B70C000601FFF763FCB0B1BDF806300B48666864
:10B71C00142202FB030001210C30FEF769FF636861
:10B72C002E600C336B600123A372002002B070BD3D
:10B73C0048F20460FAE748F20960F7E71432002097
:10B74C0013B50446A8B10DF10601FFF73FFC98B103
:10B75C00BDF806200B4B142101FB0233DA6872B1E1
:10B76C00A27A62B1DA680020013ADA60A07202B003
:10B77C0010BD48F20460FAE748F20960F7E748F2B6
:10B78C000560F4E71432002002230022FFF736BFD5
:10B79C0018B103230022FFF731BF48F20460704751
:10B7AC00114B1B7813B50446ABB14FF6FF7398429F
:10B7BC0014D001A8FFF7D0FB98B105230370012327
:10B7CC000371C48001A90948FEF729FEFFF708FFA1
:10B7DC00002002B010BD48F20160FAE748F20360A5
:10B7EC00F7E748F20760F4E7F03100203C32002024
:10B7FC0007B5ADF80600ADF804100DF1060001A96F
:10B80C00FFF736FC03B05DF804FB07B51346ADF843
:10B81C0006000A4600200DF10601FFF729FC03B0D3
:10B82C005DF804FB07B51346ADF806000A460DF1AA
:10B83C0006000021FFF71CFC03B05DF804FB20B1EF
:10B84C0019B103680B600020704748F20460704720
:10B85C002DE9F743DDF8288088B93E4B3E483F4A36
:10B86C00C01AC0080E243E4B009400043D4940F021
:10B87C000100FEF7C2F8204603B0BDE8F0834AB9D8
:10B88C00344B3548384AC01AC0080E24344B009447
:10B89C000004EBE7D0F800E0BEF1000F09D12D4B0E
:10B8AC002D48324AC01AC00808242D4B00940004BD
:10B8BC00DCE74BB9274B28482D4AC01AC00809248D
:10B8CC00274B00940004D1E74768D7F80490B3FBEA
:10B8DC00F9F709FB17374FB11E4B1F48254AC01A01
:10B8EC00C00809241E4B00940004BFE78F0709D041
:10B8FC00184B1948204AC01AC0081024184B009441
:10B90C000004B3E712F0030F09D0124B12481B4A84
:10B91C00C01AC0081024124B00940004A6E7C76894
:10B92C00B9420DD305694C1E1C44AC4208D8CDF865
:10B93C002880DEF80C40A44603B0BDE8F043604715
:10B94C00044B05480E4AC01AC0081024044B00943E
:10B95C0000048BE7702F0200C82F02003037020062
:10B96C00D938020035370200B23702005E370200C8
:10B97C0071370200B8370200E2370200FA370200D2
:10B98C001D380200F7B580B92A4B2B482B4AC01A38
:10B99C00C0080E242A4B009400042A4940F00100F0
:10B9AC00FEF72BF8204603B0F0BDD0F800C0BCF178
:10B9BC00000F09D11F4B2048234AC01AC008082485
:10B9CC001F4B00940004E8E74AB91A4B1A481F4A67
:10B9DC00C01AC00809241A4B00940004DDE747681C
:10B9EC00D7F800E00EF1FF370F4209D0114B124887
:10B9FC00174AC01AC0081024114B00940004CCE75D
:10BA0C00C768B9420CD305694C1E0EFB0244AC420C
:10BA1C0006D8DCF81040A44603B0BDE8F0406047FF
:10BA2C00044B05480B4AC01AC0081024044B009460
:10BA3C000004B2E7702F0200C82F0200303702005A
:10BA4C00C6380200353702005E370200713702003B
:10BA5C00443802006A38020029DF704728DF70473B
:10BA6C0070B503689E6886B004460D466EB114220C
:10BA7C000021684606F07AFEA368059323790195A8
:10BA8C002BB1012B0DD06846B04706B070BD012319
:10BA9C008DF8003023690293E36803936369049380
:10BAAC00F1E702238DF80030E3681B030293F5E7FE
:10BABC00034B187A0122B0FA80F05A74400970478F
:10BACC007432002038B5234D234C2B7A3BB92349D3
:10BADC002348FEF7B4FC206008B9686038BD022327
:10BAEC0024682B72237973B1012B24D020460321B7
:10BAFC00FFF7B6FF00232B726B6018491848BDE89E
:10BB0C003840FEF7C7BCD4E90523D21AB2F5805FE2
:10BB1C00D4E9031028BF4FF480529208012A38BF91
:10BB2C00012219441844FFF797FF50B11128DDD1B9
:10BB3C0001232B72D2E7D4E903031844FFF78EFFDD
:10BB4C00F3E72B7C002BC9D1BDE83840022000F074
:10BB5C0009B800BF743200208C32002088320020DB
:10BB6C006432002038B5234C237A002B41D0022BB1
:10BB7C0009D1032830D0204B00221B68E2601A79CF
:10BB8C003AB1012A22D0637C7BBBBDE83840FFF779
:10BB9C0099BFD3E905128D1AB5F5805F94BF521980
:10BBAC0002F580529A619142EDD102284FF00003C8
:10BBBC0008BF19462372104B18BF0D211868FFF7E8
:10BBCC004FFF0E490E48FEF765FCDCE71A6901329F
:10BBDC001A615B699A42E7E7E3680133082B01D8E5
:10BBEC00E360D0E70023E360DFE7BDE8384006F010
:10BBFC006FB838BD743200208C320020883200209F
:10BC0C0064320020831E012B01D8FFF7ABBF7047B5
:10BC1C0000F0FD03012B08D1044B00225A74421E84
:10BC2C00504250411874FFF74DBF704774320020DA
:10BC3C00BFF34F8F0549064BCA6802F4E062134309
:10BC4C00CB60BFF34F8F00BFFDE700BF00ED00E0FE
:10BC5C000400FA054FF08053D3F83001421C04BFA6
:10BC6C004FF0704393F8E00F831F584258417047D0
:10BC7C004FF0704393F8E02F062A09D1D3F8E83F30
:10BC8C00C3F30313033B032B02D8024AD05C704767
:10BC9C0000207047F43802004FF08053D3F8300185
:10BCAC00421C04BF4FF0704393F8E00F062804D0F9
:10BCBC00A0F10A0358425841704701207047000018
:10BCCC0008B5FFF7C7FF40B14FF08053A44AD3F833
:10BCDC002433C3F30423C2F84035FFF7C9FF10B176
:10BCEC00A04BA14A5A67FFF7D7FF48B14FF08053DA
:10BCFC004FF08042D3F84432C3F34233C2F83C35A0
:10BD0C00FFF7B6FF30B1994AD2F8FC3023F08073BC
:10BD1C00C2F8FC30FFF7C0FF40B14FF08043002267
:10BD2C00C3F80C21C3F81021C3F83825FFF7A0FF86
:10BD3C0020B14FF080430322C3F8A025FFF798FFF2
:10BD4C0060B18B4B0522C3F810260122C3F888265C
:10BD5C000022C3F818263F22C3F814264FF0805354
:10BD6C00D3F83021501C09BF4FF07043D3F8343155
:10BD7C0093F8E02FD3F8E83F08BFC3F30313062A68
:10BD8C004ED1033B032B03D87A4AD35C002B49D00A
:10BD9C004FF08052784BD2F80414C3F82015D2F827
:10BDAC000814C3F82415D2F80C14C3F82815D2F8CB
:10BDBC001014C3F82C15D2F81414C3F83015D2F89B
:10BDCC001814C3F83415D2F81C14C3F84015D2F863
:10BDDC002014C3F84415D2F82414C3F84815D2F82B
:10BDEC002814C3F84C15D2F82C14C3F85015D2F8FB
:10BDFC003014C3F85415D2F83414C3F86015D2F8C3
:10BE0C003814C3F86415D2F83C14C3F86815D2F88A
:10BE1C004014C3F86C15D2F84424C3F8702501E023
:10BE2C000A2AB5D0FFF716FF48B14FF080534FF0F8
:10BE3C008042D3F8583203F04F03C2F8E43EFFF7C8
:10BE4C002BFF48B14FF08043D3F80024D10744BFF7
:10BE5C006FF00102C3F800244FF08053D3F8302167
:10BE6C00062A0ED1D3F83431033B032B02D8434AB4
:10BE7C00D35CBBB1424AD2F83C3743F48063C2F87E
:10BE8C003C374FF08053D3F830210A2A0AD1D3F82B
:10BE9C0034313BB14FF08042D2F8E43E43F00F0313
:10BEAC00C2F8E43E4FF01023D3F80022002A03DB43
:10BEBC00D3F80422002A23DA324B0122C3F80425DA
:10BECC00D3F80024002AFBD04FF010221521C2F821
:10BEDC000012D3F80024002AFBD04FF010231522B7
:10BEEC00C3F80422274BD3F80024002AFBD00022ED
:10BEFC00C3F80425D3F80024002AFBD0FFF798FEE2
:10BF0C00D3F80022D20703D4D3F80432DB0722D5AE
:10BF1C001C4B0122C3F80425D3F80024002AFBD0C3
:10BF2C004FF010220021C2F80012D3F80024002A8E
:10BF3C00FBD04FF010230022C3F80422114BD3F88E
:10BF4C000024002AFBD00022C3F80425D3F80024D7
:10BF5C00002AFBD0D2E70C4B0C4A1A6008BD00BF7C
:10BF6C000030014000C007400DF0ADBA00ED00E01C
:10BF7C0000500040EC38020000C00040F0380200D5
:10BF8C000010004000E001400C2B00200090D0037A
:10BF9C00054A4FF0A043105CD3F8043523FA00F0A7
:10BFAC00C04300F001007047F8380200044B1A5CE3
:10BFBC00012393404FF0A042C2F80C35704700BFEC
:10BFCC00F8380200044B1A5C012393404FF0A04256
:10BFDC00C2F80835704700BFF838020008B50020D9
:10BFEC00FFF7F0FF0120FFF7EDFFBDE8084002204E
:10BFFC00FFF7E8BF08B50020FFF7D8FF0120FFF7D7
:10C00C00D5FFBDE808400220FFF7D0BF074A4FF02C
:10C01C00A041105CD1F804350122824022EA0300D1
:10C02C001340C1F80805C1F80C357047F838020008
:10C03C00C3070AD54FF0A0430322C3F83C27C3F82B
:10C04C004027C3F84827FFF7C9BF704738B5074CDE
:10C05C00051E04F1080318BF1C4623682BB11A688F
:10C06C0022605B6828469847F7E738BD9832002075
:10C07C0020B9054B01225A70FFF7E8BF012802D105
:10C08C00014A9070F8E770479032002020B9034BBA
:10C09C0001225A70FFF7DABF704700BF90320020C0
:10C0AC0038B50E4C2378B3B90D486360A360236197
:10C0BC00E36000F075F8054605F01AFE08B900F0CB
:10C0CC007BF801232370074BD3F800340BB1012309
:10C0DC00A370284638BD8525F5E700BF90320020B7
:10C0EC007DC001000000014037B50D4C00230DF15F
:10C0FC0007008DF80730FDF7DFFFE368013BE360D5
:10C10C00E36833B9074BD3F8005415B900F066F85F
:10C11C00A5709DF80700FDF7F3FF03B030BD00BF1D
:10C12C009032002000000140012813B50CD00328E8
:10C13C0020D038B9134B0122C3F88020BFF34F8FA6
:10C14C00BFF36F8F02B010BD0F4C00230DF1070031
:10C15C008DF80730FDF7B0FF23780BB9FFF7A0FF80
:10C16C00E3689DF807000133E3600123A370FDF73A
:10C17C00C7FFE7E700F020F802B0BDE81040FFF77A
:10C18C00B3BF00BF00E100E09032002000F180401E
:10C19C00002382B0036003680193019B02B07047D7
:10C1AC00044B0246187918B91A6001229A8070471C
:10C1BC0085207047A4320020074B1A68D20704D49C
:10C1CC00C02283F8002301221A604FF08043012221
:10C1DC00C3F81825704700BF00E100E04FF0804223
:10C1EC0008B50223C2F808334FF48270FFF7CEFF74
:10C1FC000123D360D2F81834DB03FBD408BD000054
:10C20C004FF0804110B5D1F8003163B14FF480701C
:10C21C00FFF7BCFF0D4B58790122C1F8082310B968
:10C22C005A711B6898474FF08042D2F8043163B1C1
:10C23C004FF48270FFF7AAFF0223C2F80833034BB6
:10C24C00BDE810401B680120184710BDA432002027
:10C25C0000F1804000F5C040002382B00360036809
:10C26C000193019B02B07047800000F1A040D0F810
:10C27C00002722F44032C0F80027D0F8003743EAF8
:10C28C000143C0F800377047054B4FF0FF320728C9
:10C29C0043F8202084BFC01880F84820704700BFA6
:10C2AC00AC320020C208054900F00700012383408E
:10C2BC00885C20EA03008854704700BF00330020DC
:10C2CC0010B5184991F8583053BB4FF0FF3222FA91
:10C2DC0003F0C00748BFC81803F1010348BF80F83A
:10C2EC003020202BF3D10024E0B20134FFF7CCFF37
:10C2FC000C2CF9D10C4B0022C0204A6583F80603A4
:10C30C00402018604FF4BE70FFF7A2FF074B4FF0B0
:10C31C000040C3F80403012381F85830104610BDC7
:10C32C000820FCE7AC32002000E100E00060004097
:10C33C000E4B034493F93020072A02DD0021FFF74E
:10C34C0093BFD3B2072B10D8930003F1804303F5AE
:10C35C00C043D3F8101521F00101C3F810150123C7
:10C36C0003FA02F2024BC3F808237047AC320020E8
:10C37C000060004038B5174D0446FFF7D9FF2A1965
:10C38C0092F9303092F83020072A9FBF124A03F5F9
:10C39C00A273002142F8231005EBD40304F007012B
:10C3AC0093F8542001238B401A4209D004F5E07312
:10C3BC004FF0A042022142F823102046FFF772FFF3
:10C3CC002C4494F83000FFF75FFFFF2384F83030E3
:10C3DC0038BD00BFAC320020006000402DE9F74FA3
:10C3EC0000244E4D01944FF48072012102F18043E0
:10C3FC0003F5C04390B21B68012B06D1D5F804336A
:10C40C000B4202D0FFF724FF0C430432B2F5907FAD
:10C41C004FEA4101EAD1414BD3F87C31012B0CD1CD
:10C42C004FF4BE70FFF714FF4FF0A04344F00044EC
:10C43C00D3F820250192C3F82025E3B2D3B1384FAD
:10C44C0000250126344210D0AB0003F1804303F5E4
:10C45C00C043D3F81005D3F8101557F8253023B185
:10C46C00C1F30141C0F3042098470135082D4FEA70
:10C47C004606E7D1002C48DA294D4FF0A048294E4A
:10C48C004FF00009012716F9013B5A1C31D0C3F3B8
:10C49C00C20208326A44DCB212F8042C03F03F0AE0
:10C4AC0003F0070307FA03F31A4222D00AF5E073EC
:10C4BC00504658F82330C3F3014BBBF1020F0CBFAD
:10C4CC0003210221FFF7D0FE07FA0AF3C8F8203542
:10C4DC0005EB0A0393F9303055F823304BB1A10921
:10C4EC00032904D0BBF1020F12D1012901D150460E
:10C4FC00984709F10109B9F1040FC4D1D8F82035D6
:10C50C000193C8F82035002BB9D103B0BDE8F08FEA
:10C51C00BBF1030FEDD10229E8E700BF006000403A
:10C52C00AC320020FC320020014B1B68184700BFC6
:10C53C00083300200E4B984237B50C4602D0002031
:10C54C0003B030BD00230DF107008DF80730FDF767
:10C55C00B3FD084B1D7915B901221C601A719DF8A9
:10C56C000700FDF7CDFD002DE9D01120E8E700BF55
:10C57C0000200040083300201FB503788DF80030F0
:10C58C008388ADF8043083688DF80630C3688DF865
:10C59C000730036902934369054A0393054B6846C8
:10C5AC0053F8213052F82110984705B05DF804FB80
:10C5BC001033002014330020024B4FF4807043F0F2
:10C5CC0001031847203902002DE9F047154690F871
:10C5DC000090324A42F82950314A42F829304B7BBC
:10C5EC0007460C466BB30868496882008B0002F161
:10C5FC00A04203F1A04340F20C66C2F800674FF072
:10C60C00010AC3F800674FF0A0460AFA00F00AFAD4
:10C61C0001F1C6F80805C6F8081540F20D61C2F81C
:10C62C000017C3F80017FFF7C7FF4FF00008D6F844
:10C63C001025636822FA03F3DB070DD5B8F1000F60
:10C64C001DD1002D174A4B4608BF2A462146381DDE
:10C65C00BDE8F04700F01EB923680AFA03F3C6F8E8
:10C66C000C35FFF7A9FF23680AFA03F3C6F808355F
:10C67C0008F10108FFF7A0FFB8F1090FD7D16368E3
:10C68C0001264FF0A04806FA03F3C8F80C35FFF763
:10C69C0093FF63689E40C8F80865D2E71433002006
:10C6AC001033002085C501000023435082B043584D
:10C6BC000193019B02B070470A7B0346032A29D8D9
:10C6CC00DFE802F0212519028A68500304D5D3F85B
:10C6DC004C250869904207D18A6852031AD4D3F8C2
:10C6EC004C254969914215D000200622C3F800055B
:10C6FC00C3F800257047D3F84C2508699042F3D154
:10C70C00D3F83C25EDE7D3F84C250969EAE7D3F8D3
:10C71C003C25FAE701207047F0B5594D594CD5F836
:10C72C00243187B0FBB14FF492712846FFF7BCFF60
:10C73C00D5F80431BBB9A368C5F808330223A3604C
:10C74C00A368C5F80433D5F860311BB1D5F80032B5
:10C75C009F0503D44A4B01221A625A61012384F8C3
:10C76C002E3007B0F0BDD5F80431002B50D0444822
:10C77C004FF48271FFF798FF236A5E0609D494F890
:10C78C002E3033B93F49FFF797FF80F0010084F852
:10C79C002E00236A5D0720D43B4E0FCE01AD0FC592
:10C7AC00336837482B604FF4B071FFF77DFF4FF4BF
:10C7BC00AE71FFF779FF94F8303013B194F82E3046
:10C7CC005BB12F4B0022C3F80022A2602F4AC3F8A2
:10C7DC0008232F4B0822C3F88021294AD2F8C434ED
:10C7EC00C2F8C43498073DD501238DF8003094F875
:10C7FC0030300BB984F82F30236A5B0703D594F8DB
:10C80C002E30002BADD0D4E9003168469847A8E70C
:10C81C001B484FF4A471FFF747FF237B83B91A4FD2
:10C82C000FCF01AE0FC63B68336094F83030002B4D
:10C83C00D3D1C5F80032A360144BC5F80833C8E750
:10C84C004FF40073C5F8003240F20223A36003F1E9
:10C85C00CE73C5F80833A368C5F804330123AB6065
:10C86C002B627EE7590701D50223BEE7DA0701D513
:10C87C000323BAE794F82E30002BB6D00423B4E788
:10C88C0000300040183300202433002002029C01A9
:10C89C0000E100E02DE9F84F0679304D4FF0340AF5
:10C8AC000AFB06FA05EB0A079B4697F82D308046E3
:10C8BC000C469146002B4DD129490068FFF73AFEF2
:10C8CC00002849D12168637B87F8323001F5E0728A
:10C8DC004FF0A043B860C7F804B087F82F0087F872
:10C8EC00300040F20C6745F80A9043F822706268F9
:10C8FC0002F5E07C43F82C70D8F80030C3F808152A
:10C90C00C3F80C25A268C3F82425B9F1000F14D084
:10C91C00227B43F3073152010029C3F30733D2B210
:10C92C0013DB104C671887F800230122490903F028
:10C93C001F0302FA03F344F82130342303FB06559A
:10C94C00012385F82D30BDE8F88F074903F00F035C
:10C95C00CA54F2E70820F6E71120F4E71833002058
:10C96C0025C7010000E100E014ED00E00368027946
:10C97C000621C3F80015044B342101FB02330222BB
:10C98C0083F82D20704700BF183300202DE9F843A1
:10C99C00DFF8C48290F804900468342606FB0986FC
:10C9AC00002386F82E30CB6803F06043B3F1005FB0
:10C9BC000D46174603D010263046BDE8F883A74B2A
:10C9CC00C4F8083396F82F3023B1B368C4F8043395
:10C9DC001126F1E712F0140F0CBF0123002386F887
:10C9EC002F308E46BEE80F0006F10C0CACE80F00A1
:10C9FC00DEF80030CCF80030C7F3001386F8303086
:10CA0C0037626B78C4F8883520464FF48271FFF793
:10CA1C004BFE4FF49271FFF747FE4FF4B071FFF7E6
:10CA2C0043FE4FF4A471FFF73FFE17F0010318BF4C
:10CA3C000123C4F8503517F0020318BF0123C4F8C2
:10CA4C0040352B78032B00F2B580DFE803F084A08F
:10CA5C0069022B6903F06043B3F1005FABD14FF473
:10CA6C008073C4F80032EA686B68C4F844254FF44C
:10CA7C00A871C4F84835FFF717FE01232362A360A1
:10CA8C00D4F85031002BFBD04FF4A8712046FFF79F
:10CA9C000BFEAB682A69C4F84425C4F84835342326
:10CAAC0003FB09834FF480229A60082300263A077F
:10CABC0004D42A78032A1CBF0122E250342303FB3E
:10CACC0009F308EB030258F80330002B75D101254C
:10CADC00D4F84821D4F80431002B40F08980003A76
:10CAEC0018BF0122D4F82431002B00F088804FF4B9
:10CAFC0092712046FFF7D8FDD4F86011D4F80032BB
:10CB0C0009B1980504D4256265610029E0D00022A2
:10CB1C00D90574D54FF4A4712046FFF7C5FDD7E7AE
:10CB2C006B68EA68C4F84425C4F848352B6903F0EF
:10CB3C006042B2F1005F7FF43EAFAA68C4F83435AE
:10CB4C004FF48453C4F83825C4F80032342303FB63
:10CB5C000983022212E06B68EA68C4F8442517F0D6
:10CB6C00200FC4F848354FF034030BD04FF48072CB
:10CB7C00C4F8002203FB09834FF480229A6001233E
:10CB8C00236292E74FF40072C4F80022DFE76B686F
:10CB9C00EA68C4F83425C4F838354FF48053C4F827
:10CBAC000032342303FB098302229A60012323629F
:10CBBC0000237BE70823072679E77B0744BF002384
:10CBCC0093607D0606D4342303FB09839A6842F0F4
:10CBDC0002029A60342303FB0988D8F8083043F426
:10CBEC000073C8F80830D8F80830C4F80433E3E60A
:10CBFC004FF482712046FFF757FD012272E7002A9D
:10CC0C003FF466AF3421D4F8C434C4F8C43401FB07
:10CC1C000982002082F82F0093B113F0010F14BF8A
:10CC2C004FF40246032648F2012213F0020F18BFFC
:10CC3C00164613F0040F48F2022318BF1E46BBE63B
:10CC4C007B063FF5B9AE09FB01812046FFF734FDA9
:10CC5C00002808BF0326AFE61833002002029C010F
:10CC6C0010B586B00024CDE902349DF820308DF843
:10CC7C000510A342CDE9042401A914BF20222246A9
:10CC8C008DF80440FFF782FE06B010BD10B586B0DB
:10CC9C00012402930023CDE903328DF805101A46C6
:10CCAC0001A98DF804400593FFF770FE06B010BD86
:10CCBC00F7B505792F4C0C236B43E71816463A7AD7
:10CCCC00002A54D1E6504B687B6047790368944640
:10CCDC00D6B2B7423CD8CA7843F307365201002E7D
:10CCEC00C3F30733D2B23DDB234F07EB060C8CF8B2
:10CCFC0000230122760903F01F0302FA03F347F81D
:10CD0C00263003684A78D3F8040502F0030220F0B9
:10CD1C0003000243C3F80425D3F808058A7820F0F1
:10CD2C00030002F003020243C3F80825D3F81005F0
:10CD3C000A7820F00F0102F00F020A43C3F8102505
:10CD4C000C2303FB054401232372002003B0F0BD28
:10CD5C00960006F5A076013243F806C09E5901965E
:10CD6C00019EB5E7054E03F00F03F254C9E7082006
:10CD7C00ECE700BF4C33002000E100E014ED00E0D4
:10CD8C00036801221A600279034B0C2101FB023368
:10CD9C0002221A72704700BF4C3300200368012234
:10CDAC001A610179024B0C2000FB01331A72704797
:10CDBC004C33002037B54FF4803400688C407BB185
:10CDCC008B0003F5A0730025C550C3580193019B3C
:10CDDC00C0F8044301F5A87140F8212003B030BD20
:10CDEC00C0F80843F6E770B4046840F20116D4F8B2
:10CDFC0000528E4025EA0605C4F80052D4F80052C1
:10CE0C002B43C4F800329DF80C3070BCFFF7D2BF36
:10CE1C002DE9F341104C114F114E00254FF4803881
:10CE2C00236883B1D7F8043308FA05F21A420AD002
:10CE3C00002323602368019304F5E040019B80B23A
:10CE4C00D6E9003198470135042D04F10404E7D1EB
:10CE5C0002B0BDE8F08100BF40910040009000405E
:10CE6C004C3300200220FFF7D1B8000008B5074B67
:10CE7C001B783BB10020FFF7A5F8BDE80840012066
:10CE8C00FFF7A0B8BDE80840FFF7A8B8583300205A
:10CE9C00F8B57A4C237805461BB100232370FFF7B5
:10CEAC00E5FF172D00F28780DFE805F00C1717421D
:10CEBC005364757F878C878C949999999999C3C879
:10CECC00D0D8E3E3FFF7D2FF6D48FDF718F86D4BB0
:10CEDC00002204461A702046F8BD0020FFF758F8CF
:10CEEC00F0B10020FFF76EF8022D0CBF4FF4E16497
:10CEFC004FF47A64634B1D7000254FF400464FF4D9
:10CF0C007A7029464FF4FA620023E4FB060105F01F
:10CF1C00ABFA2A460146BDE8F8405948FCF7D7BFA2
:10CF2C00FFF744F8022D0CBFC8244FF4C874E1E796
:10CF3C000020FFF72DF840B10020FFF743F84FF425
:10CF4C004874504B03221A70D6E7FFF72FF8C82409
:10CF5C00F7E70020FFF71CF838B10020FFF732F894
:10CF6C004FF47A64474B0422EDE7FFF71FF84FF4B8
:10CF7C00C874F7E70020FFF70BF848B10020FFF763
:10CF8C0021F8404B05221A7040F6CD410022C2E731
:10CF9C00FFF70CF8F5E70020FFF738F8394B0622BD
:10CFAC001A70002240F26661B5E70020FEF7FEFF22
:10CFBC00344B07221A7000248DE701202070FFF7F4
:10CFCC0025F8EEE701202070FFF720F800224FF43F
:10CFDC000051A0E7FFF70EF82A4B0C22EAE72A488B
:10CFEC002A4EFCF78CFFD5F1110504461CD0D8B99C
:10CFFC00012D13D0C820454321464FF400474FF470
:10D00C007A704FF4FA620023C5FB070105F02CFA85
:10D01C00224601461C48FCF75AFF04460220FEF744
:10D02C00C5FF0123337056E70220FEF7CBFF002328
:10D03C00F8E7FFF71BFF134B1222BBE7FFF716FFB6
:10D04C000020FEF7B3FF0F4B1322B3E7FFF70EFFE1
:10D05C000120FEF7ABFF0B4B1422ABE7FFF706FFEB
:10D06C000020FEF7A3FF0120FEF7A0FF054B1522C1
:10D07C00A0E7FEF7BFFF034B1D709CE7A433002015
:10D08C0080330020A533002060330020583300206B
:10D09C00044B1B68DB0703D5034B1878FFF7F8BE6E
:10D0AC00704700BFA0330020A533002008B50B4B00
:10D0BC00186010F001000FD00120FEF7B9FF084AEC
:10D0CC0008480021FCF7F8FE30B9BDE80840064AD4
:10D0DC0006480121FCF7F0BE08BD00BFA0330020BC
:10D0EC009DD001003839020071CE010034390200A4
:10D0FC000720704708B5012202210020FFF7F8FF36
:10D10C0008B1072810D1072202210120FFF7F0FFF8
:10D11C0008B1072808D100210A220846FFF7E8FFCA
:10D12C0010B1072808BF002008BD00000388102B91
:10D13C0010B502D0112B1ED010BD1A4C2168B1B9FC
:10D14C0001220846FFF7D4FF08B1072824D1072293
:10D15C0002210120FFF7CCFF08B107281CD10422C3
:10D16C0002210020FFF7C4FF08B1072814D123685F
:10D17C0001332360E0E70B4A1368013B1360002B7B
:10D18C00DAD1FFF7B7FF0028D6D0074B1B68002B6E
:10D19C00D2D0BDE810401847034B1B68002BE6D0DB
:10D1AC009847E4E7AC330020A833002032DF704707
:10D1BC003FDF704776DF70477ADF70477CDF704760
:10D1CC007FDF70478FDF7047B1DF7047037813B98B
:10D1DC00828A934200D370470133FAE708B50A48B4
:10D1EC000A4B0B49C01AC008000440F00300FCF7BE
:10D1FC00EDFB4FF0A0434FF48052C3F80C251022E6
:10D20C00C3F80C2508BD00BF982F0200702F020038
:10D21C003C39020008B9FFF7E1BF7047FCF75CBD71
:10D22C0070B513210546FFF7C5FF034660B10748EB
:10D23C00074C0849241AE40824042A4644F0020046
:10D24C00BDE87040FCF7CFBB70BD00BF702F020073
:10D25C00982F0200433902002DE9F04387B005AA4C
:10D26C000DF1120104A800F0A9FC0DF10E0203A9A6
:10D27C000DF10A0000F07CFC444DBDF91030BDF9F5
:10D28C001410434F434E44484FF4967403F1640218
:10D29C006431643B91FBF4F193FBF4F329803B8004
:10D2AC00BDF90A103D4B92FBF0F26431328091FBD8
:10D2BC00F0F1BDF90C201980394B643A92FBF4F271
:10D2CC001A80BDF90E30374A374C643393FBF0F3B8
:10D2DC000DF11600138000F0B3FE344B9DF917804E
:10D2EC00E41AE408240444F00304B8F1000F05D157
:10D2FC002F492046FCF76AFBFFF770FFB7F90030A7
:10D30C000193B5F900302B4900934246B6F9003031
:10D31C002948DFF8A89005F0DAF9CDF80480B7F9C0
:10D32C000030B6F900202649A9F8000000932046E9
:10D33C00B5F90030234FFCF76CFB234B1E491B88BF
:10D34C0022484A4604F0C2FB3A8821492046FCF7A1
:10D35C0041FB3B88B3F57A6F0AD300233B804FF037
:10D36C00A0434FF48052C3F80C251022C3F80C25AF
:10D37C0033882A8813431BB233B93B8801339BB2E1
:10D38C003B8007B0BDE8F0830023F9E7FE340020B2
:10D39C0000350020FC340020D4FEFFFF2035002097
:10D3AC002235002024350020982F0200702F020017
:10D3BC003C3902008439020002350020D2330020AF
:10D3CC0091390200D0330020142B0020182B0020A0
:10D3DC008D3902000388212B13B5044655D007D88C
:10D3EC00112B35D0132B5ED0102B0CD002B010BDEE
:10D3FC00522B66D0562B01D03B2BF7D1A088132192
:10D40C00FFF7D8FE56E0334B33483449C01AC008F6
:10D41C00000440F00300FCF7D9FA3148FFF7BEFCDA
:10D42C004FF0A0434FF48052C3F80C252D4BA1882C
:10D43C002D48198001F0B6FF08B1FCF74DFC2B48C4
:10D44C0000224FF4A47102B0BDE81040FCF73FBDC0
:10D45C004FF0A0434FF48052C3F80C252048FFF73F
:10D46C008FFC1C4B1C482249C01AC008000440F019
:10D47C000300FCF7ABFA1B4B1C484FF6FF721A80EB
:10D48C0002B0BDE81040FCF73ABD002380888DF84F
:10D49C00043001A98DF80530FFF794FE0028A5D0C3
:10D4AC00FCF71AFCA2E70F48002300881A468521D6
:10D4BC00FFF786FE002899D002B0BDE81040FCF7BB
:10D4CC000BBC084800231A4619460088FFF77CFE5F
:10D4DC00F0E700BF702F0200982F0200C539020040
:10D4EC00D43B0200142B0020F0340020B033002079
:10D4FC00CF39020010B5204B204A9B1ADB088CB0A8
:10D50C001B04032835D8DFE800F002262E3243F046
:10D51C00030420461A49FCF759FA2C22002101A8D1
:10D52C0005F024F942F6E06240210123CDE9051211
:10D53C0014488DF8083001A98DF8043001F0BFFAB9
:10D54C000021114801F034FD104902462046FCF739
:10D55C0041FA0CB010BD0E4943F003000CB0BDE80D
:10D56C001040FCF733BA0B4943F00100F6E70A49C7
:10D57C00FAE70A49F8E700BF982F0200702F020063
:10D58C00DC390200D43300202DD201000A3A02000B
:10D59C00213A0200443A02007D3A0200AA3A020003
:10D5AC0008B503784BB9054B3B211888FFF702FEF1
:10D5BC0018B1BDE80840FCF78FBB08BD142B002048
:10D5CC00022810B518D10D4B0D4C0E49E41AE40885
:10D5DC00240444F003042046FCF7F8F904F048FB5B
:10D5EC0008B1FCF779FBFCF791FC08B1FCF774FB74
:10D5FC0005492046FCF7EAF9012010BD702F020006
:10D60C00982F0200D13A0200FE3A0200032807D1FB
:10D61C004FF08043A922C3F820250020FDF706BB5C
:10D62C0070470000072808B513D00A280DD004282D
:10D63C0019D10D4B13211888FFF7BCFD30F00803EE
:10D64C0011D0BDE80840FCF747BBBDE80840FFF728
:10D65C00C5BD054B1A884FF6FF739A4203D1034898
:10D66C0001F00FFAEAE708BD142B0020D433002098
:10D67C004FF0A042D2F80435D94301F4805103F4A1
:10D68C008053C2F80815C2F80C3570470C4B4A8809
:10D69C001B889A4212D10A8840F677239A420DD100
:10D6AC00084A09488B880949801A033BC0089BB279
:10D6BC0000041A4640F00300FCF795B9704700BF10
:10D6CC00142B0020702F0200982F02002D3B02001B
:10D6DC00FCF702BB08B50849084801F079FD08B110
:10D6EC00FCF7FAFA0548F72101F081FD18B1BDE805
:10D6FC000840FCF7F1BA08BD99D60100DC340020D3
:10D70C001FB509220A23CDE900234FF0CC71022367
:10D71C00CDE9021300230C481A466946FEF754FF64
:10D72C0020B1FCF7D9FA05B05DF804FB0748FFF708
:10D73C001DF9074B07480849C01AC008000440F0FF
:10D74C000300FCF743F9EEE7E03B0200E43B020088
:10D75C00702F0200982F0200493B0200B0B586B032
:10D76C0002AF07F1100404E90F00BC8DB96A04F193
:10D77C0008036A46DB08A2EBC3039D4697F82430E6
:10D78C008DF8083022460DF1090004F0C6FF002286
:10D79C000092631C02AD97F82010DBB22A46381DAC
:10D7AC00FFF75EFA044608B1FCF796FAFBF7C4FFE4
:10D7BC000028FBD120461037BD46B0BD30B587B030
:10D7CC0006AC9DF8285004E90F009DF83830009302
:10D7DC000BAA0123294603A8FFF742FA044620B1FD
:10D7EC00FCF77AFA204607B030BD9DF834300C9A1D
:10D7FC00294603A8FFF74AFA0446F3E780B54FF031
:10D80C00A04303224FF48051C3F83027C3F8081506
:10D81C00C3F810271022B0B0C3F808254FF480418C
:10D82C000020FBF739FF08B1FCF756FAFBF774FE42
:10D83C00FCF710FB08B1FCF74FFA934A934801210F
:10D84C00FCF73AFB08B1FCF747FA914B914A93E885
:10D85C00030005AC84E803008F482146FFF728FA43
:10D86C0008B1FCF739FA8D4B8D49D3F810258A484D
:10D87C000125D2B221FA02F22B4600210095FFF7C6
:10D88C00B2FA8548FFF77CFA86492846FFF70EFC6A
:10D89C0008B1FCF721FAFDF7A7F908B1FCF71CFA5F
:10D8AC0004F0A8F908B1FCF717FA0023214601206F
:10D8BC00059304F071FA08B1FCF70EFA204604F057
:10D8CC002BFB08B1FCF708FA0120FFF76FFC08B13D
:10D8DC00FCF702FA0120FFF76BFC08B1FCF7FCF92E
:10D8EC00112371498DF81030092204A8FFF766FC4A
:10D8FC0008B1FCF7F1F90023ADF818300623ADF8A8
:10D90C0014300C23ADF8163020464FF49673ADF856
:10D91C001A30FFF751FC08B1FCF7DEF9FFF7DAFE1D
:10D92C00624804A900F05EFB08B1FCF7D5F9AC2203
:10D93C000021204604F01AFF02238DF81430052331
:10D94C008DF8173001234021ADF860308DF8903000
:10D95C0042F6E063CDE92713554A564B56481992C7
:10D96C0021462E9300F0E9FE08B1FCF7B5F95248B8
:10D97C00012100F0DFFE002305935048504B049327
:10D98C0004A901F0FDFC08B1FCF7A6F904F06CFB4E
:10D99C0008B1FCF7A1F94B4B0593204604F0CCFCE5
:10D9AC0008B1FCF799F9484B4848039303A904F0D4
:10D9BC0013F808B1FCF790F914220021204604F06A
:10D9CC00D5FE4FF4F0234FF4A032CDE90623032308
:10D9DC008DF820303E4B0A9320463E4B0B9301F0C2
:10D9EC007BF908B1FCF778F9FFF78AFE3A4D3B4B0F
:10D9FC00DFF8EC80DFF8EC90ED1AED082D0445F023
:10DA0C0003050126002701232246F1B24046FFF709
:10DA1C003DF928B9324649462846FBF7DBFF01277A
:10DA2C00FBF78AFE0028FBD10136802EEBD117B311
:10DA3C0000214FF47A72084600F0ACF9FEF740FC76
:10DA4C0008B1FCF749F90620FEF794FC0620FEF716
:10DA5C006FFC25492846FBF7B9FF1748032100F056
:10DA6C00DCFE08B1FCF738F9FBF766FE0028FBD1A9
:10DA7C00FDF7D0F8F8E71D492846FBF7A7FFFBF7A1
:10DA8C005BFE0028FBD1D3E765D20100DC3B020032
:10DA9C00CC3B02007DD60100D43B0200009000403C
:10DAAC0000127A0031D601005D3B0200CC3400201C
:10DABC00102B002021D20100D4330020F0340020A0
:10DACC0029D2010001D50100D9D10100182B002069
:10DADC00ADD50100DDD60100982F0200702F020099
:10DAEC00E43B0200673B0200A13B02008C3B0200BE
:10DAFC0038B5054D044645F001054FF47A40A8476A
:10DB0C00013CFAD138BD00BF303C020010B588B0E2
:10DB1C0000228DF81F20049201220392104B0DF16C
:10DB2C001F02029275216822CDE900210FCBFFF76D
:10DB3C0045FE044608B1FCF7CFF80A480A4B9DF89D
:10DB4C001F200A491B1ADB081B0443F00300FBF7D8
:10DB5C0041FFFBF7F1FD0028FBD160B208B010BD0E
:10DB6C00383C0200702F0200982F0200F03B02009C
:10DB7C0070B50D4688B0012114460622CDE903216B
:10DB8C000D4B06AA064602923B206822CDE90020E6
:10DB9C000FCBFFF713FE08B1FCF79EF8BDF8183059
:10DBAC005BBA3380BDF81A305BBA2B80BDF81C30E1
:10DBBC005BBA238008B070BD383C020070B50D46CE
:10DBCC0088B0012114460622CDE903210D4B06AA8B
:10DBDC000646029243206822CDE900200FCBFFF7C6
:10DBEC00EDFD08B1FCF778F8BDF818305BBA33805E
:10DBFC00BDF81A305BBA2B80BDF81C305BBA2380A1
:10DC0C0008B070BD383C02002DE9F0475D4C88B07F
:10DC1C00012507AF68264FF06B0894E80F00CDE99B
:10DC2C000355CDE900680297FFF7C8FD20F070009E
:10DC3C008DF81C00CDE9027594E80F00CDE9006861
:10DC4C00FFF78CFD00238DF81C306C23CDE90063AD
:10DC5C00CDE9027594E80F00FFF780FD1D23CDE997
:10DC6C0000634FF0210994E80F004FF0370ACDE91B
:10DC7C0002758DF81C90FFF771FD94E80F00CDE94B
:10DC8C000355CDE9006A0297FFF798FD20F02000BC
:10DC9C0060F077008DF81C00CDE9027594E80F0058
:10DCAC00CDE9006AFFF75AFDE0238DF81C303823CC
:10DCBC00CDE90063CDE9027594E80F00FFF74EFD46
:10DCCC0003238DF81C302023CDE90063CDE90275C8
:10DCDC0094E80F00FFF742FD94E80F00CDE90275C0
:10DCEC00CDE90069FFF73AFD2223CDE90063CDE9C8
:10DCFC00027594E80F00FFF731FDC2238DF81C303C
:10DD0C006923CDE90063CDE9027594E80F00FFF7B4
:10DD1C0025FD0F238DF81C301923CDE90063CDE9C7
:10DD2C00027594E80F00FFF719FD94E80F00CDE998
:10DD3C000355CDE901870096FFF740FDCDE902754B
:10DD4C008DF81C00CDE9006894E80F00FFF706FD84
:10DD5C003A23CDE90063CDE9035594E80F0002970F
:10DD6C00FFF72CFD084A094B8DF81C009B1ADB08A9
:10DD7C001B04C2B2064943F00300FBF72BFE08B0AC
:10DD8C00BDE8F087383C0200702F0200982F02008B
:10DD9C00013C02002DE9F04F8BB007460E4607926E
:10DDAC00FFF7B4FE002840F00381874C4FF00108C8
:10DDBC004FF0680909AD4FF06B0A94E80F004FF073
:10DDCC00800BCDE9009ACDF80C8002958DF824B02B
:10DDDC00FFF7C4FC4FF4FA70FFF78AFEFFF796FECC
:10DDEC001A23CDE90093CDE9025894E80F008DF881
:10DDFC0024B0FFF7B3FC3220FFF77AFE0DF12703B6
:10DE0C00CDE901A3CDE9038894E80F00CDF800908B
:10DE1C00FFF7D4FC08B1FBF75FFF6C4B6C499DF826
:10DE2C002720A3EB01094FEAD9094FEA094949F028
:10DE3C00030942F0080267498DF827204846FBF792
:10DE4C00C9FD4FF001084FF0680A6B23CDE900A320
:10DE5C00CDE9025894E80F008DF82480FFF77EFC82
:10DE6C003220FFF745FE0F238DF824306C23CDE9CB
:10DE7C0000A3CDE9025894E80F00FFF76FFC3220A5
:10DE8C00FFF736FE00238DF824306A23CDE900A37A
:10DE9C00CDE9025894E80F00FFF760FC3220FFF741
:10DEAC0027FE1C23CDE900A3FF0094E80F00CDE969
:10DEBC0002588DF82470FFF751FC3220FFF718FE42
:10DECC001B23CDE900A3F60094E80F00CDE902581E
:10DEDC008DF82460FFF742FC3220FFF709FE079A09
:10DEEC003D49042A38BF0422B2F57A7F28BF4FF48B
:10DEFC007A724FF47A77B7FBF2F7013FFFB216460E
:10DF0C0048463A46FBF766FD1923CDE900A3CDE957
:10DF1C00025894E80F008DF82470FFF71FFC322094
:10DF2C00FFF7E6FDC6F34702BB2A0BD8612A42D89D
:10DF3C00292A43D8132A44D8092A8CBF4FF0050844
:10DF4C004FF00608424624494846FBF743FD682734
:10DF5C008DF824801A234FF00108CDE90073CDE928
:10DF6C00025894E80F00FFF7F9FB3220FFF7C0FDD1
:10DF7C0038230026CDE90073CDE9025894E80F0050
:10DF8C008DF82460FFF7EAFB3220FFF7B1FD6C231C
:10DF9C00CDE90073CDE9025894E80F008DF82460A8
:10DFAC00FFF7DCFB3220FFF7A3FDFFF72DFE304619
:10DFBC000BB0BDE8F08F4FF00208C3E74FF0030839
:10DFCC00C0E74FF00408BDE7383C0200982F020070
:10DFDC00702F02000C3C0200173C0200A8DF7047B7
:10DFEC0062DF7047F0B5044687B020B319B34FF623
:10DFFC00FF734381114B02AA03F1100716461868F0
:10E00C005968154603C50833BB422A46F7D104F1BB
:10E01C000C013046FFF7E4FF58B9237B8DF806302E
:10E02C0022464FF4905301A90120ADF80430FFF7BC
:10E03C00D5FF07B0F0BD0E20FBE700BF483C020047
:10E04C0030B5022289B00121CDE90321134B07AA77
:10E05C000546029204203622CDE900200FCBFFF7B3
:10E06C00ADFB08B1FBF738FE0D480E4C9DF81C209B
:10E07C000D49241AE408240444F003042046FBF759
:10E08C00A9FC9DF81D2008492046FBF7A3FCBDF810
:10E09C001C305BBA2B8009B030BD00BF583C02006D
:10E0AC00702F0200982F0200B14302000369C2686E
:10E0BC0093429CBF80681B18013B981A70472DE94E
:10E0CC00F843D0E902940546A9EB04084068904552
:10E0DC0020440F46144404D904F01FFBEC60BDE847
:10E0EC00F8834246A4EB090404F017FB6868224647
:10E0FC0007EB0801F0E72DE9F843C56806468946A9
:10E10C0017464FF000083469B3687068A54228BF01
:10E11C00E418013C621B5C1BBC4228BF3C46944289
:10E12C0028BF144649462844224604F0F6FAB36840
:10E13C002544AB4208BF00253F1BA044A144F56019
:10E14C00E1D14046BDE8F88310B5114C114AA261EB
:10E15C000223C4E90433104BE361A2644FF400734F
:10E16C000E4A0F492362E26400231022E01DA362D1
:10E17C006362E362A3656365E365226504F029FBD2
:10E18C000849204604F025FB2023A37110BD00BFD5
:10E19C0028350020683C0200B0350020A035002056
:10E1AC00713C0200753C020070B5164B182400FB44
:10E1BC0004451D4404FB00331646DC6A012C0ED0CA
:10E1CC00022C18D0E4B92846FFF770FF864204D819
:10E1DC0032462846FFF773FF3446204670BD28466A
:10E1EC00FFF764FF8642344628BF04462246284681
:10E1FC00FFF765FFF1E72846BDE87040FFF77BBFEE
:10E20C000024EAE728350020FFF79EBF6DDF70473A
:10E21C0079DF70477DDF704764DF70472DE9F04F81
:10E22C0085B000250E9CBDF83CB0B4F800A001915F
:10E23C00074690461E46A9463A884A450DDC45B12C
:10E24C002388013BA3EB0A039BB2FF2B3AD806F8B9
:10E25C000A30002005B0BDE8F08F7A6852F829002A
:10E26C00039000220DF10B0103A8FFF7D5FF002846
:10E27C00F0D19DF80B20424521D12288002D14BFEE
:10E28C000020022002EB0801014459451ADC3DB97B
:10E29C00013292B2019B2280B35422880132228037
:10E2AC0022880DF10B01324403A8FFF7B5FF0028BB
:10E2BC00D0D121889DF80B200A442280012509F138
:10E2CC000109B9E70C20C5E72DE9F341089FBDF81A
:10E2DC0024801546CDE90078022204461E46FFF73D
:10E2EC009DFF50B93346102229462046CDE90878C7
:10E2FC0002B0BDE8F041FFF791BF02B0BDE8F0817C
:10E30C002DE9F04F00231788138090F82D3085B03D
:10E31C0006460D4614465BB3082F01D80C2028E1A5
:10E32C0002A8FFF773FF002840F023812388DDF853
:10E33C0009100822EA54238801339BB21B22238044
:10E34C00EA54238801339BB2EA182380E950BDF8C4
:10E35C000D30938023889DF8082006339BB212F071
:10E36C00FE0218BF01222380EA5423880133238044
:10E37C00B378FBB123880433BB42CFD802A8FFF794
:10E38C0047FF002840F0F58023880322EA542388B5
:10E39C0001339BB219222380EA542388BDF808204C
:10E3AC0001339BB2E9182380EA54120A4A7023887D
:10E3BC0002332380F2789AB12388D91CB942ADD8A4
:10E3CC000221E954238801339BB201212380E954B3
:10E3DC0023880B449BB22380EA5423880B4423806C
:10E3EC007268AAB12388D91CB94297D8022192F934
:10E3FC000020E954238801339BB20A212380E9547D
:10E40C00238801339BB22380EA5423880133238071
:10E41C003389002B40F0A180338A5BB1CDE90047F2
:10E42C002B460722032106F11000FFF74DFF0028B1
:10E43C0040F09F80338B5BB1CDE900472B46152212
:10E44C00142106F11800FFF73FFF002840F09180DF
:10E45C00326A002A40F09080D6F82480B8F1000F80
:10E46C0030D0B8F804302188981C8A1C0244BA4277
:10E47C003FF654AFFE283FF651AF03336B5423885D
:10E48C0001339BB2FF222380EA54238801339BB2D1
:10E49C002380B8F80020EA54E918120A4A70208840
:10E4AC00023080B22080B8F804205AB1D8F8081095
:10E4BC0000296BD0284404F030F92388B8F80420E4
:10E4CC001344238096F82C30002B40F09880307841
:10E4DC0000284ED03388012B58D0228802F1020C30
:10E4EC00BC453FF61BAF012805D1737802331344AA
:10E4FC009F42FFF413AF023FBF1ABFB202A905EB54
:10E50C000C00ADF80870FFF785FE90BB3178BDF8B4
:10E51C000830022900F0B98072789A4202D39F42E7
:10E52C0080F0B180012940F0B280974293B2C0F0E4
:10E53C00AE80ADF808300821BDF80830FE2B3FF650
:10E54C00EDAE22880133AB542288013292B2228084
:10E55C00A9542288134423800BE0CDE900472B46B5
:10E56C000622022106F10800FFF7AEFE00283FF458
:10E57C0053AF05B0BDE8F08FB4F800C00CF1060342
:10E58C00BB423FF6CBAE1188052901D80720F0E736
:10E59C006FF4486E01EB0E039BB24FF27D3E734558
:10E5AC00F4D95388052BF1D96FF44860181880B250
:10E5BC007045EBD94FF6FF70814201D09942E5D8F6
:10E5CC00052305F80C30238801339BB212212380DC
:10E5DC00E954238801339BB223801188E954E8184D
:10E5EC00090A4170238802339BB223805288EA5473
:10E5FC00E918120A4A702388023323802CE7B36A85
:10E60C00002BC3D04FF000084FF00C0A4FF0160B44
:10E61C00B16A5FFA88F20AFB02F201EB0209B9F85F
:10E62C000430981CFE283FF679AE208803332B5417
:10E63C00238801339BB2238005F803B02388013370
:10E64C009BB223808A5AEA54E918120A4A7020882D
:10E65C00023080B22080B9F804205AB1D9F80810E1
:10E66C00002993D0284404F058F82388B9F80420E2
:10E67C001344238096F82C2008F101085FFA88F3E4
:10E68C009A42C5D823E7092156E79F42FBD2ADF841
:10E69C00087050E730B5C8B1F2B10024651C8D424A
:10E6AC0006DA1588A54212D805196D789D420ED14F
:10E6BC00A14211D9005D48B1013880B230B10234A9
:10E6CC00A3B210FA84F4A14206DB138030BD055DC1
:10E6DC0001352C44A4B2E1E70020F7E713B513464B
:10E6EC000022ADF806200DF106020446FFF7D2FF1A
:10E6FC0010B1BDF80600204402B010BD72DF7047A7
:10E70C0073DF704774DF704738B5012204460D463D
:10E71C00B0F8D810D0F8D400FFF7E0FF00B10570C6
:10E72C0004F13C0204F1D40104F15400BDE838407A
:10E73C00FFF7E4BF80F830107047F8B504460F4679
:10E74C00002966D0002864D091F87A301BB191F87A
:10E75C009830002B5FD1D7F8A030042B5BD0D7F8C2
:10E76C009C30042B57D04FF0000C84F802C007F1FA
:10E77C0078060FCE251D0FC50FCE0FC596E80700E6
:10E78C0085E8070084F830C0D7F8A4306363D7F865
:10E79C00A830A36304F1D4024FF6FF73C4F8EAC0A7
:10E7AC00A4F8E830C4F8E420C4F8EDC022780AB923
:10E7BC0084F85430224604F155011F25C4F8D410B6
:10E7CC00384622F8D85FFFF79BFD08BB224604F1C0
:10E7DC009301C4F8DC1007F13C0022F8E05FFFF76E
:10E7EC008FFDA8B9A369A4F848304FF480730125B4
:10E7FC00A4F8503063692064014684F83C5063648B
:10E80C0004F13C0204F15400FFF778FF00B92570C5
:10E81C00F8BD0E20FCE70720FAE7F8B507780446A8
:10E82C000D46002F00F0F6800023C0F8EA30C0F847
:10E83C00ED30C388817000F1EA060BB1012903D0D9
:10E84C00E37943B1022D06D1636BABB1012284F89D
:10E85C00F1200820984704F1EB0304F1F10113F8BF
:10E86C00012B12B99942FAD117466B1E032B4ED8C5
:10E87C00DFE803F0050B0F1284F8F130EBE7A37916
:10E88C001BB194F8243003B95FB9E3790BB1002FB5
:10E89C003FD1237A002B3ED1637A002B0CBF00258D
:10E8AC000425636BA570002B37D0033D012D34D8A4
:10E8BC00627992B394F8F2207ABB84F8F4200122A6
:10E8CC0084F8F3200720984704F13C051822002116
:10E8DC00284603F04BFFE26A531E0121022B94F8E9
:10E8EC00243084F83C1028BF0A4684F8512033B1F8
:10E8FC00A36A5A1E022A28BF0B4684F85230A3780A
:10E90C00042B1CD8DFE803F06D0D233353000025D6
:10E91C00C7E70225C5E70325C3E7002384F8F330D6
:10E92C00D2E7012384F831300023C4E91063C4F822
:10E93C00E430022384F83C308023A4F84830A378D8
:10E94C00002B52D1636B002B60D100205DE00223C1
:10E95C0084F83130032384F83C302369A4F8483020
:10E96C000023C4F8E430E36826646364E7E7636972
:10E97C006364A369A4F848306379B3B194F8F230B6
:10E98C009BB994F8F43083B1022384F850300421FD
:10E99C002046FFF7B9FE0028D1D1052384F8313089
:10E9AC0004F1D403C4F8E430C9E70323F6E7E369C0
:10E9BC006364236AA4F84830637983B194F8F23025
:10E9CC006BB994F8F43053B1022384F8503004211D
:10E9DC002046FFF799FE0028B1D10623DEE7042379
:10E9EC00DCE7002384F83130A9E7D4F8E4102A4698
:10E9FC0004F15400FFF782FE38B994F8301094F803
:10EA0C005400FFF77DFE00289CD0F8BD94F831002F
:10EA1C0098479AE70820F8E70388112B10B50C46A5
:10EA2C000AD0262B1FD0102B05D1C37B012B02D172
:10EA3C008388A1F8E83010BD0022838881F8F22089
:10EA4C00B1F8E8209A42F6D10B79002BF3D10121D1
:10EA5C002046FFF7E2FE0028EDD0A36B002BEAD096
:10EA6C00BDE810401847037A013B012BE3D88978A5
:10EA7C0005230131B1FBF3F303EB8303C91AC9B2CC
:10EA8C00E6E738B5044690F85400FFF73BFE012347
:10EA9C0084F8F230002384F8F43084F850300621E6
:10EAAC002046FFF731FE054638B9A1782046FFF71E
:10EABC00B4FE10B1A36B03B19847284638BD30B5EE
:10EACC000D46041D0FCD0FC40FCD0FC495E80700E4
