:020000022000DC
:1070000000000220757302005D7302005F730200CE
:1070100061730200637302006573020000000000E8
:107020000000000000000000000000006773020084
:1070300069730200000000006B7302006D730200B0
:107040001D7403006F730200E53C03006F730200C0
:107050006F7302006F730200DD3B03006F73020069
:107060006F730200097B0300217B03006F73020032
:107070006F7302006F7302006F7302006F73020080
:107080006F730200119E02006F7302006F730200A3
:107090006F7302006F730200852C04006F7302008F
:1070A0006F7302006F7302006F7302006F73020050
:1070B0006F7302006F730200000000000000000008
:1070C0006F7302006F7302006F7302006F73020030
:1070D0006F7302006F7302006F730200495F030059
:1070E0006F730200000000000000000000000000BC
:1070F000000000006F730200000000006F730200C8
:10710000000000000000000000000000000000007F
:10711000000000000000000000000000000000006F
:10712000000000000000000000000000000000005F
:10713000000000000000000000000000000000004F
:10714000000000000000000000000000000000003F
:10715000000000000000000000000000000000002F
:10716000000000000000000000000000000000001F
:10717000000000000000000000000000000000000F
:1071800000000000000000000000000000000000FF
:1071900000000000000000000000000000000000EF
:1071A00000000000000000000000000000000000DF
:1071B00000000000000000000000000000000000CF
:1071C00000000000000000000000000000000000BF
:1071D00000000000000000000000000000000000AF
:1071E000000000000000000000000000000000009F
:1071F000000000000000000000000000000000008F
:10720000354936480A1A02D0072291438D4634493F
:1072100034480A1A06D00722914381F309880222D2
:1072200082F3148830483149314A00F044F831483B
:107230003149324A00F03FF831483249324A00F0D1
:107240003AF832483249334A00F035F83248334987
:10725000334A00F030F833483349344A00F02BF811
:1072600033483449344A00F026F83448344900227F
:1072700000F02CF833483449002200F027F8334856
:107280003349091A082902DB002202604160314AB1
:1072900090471F481F49884205D00268043003B454
:1072A000904703BCF7E700208646EC46002000210B
:1072B000294A9047FEE7884207D0521A05D0037842
:1072C00001300B700131013AF9D17047884202D088
:1072D00002700130FAE770470000022000F8012038
:1072E0000000022000000220048904006C2A002013
:1072F000F8300020D0730200D0730200D03F0400A9
:10730000048904006C2A00206C2A0020F441040047
:10731000F4410400F4410400F4410400F441040089
:10732000F4410400F4410400F44104000289040023
:10733000908F0400F8300020F8300020F830002052
:10734000204B0020204B0020284B0020284B002001
:10735000285300209D730200A59D0300FEE7FEE771
:10736000FEE7FEE7FEE7FEE7FEE7FEE7FEE7FEE7F5
:1073700000F002B8FFF7FCBF0F484FF00701884349
:1073800085460E4880470E48016841F4700101604F
:10739000BFF34F8FBFF36F8FFFF732BF09480A4922
:1073A0000A4A884207D0521A05D0037801300B7080
:1073B0000131013AF9D1704700000220A11F0300FA
:1073C00088ED00E0E0410400582A00206C2A0020EB
:1073D00000487047184B002000B585B00190019B14
:1073E000002B0AD0074B43F001030393019B9B0141
:1073F0000293039B0298984700E000BF05B05DF838
:1074000004FB00BF0042040000B583B00190019B63
:10741000002B0AD04FF47A70FFF7DEFF019B013B8F
:107420000193019B002BF5D100E000BF03B05DF894
:1074300004FB08B512F05CFF00BF08BD00B589B0C1
:10744000039002910192019B002B33D000230793FC
:1074500003230693029A079B1344019A19460020BE
:1074600012F0F6FE0590079A059B13440793019AC4
:10747000059BD31A0193059B002B13D10F4B1B784F
:1074800083F00103DBB2002B13D10120FFF7BCFF17
:10749000069B013B0693069B002B03D1074B002262
:1074A0001A7007E0054B01221A70019B002BD1D105
:1074B00000E000BF00BF09B05DF804FBF830002019
:1074C00000B585B003900291054B00934023054A17
:1074D0000299039800F012F800BF05B05DF804FBB4
:1074E0003D740200FC30002082B0019000BF02B069
:1074F000704782B0019000BF02B0704700B5A1B0E4
:107500000590049103920293049803F0FBFB039B04
:107510001593029B16930023179300238DF8603078
:1075200000231993229B1A9300231F930FA91F9BDB
:107530000822049803F0C0FC08231F93119B1293A8
:10754000BDF84030ADF84C30BDF84230ADF84E30AB
:1075500000238DF851309DF83C3003F00303DBB27B
:10756000012B26D10F9BC3F395231C939DF83C3030
:10757000C3F3C203DBB28DF85030BDF83C30C3F327
:107580008313DBB21B931B9B9A0009A91F9B0498D2
:1075900003F092FC1B9B9B001F9A13441F9312AA9B
:1075A00009A915AB009313461B9A1C9800F0FCFE2A
:1075B0002FE09DF83C3003F00303DBB2022B28D10F
:1075C000BDF83E30C3F389139BB21E939DF83C3047
:1075D000C3F3C203DBB28DF850301E9B082B28BFCB
:1075E00008231D9307A91F9B1D9A049803F064FCB0
:1075F0001F9A1D9B13441F931E9A1D9BD31A1E9303
:1076000015AB12AA07A81D9900F070FF1E9B002B56
:10761000E3D1049803F085FB00BF21B05DF804FBC3
:1076200082B00190019BDB6801225A7100BF02B059
:107630007047000000B583B04FF0FF330193FFF7B0
:10764000F8FE0421084800F0CBFD0190019B002BBF
:1076500003DA0649412011F0ADF90348FFF7E0FFD6
:1076600000BF03B05DF804FBD041040018420400E1
:1076700000B583B001900091019B1B681B680099C5
:107680000198984700BF03B05DF804FB00B583B0D4
:107690000190019B1B685B680198984700BF03B08D
:1076A0005DF804FB00B583B00190019B1B689B68EB
:1076B0000198984700BF03B05DF804FB82B00190C9
:1076C0000B468DF80330019BDB689DF803201A718F
:1076D00000BF02B0704782B00190019BDB681B794C
:1076E000184602B0704782B00190019BDB6801220E
:1076F0005A7100BF02B0704782B00190019BDB68F5
:107700005B79184602B0704700B585B001900091D2
:107710000C4B00221A700C4803F058FA0390039B9C
:10772000002B01D0039B08E0084803F059FF084AEA
:10773000084BD31ADB0802930023184605B05DF806
:1077400004FB00BFA4320020F04004006C4204009F
:10775000F0400400F83F0400024A034BD31ADB0850
:1077600018467047F0400400F83F040000B587B0A9
:1077700001900B468DF803309DF80330002B1FD08D
:10778000FFF7EAFF04900023059313E0059B9B009D
:107790000E4A13440393039B1B881A46019B1B68E4
:1077A0009A4204D1019B059A1A60002309E0059BC7
:1077B00001330593059A049B9A42E7D3052300E021
:1077C0000023184607B05DF804FB00BF582A0020CC
:1077D00000B585B001900B468DF803309DF803206D
:1077E00001AB11461846FFF7C1FF0346002B07D136
:1077F000019BDB00054A13440393039B1B6800E0D5
:107800000023184605B05DF804FB00BFF83F0400F4
:1078100084B001900B468DF80330019BDB00174AC2
:10782000134402939DF80330013B032B1CD801A2A3
:1078300052F823F0457802004D7802005578020096
:107840005F78020002238DF80F3011E004238DF8D9
:107850000F300DE0029B1B798DF80F3008E0029B82
:107860005B798DF80F3003E000238DF80F3000BFF7
:107870009DF80F30184604B0704700BFF83F040071
:1078800084B00190009100238DF80F30019B1B788C
:1078900003F00403DBB2002B24D0019B1B78C3F35D
:1078A0000103DBB2012B02D0022B0CD017E0009BAE
:1078B0001B68019A1288C2F38312D2B213449A1C35
:1078C000009B1A600BE0009B1B68019A5288C2F370
:1078D000891292B213449A1C009B1A6000BF0123C4
:1078E0008DF80F309DF80F30184604B07047000037
:1078F00000B58BB00023ADF826303E4802F071FC95
:107900003D4802F06EFC3D4B9B6804933C4B1B686A
:107910000693049A069B134002339B00374A134494
:107920000433089304AB19460898FFF7A9FF0346F0
:10793000002B09D0049A069B134002339B002F4A68
:10794000134404330893EDE700BF0023079311E0CD
:10795000049B5A1C0492069A1340079A920001A9AC
:107960000A44264902339B000B445B681360079B63
:1079700001330793079B012BEAD99DF80430C3F329
:107980000103DBB2012B10D0022B1CD1BDF80A3051
:10799000ADF82630BDF80630C3F389139BB203332C
:1079A0009A08049B1344049313E0BDF80A30ADF821
:1079B0002630BDF80430C3F38313DBB21A46049BB0
:1079C0001344049305E00F494FF4C27010F0F2FF26
:1079D00000BF094802F011FC0590059B002B02D066
:1079E000049B064A9360BDF8263018460BB05DF83C
:1079F00004FB00BFBC360020B8360020A4320020B3
:107A0000742A00207C42040000B585B0002107489C
:107A100002F00EFB0390039B0293029B83F310037F
:107A20000193019B184605B05DF804FBC0360020A9
:107A300000B589B00390029101920093039B1B0C47
:107A40000793FFF7E1FF0690FFF786FE0246079BCC
:107A5000934204D3214940F2A91010F0ABFF069BDA
:107A60001904009B5A1C0A9B1340079A0A431C499D
:107A700002339B000B445A60009A0A9B1340023366
:107A80009B00174A134404330593039B03F0070339
:107A9000D9B2059A137861F3C5031370019B03F003
:107AA0000F03D9B2059A138861F389131380029BDF
:107AB000C3F31501059A136861F39F231360059AB8
:107AC0001378012161F301031370059A13786FF3A2
:107AD0008203137000BF09B05DF804FB7C42040010
:107AE000A432002000B58DB00390029113468DF8AA
:107AF0000730039B02330A9301238DF827300023BC
:107B00008DF81B300DF11B03184601F039FD404B79
:107B10005A68029B1A603F4B1A683D4B99683C4B70
:107B20005B68CB1A134401330B9314E001213A48EC
:107B300002F00DFBFFF7DCFE07900799364802F0D4
:107B400006FB344B1A68324B9968314B5B68CB1A91
:107B5000134401330B930A9A0B9B9A42E6D89DF883
:107B60002730002B48D0002305939DF80730002BC9
:107B700017D09DF81430012262F301038DF8143000
:107B80009DF8143043F004038DF81430039B03F088
:107B90000F03DAB2BDF8143062F38913ADF8143074
:107BA00016E09DF81430022262F301038DF81430C0
:107BB0009DF8143043F004038DF81430039BC3F395
:107BC00009039AB2BDF8163062F38F13ADF8163080
:107BD0000F4B5A680F4B1B68134002339B000C4A33
:107BE000134404330893059A089B1A60084B5A689B
:107BF0000A9B1344064A53609DF81B30184601F057
:107C0000D5FC9DF8273018460DB05DF804FB00BF89
:107C1000A4320020742A0020C036002000B58BB0AA
:107C200005900491039202931F4B1B68079306ABC8
:107C3000012219460298FFF755FF0346002B24D076
:107C4000069B023309930023089311E0089B9B00D5
:107C5000039A1A44099B591C099107990B40126811
:107C6000124902339B000B445A60089B013308936E
:107C7000089A029B9A42E9D3069A079B00931346FF
:107C8000029A04990598FFF7D3FE084B1B78002B46
:107C900005D000BF00F09AF80346002BFAD100BFD0
:107CA0000BB05DF804FB00BF742A0020A432002052
:107CB00000B583B001900091002300220099019843
:107CC000FFF7ACFF00BF03B05DF804FB00B587B061
:107CD000039002910192019B059305AA0123029949
:107CE0000398FFF79BFF00BF07B05DF804FB00B5EA
:107CF00087B00390029101920093019B0493009B33
:107D0000059304AA022302990398FFF787FF00BF97
:107D100007B05DF804FB00B589B0039002910192B1
:107D20000093019B0593009B06930A9B079305AA6A
:107D3000032302990398FFF771FF00BF09B05DF8B4
:107D400004FB00B58BB00390029101920093019B5C
:107D50000593009B06930C9B07930D9B08930E9B2A
:107D6000099305AA052302990398FFF757FF00BF5F
:107D70000BB05DF804FB00B58BB00390029101924B
:107D80000093019B0493009B05930C9B06930D9B12
:107D900007930E9B08930F9B099304AA062302994D
:107DA0000398FFF73BFF00BF0BB05DF804FB00003A
:107DB000054B9A68044B5B689A420CBF0123002371
:107DC000DBB21846704700BFA432002000B599B05E
:107DD000FFF7EEFF0346002B01D00023C0E19B4BD1
:107DE0000022C3F81824BFF34F8F00BF974B9B6846
:107DF0000493974B1B681093049A109B1340023313
:107E00009B00924A134404331193002317930023D9
:107E1000169300230F9304AB19461198FFF730FD1A
:107E20000346002B19D0894BD3F81834002B14D1FA
:107E3000864B5A68049B9A4205D8844B5B68834AF8
:107E4000936000238CE1049A109B134002339B0043
:107E50007E4A134404331193DDE70023159311E0A8
:107E6000049B5A1C0492109A1340159A920001A97F
:107E70000A44764902339B000B445B681360159BF0
:107E800001331593159B012BEAD99DF8043003F0BB
:107E90000303DBB2022B40F09C80BDF80630C3F335
:107EA00089139BB20D93BDF80630C3F389139BB2BF
:107EB000502B28BF50239BB20C930C9BC3F3090398
:107EC0009AB2BDF8063062F38F13ADF806300C9B02
:107ED00008330B939DF80430C3F3C203DBB20F9356
:107EE0000B995C4802F07DFE1790179B002B00F069
:107EF000D380179802F006FF01A9169B0822179855
:107F000002F0BCFF169B08331693049BDA43109BC8
:107F1000134001339B000A930C9A0A9B9A4242D960
:107F20000A9B002B08D0049A109B134002339B003D
:107F3000464A1344043300E0474B08930A9B002B46
:107F400002D00A9BDBB201E00C9BDBB28DF81F3044
:107F50000A9B002B01D0404B00E0002306930A9BB4
:107F6000002B06D00C9BDAB20A9BDBB2D31ADBB231
:107F700000E000238DF817309DF81F20169B08990C
:107F8000179802F07BFF9DF81F30169A1344169342
:107F9000069B002B16D09DF81720169B0699179864
:107FA00002F06CFF0EE0049A109B134002339B001A
:107FB000264A134404330993169B0C9A099917987F
:107FC00002F05CFF0D9B03339A08049B1344049357
:107FD00062E09DF8043003F00303DBB2012B5BD1B8
:107FE000BDF80430C3F38313DBB2062B28BF06238E
:107FF000DAB2BDF8043062F38913ADF80430BDF88D
:108000000430C3F38313DBB202330E939DF80430C4
:10801000C3F3C203DBB20F930E9B9B0019460D48BE
:1080200002F0DFFD1790179B002B35D0179802F058
:1080300069FE01A9169B0822179802F01FFF169BE4
:1080400008331693002315931DE000BFA4320020CF
:10805000742A0020F0400400B0320020049B5A1C17
:108060000492109A134002339B003F4A1344191D97
:10807000169B0422179802F001FF169B04331693F7
:10808000159B01331593BDF80430C3F38313DBB2A2
:108090001A46159B9342E1D3179B002B40D0324BDD
:1080A000D3F810341493304BD3F81834002B1BD072
:1080B000179802F036FE4DE000238DF84F301498EB
:1080C000FFF71AFB0346002B02D001238DF84F3037
:1080D0009DF84F30002B03D017991498FFF7C8FA7A
:1080E000149BDB681B681493149B002BE4D1179836
:1080F00002F017FE00238DF803300DF1030318463C
:1081000001F03EFA184BD3F81834002B02D1049B2F
:10811000154A93609DF80330184601F047FA19E0BC
:10812000114BD3F81034129306E01298FFF7BAFA05
:10813000129BDB681B681293129B002BF5D10B4A34
:108140000B4BD31ADB081B0443F002030949184602
:10815000FFF7AEFDFFF72CFE034683F00103DBB211
:10816000184619B05DF804FBA4320020204004003A
:10817000F83F0400C842040000B585B00023039313
:1081800023E0164BD3F81034029301238DF8073007
:108190000FE00298FFF79FFA03461A46039B9342AB
:1081A00003D100238DF8073006E0029BDB681B68D3
:1081B0000293029B002BECD19DF80730002B01D0DD
:1081C000039B07E0039B01330393039B092BD8DD3B
:1081D0004FF0FF33184605B05DF804FBA4320020D1
:1081E00000B585B001900B468DF80330FFF7C4FF52
:1081F0000390039BB3F1FF3F01D1039B22E0039B5C
:10820000DBB219460198FFF759FA104BD3F8103436
:10821000002B08D10D4A019BC2F81034019BDB688A
:1082200000221A600DE0094BD3F81034DA68019B84
:10823000DB6812681A60054BD3F81034DB68019ACA
:108240001A60039B184605B05DF804FBA4320020B9
:1082500000B583B00C4BD3F8103401930A4B0122C4
:108260001A7009E00198FFF73EFA0198FFF70EFA3D
:10827000019BDB681B680193019B002BF2D100BFBF
:1082800000BF03B05DF804FBA432002082B001906F
:10829000009100BF02B0704710B584B00390029106
:1082A000039BDB88002B0AD0039BDB881A461F4BFD
:1082B000009313461E4A1F49029802F0DBF8039B05
:1082C0001B7A052B2ED0039B5B7A002B12D0039BCD
:1082D0009B881A46039B1B7A19461046FFF798FAAB
:1082E00003461A46144B53F822301A461349029893
:1082F00002F0C0F8039B1B6819460298FFF7C6FFFF
:10830000039B1B7A1A460E4B53F82240039B9B8813
:1083100000211846FFF75CFA0346224609490298F5
:1083200002F0A8F800BF04B010BD00BFFC4204007A
:108330000C430400444304008C2A00205C430400E6
:10834000782A00206043040000B585B003900291B4
:1083500013468DF80730039B1B7A052B0FD0039B28
:108360005B7A002B06D00D4B1B681A460C4902980D
:1083700002F080F80B49029802F07CF807E09DF8C3
:108380000730002B03D00749029802F073F80298D7
:1083900002F04EF800BF05B05DF804FB8C2A002007
:1083A0005C4304006C43040030B58BB00790069129
:1083B000059204930E9B1B7B8DF827300E9B0022A9
:1083C0001A730E990498FFF767FF059B062B7FD859
:1083D00001A252F823F000BFF5830200FF830200E0
:1083E0000F84020023840200418402006984020099
:1083F0009984020007990E9802F03CF869E0069B08
:108400001B681A4607990E9802F034F861E0069B43
:108410001A68069B04331B6807990E9802F02AF825
:1084200057E0069B1A68069B04331968069B0833BD
:108430001B6800930B4607990E9802F01BF848E062
:10844000069B1968069B04331868069B08331B6853
:10845000069A0C3212680192009303460A46079965
:108460000E9802F007F834E0069B1868069B043368
:108470001C68069B08331B68069A0C321268069922
:108480001031096802910192009323460246079930
:108490000E9801F0EFFF1CE0069B1C68069B04335E
:1084A0001D68069B08331B68069A0C3212680699F1
:1084B0001031096806981430006803900291019207
:1084C00000932B46224607990E9801F0D3FF00E057
:1084D00000BF00220E990498FFF736FF0E9B9DF80F
:1084E00027201A7300BF0BB030BD00BF00B587B0A6
:1084F0000390029101920093029B082B60D8009B8D
:108500001B7B8DF81330009B00221A730099019891
:10851000FFF7C2FE0023059314E0059A029B9A42DE
:1085200009D2039A059B13441B781A4626490098E2
:1085300001F0A0FF03E02549009801F09BFF059B97
:1085400001330593059B072BE7D92149009801F0DA
:1085500091FF0023059326E0059A029B9A421BD2C5
:10856000039A059B13441B788DF812309DF8123046
:108570007E2B0AD89DF8123018461BF019FB0346D3
:10858000002B02D09DF8123000E02E231A4611492C
:10859000009801F06FFF03E00F49009801F06AFFB7
:1085A000059B01330593059B072BD5D90122009923
:1085B0000198FFF7C9FE009B9DF813201A7300E095
:1085C00000BF07B05DF804FB70430400784304006B
:1085D0007C430400804304008443040084B00346C9
:1085E0008DF807309DF807305B08DBB21A460D4B5B
:1085F0009B5C8DF80F309DF8073003F00103002BD2
:1086000004D09DF80F301B09DBB204E09DF80F3059
:1086100003F00F03DBB28DF80E309DF80E301846D4
:1086200004B07047F836002084B003460A468DF83F
:10863000073013468DF806309DF8073003F001032C
:10864000002B01D00F2300E0F0238DF80F309DF8B0
:10865000073003F00103002B04D09DF806301B0106
:10866000DBB201E09DF806308DF80E309DF8073042
:108670005B08DBB21A46114B9A5C9DF807305B0829
:10868000DBB219469DF80F301340DAB20B4B5A5447
:108690009DF807305B08DBB21A46084B9A5C9DF8E0
:1086A00007305B08DBB219469DF80E301343DAB28F
:1086B000024B5A5400BF04B0704700BFF836002088
:1086C00000B585B003468DF807300023039310E012
:1086D0000F4B1A68039BDB0013440293029B1B7829
:1086E0009DF807209A4201D1029B0DE0039B0133C4
:1086F0000393084B1B781A46039B9342E8DB064919
:10870000882010F057F90023184605B05DF804FBE7
:10871000C4360020C83600209443040000B585B05C
:1087200003460A468DF8073013468DF806309DF84B
:1087300007301846FFF7C4FF0390039B002B0BD0B4
:10874000039B5B68002B07D0039B5B689DF80610BA
:108750009DF807201046984700BF05B05DF804FB60
:108760002DE9F04F87B003460A468DF80F301346C7
:108770008DF80E309DF80F301846FFF72FFF034697
:10878000042B00F2C28001A252F823F0A18702005C
:108790001588020031880200618802007788020093
:1087A0009DF80E30002B00F0AD809DF80F300121B8
:1087B0001846FFF739FF00238DF817300DF1170326
:1087C000184600F0DDFE9DF80F104FF001024FF04B
:1087D0000003A1F12004C1F1200003FA01F702FA1D
:1087E00004F4274322FA00F0074302FA01F6494B4A
:1087F000D3E9002346EA020100913B430193454B34
:10880000DDE90012C3E900129DF81730184600F0A8
:10881000CDFE77E09DF80E30002B01D0022200E063
:1088200000229DF80F3011461846FFF7FDFE6CE060
:108830009DF80E30002B0CD09DF80F300321184608
:10884000FFF7F2FE9DF80F3001211846FFF766FF93
:108850005BE09DF80F3001211846FFF7E5FE54E07C
:108860009DF80E30002B4FD19DF80F300421184693
:10887000FFF7DAFE48E09DF80E30002B06D09DF899
:108880000F3003211846FFF7CFFE3EE09DF80F3072
:1088900000211846FFF7C8FE9DF80F30002118464A
:1088A000FFF73CFF00238DF816300DF11603184634
:1088B00000F066FE9DF80F104FF001024FF000032C
:1088C000A1F12006C1F1200003FA01F502FA06F633
:1088D000354322FA00F0054302FA01F46FEA040876
:1088E0006FEA05090B4BD3E9002308EA020A09EAFB
:1088F000030B084BC3E900AB9DF81630184600F097
:1089000055FE02E000BF00E000BF00BF07B0BDE8B9
:10891000F08F00BFF036002000B583B00648074B4B
:108920001B685B080022194600F01AFD019000BF89
:1089300003B05DF804FB00BFD0360020CC36002029
:1089400000B587B001900023059328E01C4B1A68FE
:10895000059BDB0013440493049B1B7818460BF023
:108960008DF803468DF80F30049B5B78012B0CBF0C
:1089700001230023DBB21A469DF80F309A420CBF48
:10898000012300238DF80E30049B1B789DF80E20E8
:1089900011461846FFF7E4FE059B01330593094B8A
:1089A0001B781A46059B9342D0DB074BD3E9002383
:1089B000134301D0FFF7B0FF00BF07B05DF804FB21
:1089C000C4360020C8360020F036002000B585B03F
:1089D00001900B468DF80330019BDBB21846FFF780
:1089E0006FFE0390039B1B7818460BF047F8034675
:1089F0008DF80B30039B5B78012B0CBF0123002308
:108A0000DBB21A469DF80B309A420CBF01230023BB
:108A10008DF80A309DF80A30002B06D0054BD3E9BB
:108A20000023134301D1FFF777FF00BF05B05DF8C6
:108A300004FB00BFF036002000B58BB003900B465E
:108A400001928DF80B30019B092B01D8072367E0B9
:108A50000AF008FF034683F00103DBB2002B09D0C4
:108A60000AF09CFE0990099B0893089B002B01D0FB
:108A7000089B55E02C4A039B13602C4A9DF80B3051
:108A800013702B4A019B13602022002129481BF000
:108A900015FA29494FF000024FF00003C1E9002305
:108AA00031E09DF80B30DB00039A13440793032356
:108AB0008DF8143000238DF815309DF816306FF3C3
:108AC00000038DF816309DF816306FF341038DF8D2
:108AD00016309DF816306FF382038DF81630079B21
:108AE0009B788DF81530079B1B78184605AB134A09
:108AF00019460AF0C3FE0990099B0693069B002BBA
:108B000001D0069B0CE09DF80B305A1E8DF80B200F
:108B1000002BC6D10A4A00210A4800F0EDFB0346AB
:108B200018460BB05DF804FBC4360020C8360020A0
:108B3000CC360020F8360020F0360020CD89020027
:108B400041890200D843040000B583B0114B1B6873
:108B5000002B04D1104940F235100FF02BFF0023F9
:108B600001930CE00B4B1A68019BDB0013441B784C
:108B7000012118460AF0FEFE019B01330193074BC9
:108B80001B781A46019B9342ECD30023184603B08E
:108B90005DF804FBC436002094430400C83600206E
:108BA00000B583B002900091019244F20100714639
:108BB0006A4600F003F803B000BD00BF30B58BB0CB
:108BC00007900691059272B600BFFFF741FB00BF08
:108BD000FFF7FCF80346002BFAD1079B44F2020290
:108BE00093422FD0079B44F20202934269D8079B1D
:108BF00044F20102934237D0079B44F201029342B0
:108C00005FD8079B012B05D0079B41F201029342DD
:108C10000CD056E0394A3A4BD31ADB081B0443F018
:108C2000010338491846FFF743F857E0334A344BFD
:108C3000D31ADB081B0443F0010333491846FFF73E
:108C400037F84BE0059B09932C4A2D4BD31ADB08D0
:108C50001B0443F00100099B5B681A46099B1B68D3
:108C60002A49FFF744F839E0059B0893234A244B2F
:108C7000D31ADB081B0443F00104089B9D68089B82
:108C80009B68184602F0CCFD03461846089B5B68BB
:108C90001946089B1B68069A0292019300910346AD
:108CA0002A461B492046FFF74CF8144A144BD31AA6
:108CB000DB081B0443F0010316491846FEF7F8FFD2
:108CC0000CE00E4A0E4BD31ADB081B0443F00103E1
:108CD000069A11491846FEF7F9FF00BF0F4B1B68B3
:108CE00003F00103002B00D000BE059A06990798F7
:108CF00007F0C6F800BF0BB030BD00BF2040040035
:108D0000F83F0400DC430400FC430400204404005A
:108D10003C4404006444040078440400F0ED00E0A6
:108D20002DE9F04383B0144801F057F803460022C0
:108D30001C461546114BD3E9002314EB020845EB02
:108D40000309CDE900890E4BD3E90023DDE90001D9
:108D5000904271EB030307D2DDE9002312F1807624
:108D600043F10007CDE90067DDE90023104619460D
:108D700003B0BDE8F08300BFB02A002020370020F8
:108D80002837002088B001900091019B0793009B39
:108D90000693079BD3E90223CDE90423069BD3E97D
:108DA0000223CDE90223DDE90423DDE9020190423B
:108DB00071EB03032CBF01230023DBB2184608B07C
:108DC00070470000F0B585B00190019B5B69002BF6
:108DD00003D12B49A2200FF0EDFD00238DF80F30B9
:108DE000284B1B78002B45D0019B002B42D0019BC8
:108DF0001B7FDBB2002B3DD0FFF792FF019BD3E935
:108E00000223904271EB03032CD3019B1B69002BBF
:108E100002D1019B00221A77019B5B69019A92693A
:108E200010469847019B1B69002B23D0019B1B7F99
:108E3000DBB2002B1ED0019BD3E902230199096903
:108E400000200C460546161943EB0507019BC3E9B4
:108E50000267019B19460C4802F03CFC01238DF887
:108E60000F3007E0019B1946074802F033FC01234D
:108E70008DF80F309DF80F30184605B0F0BD00BFDB
:108E80009C4404001C370020E4440400F0B589B081
:108E9000019000910D230793009B00221A70019B03
:108EA000D3E90245FFF73CFF02460B46A61A65EBE5
:108EB0000307CDE90467DDE90423012A73F1000308
:108EC0001BDB049BB3F5350F05D300F0B7FA024660
:108ED000154B134403E0019BD3E90223134603938C
:108EE0004FF49603039A0021104800F069FE0790A2
:108EF000079B002B05D1012313E000210B4800F054
:108F000037FF079B0D2B07D10198FFF75BFF034647
:108F10001A46009B1A7003E00549F5200FF04AFD40
:108F20000023184609B0F0BDFFFFB400B02A0020AE
:108F30009C44040000B583B0044802F005FC019095
:108F4000019B184603B05DF804FB00BFE444040035
:108F500000B583B0044802F019FC0190019B18464B
:108F600003B05DF804FB00BFE444040000B583B027
:108F7000FFF7E0FF0190019B002B02D0019B002234
:108F80001A77019B002BF3D100BF00BF03B05DF83F
:108F900004FB0000054BD3E9002312F1807043F17C
:108FA0000001024BC3E9000100BF704720370020D9
:108FB00010B582B00190124B1B68002B1DD0019898
:108FC00000F00BFF04460021019800F0F7FE034675
:108FD0001946204600F026FA0346B3F5960F04D34F
:108FE00008494FF495700FF0E5FC054B1B681846D7
:108FF000FFF7E8FE024B00221A6000BF02B010BD6E
:10900000183700209C44040000B583B00190FFF79E
:1090100087FE02460B460349C1E9002300BF03B0A7
:109020005DF804FB2837002000B585B00190FFF7FC
:109030008FFF039000238DF80B30039B002B48D04B
:109040002B4B1B68002B03D101238DF80B3019E04B
:10905000039BD3E90201264B1B68D3E9022390420C
:1090600071EB03030ED201238DF80B30204B1B68EC
:109070001B7FDBB2002B05D01D4B1B6819461D481A
:1090800002F028FB9DF80B30002B2AD0FFF752FF8F
:1090900003900DF10A0319460398FFF7F7FE034604
:1090A000002B12D0124B1B68002B02D1019800F04C
:1090B00093FC0F4A039B13609DF80A3083F0010371
:1090C000DBB2002BB3D000BF0EE0094B00221A60C8
:1090D000ADE7074B1B68002B05D1019800F092FC0F
:1090E00001E000BF00E000BF00BF05B05DF804FB79
:1090F00018370020E444040000B587B001902C4AE2
:1091000003AB1946104600F066FF059048E0059B4A
:109110001B78022B2ED0022B32DC002B02D0012B2D
:1091200014D02DE0059B5B681B7FDBB283F001034D
:10913000DBB2002B26D0059B5B6801221A77059BCA
:109140005B6819461B4802F0C5FA1BE0059B5A688C
:10915000194B1B689A4203D1174B00221A6012E088
:10916000059B5B681946134802F024FB03468DF803
:10917000133008E0FFF7FAFE104B01221A7002E0EC
:1091800000BF00E000BF0A4A03AB1946104600F0DA
:109190003BFF074A03AB1946104600F01CFF059041
:1091A000059B002BB3D100BF00BF07B05DF804FBE7
:1091B00088370020E4440400183700201C370020C2
:1091C00000B583B00190019800F0C5FD0346002B67
:1091D00001D0FFF7DFFE0021019800F0DAFD034621
:1091E000002B02D00198FFF7E3FE0121019800F067
:1091F000D0FD0346002B02D00198FFF705FF019830
:10920000FFF77AFF0198FFF70FFF00BF03B05DF88B
:1092100004FB000008B5024800F0ECFD00BF08BDEB
:10922000B02A002000B585B0034600918DF80730C4
:10923000114A02AB1946104600F0A0FE0390039BB2
:10924000002B13D0039B9DF807201A70039B009AF4
:109250005A60094A02AB1946104600F0A8FE0346C0
:10926000002B01D0FFF7D6FF002300E004231846AF
:1092700005B05DF804FB00BF8837002000B583B05F
:10928000164B1B680093164808235822154900F016
:1092900042FE0190019B002B01D0019B19E06B461F
:1092A000114A1946114800F019FB0190019B002B4F
:1092B00001D0019B0DE001210C4800F03BFD012392
:1092C0000B4A0121094800F0B3FB0A4B01221A7036
:1092D000019B184603B05DF804FB00BFE0440400A6
:1092E0008837002030370020C1910200B02A0020CA
:1092F000FFFF7F001C37002000B587B003900B46AE
:1093000001928DF80B30039B002B04D1134940F2DE
:109310002E200FF04FFB019B002B04D10F4940F290
:109320002F200FF047FB019B002B01D1072310E0FA
:10933000039B1B680593059B019A5A619DF80B30AE
:10934000012B0CBF01230023DBB21A46059B1A61D7
:109350000023184607B05DF804FB00BF9C440400DE
:10936000F0B587B0039002910192039B002B04D1CA
:10937000164940F23E200FF01DFB039B0593059B11
:109380001B7FDBB2002B01D000231CE0059B019A60
:109390009A61FFF7C5FC02460B46029900200C4675
:1093A0000546161943EB0507059BC3E90267059BB4
:1093B0001B69002B02D0059B029A1A6105990020B7
:1093C000FFF730FF0346184607B0F0BD9C44040089
:1093D00000B585B00190019B002B04D109494FF4E1
:1093E00015700FF0E7FA019B0393039B00221A7795
:1093F00003990120FFF716FF0346184605B05DF8F4
:1094000004FB00BF9C44040008B5054B00221A7001
:1094100000210220FFF706FF0346184608BD00BFE3
:109420001C37002082B001900091019A009BD31A52
:1094300023F07F43184602B07047000008B5034888
:1094400000F0CBFC0346184608BD00BFB02A002040
:1094500082B003468DF807309DF90730002B09DBF9
:109460000B4A9DF90730134493F80033DBB25B09D4
:10947000DBB20AE0074A9DF8073003F00F03043B14
:1094800013441B7EDBB25B09DBB2184602B07047A7
:1094900000E100E000ED00E082B0EFF31083009304
:1094A000009B019372B600BF019B184602B0704743
:1094B00062B600BF00BF704700B585B00190FFF7EE
:1094C000EBFF0390164B9B68002B1BD1144B012222
:1094D0009A60144BD3F88020134B1340104A13604A
:1094E000104B114AC3F880200E4BD3F884300C4A3D
:1094F00053600C4B4FF0FF32C3F88420019B0022D5
:109500001A7002E0019B01221A70039B002B01D10B
:10951000FFF7CEFF0023184605B05DF804FB00BF3F
:109520009C37002000E100E0FC06FFBD00B585B0DF
:1095300003468DF80730104B9B68002B16D09DF822
:109540000730002B12D1FFF7A7FF03900B4A0A4BFD
:109550001B681360094A084B5B685360064B002286
:109560009A60039B002B01D1FFF7A2FF002318464E
:1095700005B05DF804FB00BF9C37002000E100E06F
:1095800000B583B0019000F02BF80346012B03D007
:10959000054943200FF00EFA0198FFF78DFF00BF39
:1095A00003B05DF804FB00BFF044040000B583B0D5
:1095B00003468DF8073000F013F80346012B03D063
:1095C000064951200FF0F6F99DF807301846FFF7CD
:1095D000ADFF00BF03B05DF804FB00BFF044040022
:1095E00084B0EFF305830193019BC3F30803039356
:1095F000039B002B0DD1EFF314830093009B029388
:10960000029B03F00103002B0CBF01230023DBB2FC
:1096100000E00123184604B0704700B585B0EFF3B1
:1096200005830193019BC3F308030393039B002B62
:109630000AD0039B103B0293029B5BB21846FFF7D4
:1096400007FF0346DBB200E00F23184605B05DF8C4
:1096500004FB000082B003468DF807309DF9073007
:10966000002B0CDB9DF8073003F01F0205499DF924
:1096700007305B09012000FA02F241F8232000BF05
:1096800002B0704700E100E082B003468DF8073079
:109690009DF90730002B0DDB9DF8073003F01F020A
:1096A00006499DF907305B09012000FA02F24033B8
:1096B00041F8232000BF02B0704700BF00E100E086
:1096C00082B0034600918DF807309DF90730002BDA
:1096D0000ADB009BDAB20C499DF907305201D2B285
:1096E0000B4483F800230BE0009BDAB207499DF896
:1096F000073003F00F03043B5201D2B20B441A7639
:1097000000BF02B0704700BF00E100E000ED00E0E4
:1097100000B583B003460A468DF8073013468DF82E
:1097200006309DF80630012B03D99DF80630032B37
:109730000BD99DF80630042B03D99DF80630072B72
:1097400003D908496B200FF035F99DF806209DF9E3
:10975000073011461846FFF7B3FF00BF03B05DF8AE
:1097600004FB00BF3C45040000B583B003468DF800
:1097700007309DF907301846FFF76CFF00BF03B0B4
:109780005DF804FB00B585B00190019B002B0AD069
:10979000074B43F001030393019B9B010293039B3F
:1097A0000298984700E000BF05B05DF804FB00BFD9
:1097B0003046040084B0039002910192039B029A08
:1097C00002F5A872019943F8221000BF04B0704757
:1097D00082B001900091019B009A02F5A87253F8A3
:1097E0002230184602B0704782B001900091019B70
:1097F000009AC3F8042300BF02B0704782B0019002
:109800000091019B009AC3F8082300BF02B0704783
:1098100082B001900B46ADF80230BDF80230019ADB
:1098200013441B68184602B0704784B001900B4681
:10983000ADF80230BDF80230019A134400221A60DC
:10984000BDF80230019A13441B680393039B00BFC9
:1098500004B0704782B00190019BD3F804351846DC
:1098600002B0704700B583B001900091009BB3F542
:10987000805F04D306494FF4BE700FF09BF8019B44
:10988000009AC3F8082500BF03B05DF804FB00BFD1
:109890006C45040082B001900B468DF803309DF8B2
:1098A0000320019B13441A460123136000BF02B03A
:1098B000704782B001900091019B009AC3F8442345
:1098C00000BF02B0704782B001900091019B009AE6
:1098D000C3F8482300BF02B07047000000B587B04E
:1098E000039002910192039B002B03D13349552031
:1098F0000FF060F8029B002B03D1304956200FF087
:1099000059F8019B002B03D12C4957200FF052F836
:10991000039B5B7919462A4A019B42F82130039B3D
:109920005B79284ADB0013441B79002B0ED00823F7
:109930000593254A254BD31ADB081B0443F0020389
:1099400023491846FEF7B4F9059B32E0039B1A68D9
:10995000029B1B8819461046FFF784FF039B93F96F
:109960000420029B9B7819461046FFF7D1FE039B0B
:1099700093F904301846FFF7F7FE039B5B79114A11
:10998000DB00134401221A71039B5B7919460D4ACF
:10999000039B42F83130002305930B4A0B4BD31A3B
:1099A000DB081B0443F003030A491846FEF780F95D
:1099B000059B184607B05DF804FB00BF9C450400FA
:1099C000A8370020AC37002030400400F83F0400E6
:1099D000E44504000846040000B583B00190019BF3
:1099E000002B03D1064987200EF0E4FF019B1B6882
:1099F00000211846FFF74EFF00BF03B05DF804FBDF
:109A00009C45040000B583B00190019B002B03D15D
:109A100006498D200EF0CEFF019B1B6804211846DD
:109A2000FFF738FF00BF03B05DF804FB9C4504005E
:109A300000B587B00390029101928DF80330039B2B
:109A4000002B03D1214996200EF0B4FF4FF4803251
:109A5000029B02FA03F30593029B50339BB29B00D7
:109A6000ADF81230019B23F07F430193039B1B68E9
:109A700005991846FFF7C2FE039B1B680599184617
:109A8000FFF721FF039B1B68BDF812201146184603
:109A9000FFF7CBFE039B1B68019A02991846FFF75C
:109AA00089FE039B1B6805991846FFF702FF9DF886
:109AB0000330002B05D0039B1B6805991846FFF760
:109AC00093FE00BF07B05DF804FB00BF9C45040097
:109AD00000B585B00390029113468DF80730039BC3
:109AE000002B03D10B49A9200EF064FF039B1B68D8
:109AF00002991846FFF7DDFE9DF80730002B05D0D0
:109B0000039B1B6802991846FFF76EFE00BF05B065
:109B10005DF804FB9C45040000B583B00190009102
:109B2000019B002B03D10A49B3200EF043FF019B98
:109B30001B6800991846FFF7C6FE019B1B68009939
:109B40001846FFF75BFE00BF03B05DF804FB00BFE3
:109B50009C45040000B583B001900B46ADF802307F
:109B6000019B002B03D10F49BA200EF023FF019B6C
:109B70001B68BDF8022011461846FFF749FE034650
:109B8000002B09D0019B1B68BDF802201146184626
:109B9000FFF74BFE012300E00023184603B05DF8F9
:109BA00004FB00BF9C45040082B001900091019A23
:109BB000009BD31A23F07F43184602B07047000081
:109BC00000B58BB00390029101920093039B002B90
:109BD00003D15749CD200EF0EDFE4FF48032029BA9
:109BE00002FA03F30993029B50339BB29B00ADF83A
:109BF0002230019B23F07F43019309990398FFF7DB
:109C00008BFF039B1B681846FFF724FE0790039BFE
:109C10001B6802991846FFF7DBFD0690039B1B6843
:109C2000079A02991846FFF7C5FD039B1B68BDF80C
:109C3000222011461846FFF7F8FD07990698FFF70E
:109C4000B3FF0346012B0AD11020FFF79BFD039BB6
:109C50001B68BDF8222011461846FFF7E6FD039B5E
:109C60001B681846FFF7F6FD079007990198FFF764
:109C70009BFF0590039B1B6809991846FFF719FE87
:109C8000059B012B15D1039B1868019B01331A46D4
:109C90000299FFF78FFD1020FFF774FD039B1B68EF
:109CA0001846FFF7D7FD0246079B934235D00D2398
:109CB00039E0039B1B68019A02991846FFF77AFD69
:109CC000039B1B681846FFF7C5FD0790019B013BEE
:109CD00007991846FFF768FF0590009BC3F1FF1333
:109CE00003F57F43059A9A4201D90D231BE0059B9A
:109CF000002B12D1039B1868019B01331A4602996D
:109D0000FFF758FD039B1B681846FFF7A3FD0246AB
:109D1000079B934201D00D2305E001220999039886
:109D2000FFF7D6FE002318460BB05DF804FB00BF1A
:109D30009C45040000B583B001900B468DF80330BC
:109D40009DF803301A4602210198FFF7C1FE00BFBB
:109D500003B05DF804FB00B583B001904FF482714D
:109D60000198FFF7F7FE0346184603B05DF804FBC1
:109D700000B583B0019000914FF48032009B02FA4D
:109D800003F319460198FFF7C7FE00BF03B05DF863
:109D900004FB00B585B001900091009B50339BB24D
:109DA0009B00ADF80E30BDF80E3019460198FFF754
:109DB000D1FE0346184605B05DF804FB00B583B03C
:109DC00001900091019B1B6800991846FFF700FD68
:109DD0000346184603B05DF804FB00B583B001905C
:109DE000019B1B681846FFF735FD0346184603B074
:109DF0005DF804FB00B583B00190019B93F904303A
:109E00001846FFF741FC00BF03B05DF804FB0000FB
:109E100008B5044B1B68044A12681046984700BFF7
:109E200008BD00BFA8370020AC37002086B00190E5
:109E30000091019B53E8011F8AB2D8890244988996
:109E4000824228BF121A1889824202BFBFF32F8FA5
:109E5000002307E0C2EA010243E801200028E9D11B
:109E60004FF001038DF80F30059002910492029A91
:109E7000009B1A609DF80F30DBB2184606B07047A1
:109E800084B00190019951E8013FC3EA034341E8DE
:109E90000132002AF7D10392029300BF04B0704749
:109EA00086B001900091019B53E8021F1FFAA1F2B6
:109EB000D888824202BFBFF32F8F00230DE0D889DC
:109EC00002449889824228BF121AC1EA024243E83A
:109ED00002200028E8D14FF001038DF80F300590E3
:109EE00002910492029A009B1A609DF80F30DBB237
:109EF000184606B0704784B00190019951E8023FBE
:109F0000C3EA234341E80232002AF7D103920293C5
:109F100000BF04B0704784B00390029111461A4606
:109F20000B46ADF806301346ADF80430029B002B0B
:109F300001D10E231FE0BDF80630BDF80420B3FBAD
:109F4000F2F101FB02F29B1A9BB2002B01D0092314
:109F500011E0039B029A1A60039B00225A60039B44
:109F600000229A60039BBDF806209A81039BBDF8EE
:109F70000420DA810023184604B0704700B585B08C
:109F800001900091009B19460198FFF74FFF03468F
:109F9000002B07D0019B1B68009A1288134403937F
:109FA000039B00E00023184605B05DF804FB00B5F4
:109FB00083B001900091009B1A88009B5B889A42B5
:109FC00004D10198FFF75CFF012300E0002318464D
:109FD00003B05DF804FB00B585B001900091009BD3
:109FE00019460198FFF75CFF0346002B07D0019B41
:109FF0001B68009A528813440393039B00E00023DC
:10A00000184605B05DF804FB00B583B001900091DF
:10A01000009B1A88009B5B889A4204D10198FFF745
:10A020006AFF012300E00023184603B05DF804FB3B
:10A0300010B487B001900091019B009A53E8004F43
:10A04000104643E8000191F0000FF7D10594049009
:10A050000391059B184607B05DF8044B704710B498
:10A0600087B001900091019B009A53E8004F44EAA9
:10A07000020043E8000191F0000FF6D1059404902E
:10A080000391059B184607B05DF8044B704710B468
:10A0900087B001900091019B009A53E8004F44EA79
:10A0A000020043E8000191F0000FF6D105940490FE
:10A0B0000391049B184607B05DF8044B704710B439
:10A0C00087B001900091019B009A53E8004F04EA89
:10A0D000020043E8000191F0000FF6D105940490CE
:10A0E0000391059B184607B05DF8044B704710B408
:10A0F00087B001900091019B009A53E8004F04EA59
:10A10000020043E8000191F0000FF6D1059404909D
:10A110000391049B184607B05DF8044B704710B4D8
:10A1200087B001900091019B009A53E8004F04EB27
:10A13000020043E8000191F0000FF6D1059404906D
:10A140000391059B184607B05DF8044B704710B4A7
:10A1500087B001900091019B009A53E8004F04EBF7
:10A16000020043E8000191F0000FF6D1059404903D
:10A170000391049B184607B05DF8044B704710B478
:10A1800087B001900091019B009A53E8004FA4EB27
:10A19000020043E8000191F0000FF6D1059404900D
:10A1A0000391049B184607B05DF8044B704710B448
:10A1B00087B001900091019B009A53E8004F9442B0
:10A1C0002CBFA01A204643E8000191F0000FF4D103
:10A1D000059404900391049B184607B05DF8044B66
:10A1E000704700B583B0019001210198FFF74FFF40
:10A1F0000346184603B05DF804FB00B583B0019038
:10A2000000210198FFF75BFF0346184603B05DF895
:10A2100004FB000000B583B001900B468DF80330BD
:10A22000019B002B03D10849E8200EF0C3FB019BE2
:10A23000DA689DF803300199098A01FB03F313449E
:10A24000184603B05DF804FB3846040000B583B03F
:10A2500001900091019B002B03D10849F5200EF0DD
:10A26000A9FB009B019AD2689B1A019A128AB3FB40
:10A27000F2F3DBB2184603B05DF804FB3846040085
:10A2800000B585B00190019B002B01D10E234CE05D
:10A29000019B1B68002B03D12649FF200EF08AFB8F
:10A2A000019B5B68002B04D122494FF480700EF0B3
:10A2B00081FB019B9B68002B04D11E4940F20110D9
:10A2C0000EF078FB019BDB68002B04D119494FF499
:10A2D00081700EF06FFB019B1B8A002B04D1154986
:10A2E00040F203100EF066FB019B9A68019B5B68CD
:10A2F000D31A8DF80F30019B1B68019A52681A60BF
:10A3000007E0019B1A681368591C11609DF80F2023
:10A310001A709DF80F305A1E8DF80F20002BF0D1C7
:10A32000019B1B6800221A710023184605B05DF8D6
:10A3300004FB00BF3846040000B585B00190019BC6
:10A34000002B04D11F494FF492700EF033FB002311
:10A35000039300238DF80A300DF10A031846FFF726
:10A360000FF9019B1B681A68019B5B689A421FD911
:10A37000019B1B681A68013A1A601B681B78194612
:10A380000198FFF747FF0390019B9A68019B1B68A8
:10A390001B68D31A8DF80B30019B1B681B799DF845
:10A3A0000B209A4204D9019B1B689DF80B201A715F
:10A3B0009DF80A301846FFF7F9F8039B184605B0D8
:10A3C0005DF804FB3846040010B584B0019000919C
:10A3D000019B002B04D1154940F247100EF0EAFA18
:10A3E000009B002B04D111494FF4A4700EF0E2FA47
:10A3F000009B039300238DF80B300DF10B031846DF
:10A40000FFF7BEF8019B1B681C68621C1A60039969
:10A410000198FFF71BFF034623709DF80B30184689
:10A42000FFF7C4F800BF04B010BD00BF38460400F9
:10A4300000B583B00190019B002B03D10C49312062
:10A440000EF0B8FA019B9B68002B0CD0019B5B6956
:10A45000019A1069019A1168019A92689847019BC4
:10A4600000229A6000E000BF03B05DF804FB00BF6B
:10A470007C4604000EB400B584B00190019B002B13
:10A4800003D1184942200EF095FA019B5B69002B1D
:10A4900003D1144943200EF08DFA019B1B68002B59
:10A4A00003D1104944200EF085FA019B5B68002B14
:10A4B00003D10C4945200EF07DFA059B002B0AD0F4
:10A4C0000023039306AB039303AB1A460599019847
:10A4D00000F0B8F900E000BF04B05DF804EB03B091
:10A4E000704700BF7C46040000B583B001900B4666
:10A4F0008DF803309DF803300A2B03D10D2101980C
:10A50000FFF7F2FF019B1A68019B9B68581C019999
:10A51000886013449DF803201A70019B9A68019B80
:10A520005B689A4202D30198FFF782FF00BF03B035
:10A530005DF804FB00B587B003900291019200938F
:10A5400000230593009B03F00103002B24D00BE0B4
:10A55000029B01330293059B013305939DF8133051
:10A5600019460398FFF7C0FF029B1B788DF8133044
:10A570009DF81330002BEBD106E0019B013B0193CA
:10A5800020210398FFF7B0FF019A059B9A422ED92C
:10A59000019B002BF1D12AE0029B002B0BD00298EB
:10A5A00019F0E6FC059006E0019B013B0193202198
:10A5B0000398FFF799FF019A059B9A420FD9019BD7
:10A5C000002BF1D10BE0029B01330293059B013379
:10A5D00005939DF8133019460398FFF785FF029BFA
:10A5E0001B788DF813309DF81330002BEBD100BF92
:10A5F00007B05DF804FB000000B589B0039002913C
:10A6000001920093029B07930123069307E0079AA8
:10A61000019BB2FBF3F30793069B01330693079A62
:10A62000019B9A42F3D2009A069B9A4201D9009B61
:10A6300006930B9B03F00103002B22D10A9B002BF6
:10A640001FD00B9B03F00203002B06D0009B002BB6
:10A6500003D130238DF8173002E020238DF8173016
:10A6600008E00A9B013B0A939DF8173019460398AE
:10A67000FFF73AFF0A9B002B03D0069A0A9B9A42E7
:10A68000EFD301230793009B012B03D9009B013BD0
:10A69000009309E0029A079BB2FBF3F30493049A38
:10A6A000019B9A4200D205E0079B019A02FB03F34B
:10A6B0000793E8E7029A079BB2FBF3F30493049B2A
:10A6C000079A02FB03F3029AD31A0293154A049BDA
:10A6D00013441B7819460398FFF706FF079A019B5E
:10A6E000B2FBF3F30793079B002BE3D10B9B03F023
:10A6F0000103002B11D00A9B002B0ED006E00A9B11
:10A70000013B0A9320210398FFF7EEFE0A9B002BE2
:10A7100003D0069A0A9B9A42F1D300BF09B05DF8B4
:10A7200004FB00BFFC46040000B589B0059004910D
:10A7300003920293049B002BB8BF5B420693012354
:10A74000079307E0039B069A92FBF3F30693079B9C
:10A7500001330793039B069A9A42F3DA029A079B06
:10A760009A4201D9029B07930A9B002B0AD0049BB3
:10A77000002B04DB0B9B03F00403002B02D00A9B8D
:10A78000013B0A930B9B03F00203002B02D0029BB8
:10A79000002B16D00B9B03F00103002B11D10A9B59
:10A7A000002B0ED006E00A9B013B0A93202105985E
:10A7B000FFF79AFE0A9B002B03D0079A0A9B9A4246
:10A7C000F1D3049B002B07DA049B5B4204932D21F9
:10A7D0000598FFF789FE08E00B9B03F00403002BAC
:10A7E00003D02B210598FFF77FFE0B9B03F002039C
:10A7F000002B19D00B9B03F00103002B14D1029BFB
:10A80000002B11D10A9B002B0ED006E00A9B013BC6
:10A810000A9330210598FFF767FE0A9B002B03D0AF
:10A82000079A0A9B9A42F1D304990B9B01930A9BC6
:10A830000093029B039A0598FFF7DEFE00BF09B064
:10A840005DF804FB00B58FB0059004910392059B61
:10A85000002B04D1AD4940F252200EF0ABF8059B1D
:10A860005B69002B04D1A9494FF415700EF0A2F8D2
:10A87000059B1B68002B04D1A44940F255200EF023
:10A8800099F8059B5B68002B04D1A04940F2562043
:10A890000EF090F8049B002B00F09381049B1B7832
:10A8A0008DF83730049B013304939DF83730002B2B
:10A8B00000F07E819DF83730252B40F06D8100231C
:10A8C0000A9301230C93049B1B788DF837309DF875
:10A8D0003730302B0DD0302B1BDC2B2B11D02D2BF8
:10A8E00017D10A9B43F001030A93049B013304939D
:10A8F00012E00A9B43F002030A93049B0133049382
:10A900000AE00A9B43F004030A93049B0133049377
:10A9100002E000230C9300BF0C9B002BD3D100233B
:10A9200009939DF837302A2B0CD1039B1B68191D06
:10A93000039A11601B68099A13440993049B01331D
:10A9400004931AE0049B1B788DF837309DF837305C
:10A950002F2B12D99DF83730392B0ED8049B013399
:10A960000493099A13469B0013445B001A469DF812
:10A9700037301344303B0993D3E700230B93049BF8
:10A980001B788DF837309DF837302E2B1DD1049B66
:10A9900001330493049B1B788DF837309DF83730D2
:10A9A0002F2B12D99DF83730392B0ED8049B013349
:10A9B00004930B9A13469B0013445B001A469DF8C0
:10A9C00037301344303B0B93E4E7049B1B788DF83E
:10A9D00037309DF837306C2B03D09DF83730682B1B
:10A9E00007D1049B01330493049B1B788DF8373007
:10A9F000EFE79DF83730252B00F0C480252BC0F2FF
:10AA0000C680782B00F3C380582BC0F2C080583B1F
:10AA1000202B00F2BC8001A252F823F011AB0200FF
:10AA20008FAB02008FAB02008FAB02008FAB020036
:10AA30008FAB02008FAB02008FAB02008FAB020026
:10AA40008FAB02008FAB0200A1AA0200C3AA0200D2
:10AA50008FAB02008FAB02008FAB02008FAB020006
:10AA6000C3AA02008FAB02008FAB02008FAB0200C3
:10AA70008FAB02008FAB02008FAB020051AB020024
:10AA80008FAB02008FAB020035AB02008FAB020030
:10AA9000E7AA02008FAB02008FAB020011AB0200ED
:10AAA000039B1B68191D039A11601B680C930C9B78
:10AAB0008DF81F309DF81F3019460598FFF714FDDB
:10AAC00066E0039B1B68191D039A11601B680C93B9
:10AAD0000A9B0193099B00930B9B0A220C990598F2
:10AAE000FFF722FE54E0039B1B68191D039A1160B7
:10AAF0001B680C930C990A9B0193099B00930B9B79
:10AB00000A220598FFF778FD42E000BFB84604002E
:10AB1000039B1B68191D039A11601B680C930C9909
:10AB20000A9B0193099B00930B9B10220598FFF74A
:10AB300063FD2DE0039B1B68191D039A11601B68C0
:10AB400008930A9B099A08990598FFF7F3FC1FE000
:10AB5000039B1B68191D039A11601B680C9330211D
:10AB60000598FFF7C1FC78210598FFF7BDFC0C990B
:10AB70000023019308230093082310220598FFF770
:10AB80003BFD05E025210598FFF7AEFC00E000BF86
:10AB9000049B0133049305E09DF83730194605986E
:10ABA000FFF7A2FC049B1B78002B7FF477AE00E03C
:10ABB00000BF059B1B7B002B04D00598FFF738FCDA
:10ABC00000E000BF0FB05DF804FB00BF00B583B02C
:10ABD00001900198FFF754FB0346184603B05DF857
:10ABE00004FB00B58BB001900091019B1B8A043BD4
:10ABF0000793009A079B1344DA1C079BB2FBF3F3FD
:10AC00008DF81B300198FFF797FB0590059B002BF3
:10AC100001D1002338E0059B00221A71059B012217
:10AC20005A71079B9AB2059BDA80059B09939DF8A0
:10AC30001B30013B0493099B019A1A60002308937F
:10AC40001DE00198FFF778FB0390039B002B0ED0CB
:10AC5000059B5B790133DAB2059B5A71099B039A14
:10AC60001A60039B019A1A60039B099304E00598FC
:10AC700000F00EF8002307E0089B01330893089AC0
:10AC8000049B9A42DDD3059B18460BB05DF804FB8C
:10AC900000B58BB00190019B0793079B5B798DF802
:10ACA0001B30019B08939DF81B30013B059300234B
:10ACB000099305E0089B1B680893099B01330993DE
:10ACC000099A059B9A42F5D3089B1B680493019B44
:10ACD0000893002309930BE0089B1B6803930899D2
:10ACE0000498FFF771FB039B0893099B01330993B9
:10ACF0009DF81B30099A9A42EED300BF00BF0BB0FB
:10AD00005DF804FB00B585B00190019B0393039BA4
:10AD1000043301211846FFF71AFA00BF05B05DF8A9
:10AD200004FB00B587B00190019B0593059B04339C
:10AD300001211846FFF723FA0346039303AB04935C
:10AD4000049B1B78002B02D10198FFF7A1FF00BFE5
:10AD500007B05DF804FB000000B591B003900291CC
:10AD600001920093039B002B03D14349B6200DF0C1
:10AD700021FE039B0993039B0F93099BDB881A46D3
:10AD8000099B5B7902FB03F3043B0893009A089B41
:10AD90009A4203D33849C4200DF00CFE099BDB888E
:10ADA0000793009B1A1D079BB2FBF3F30E93009BC6
:10ADB0000433079AB3FBF2F2079901FB02F29B1AE4
:10ADC0000D93019B1A68009B1344089A9A4203D280
:10ADD000089A009BD31A01E0019B1B680C93019B0E
:10ADE0000C9A1A6005E00F9B1B680F930E9B013BAA
:10ADF0000E930E9B002BF6D100230B93079A0D9B0D
:10AE0000D31A0A930A9A0C9B934228BF13460A93BB
:10AE10002AE0029A0B9B134406930F9A0D9B13444E
:10AE2000043305939DF84830002B05D00A9A059904
:10AE3000069819F01AF804E00A9A0699059819F08C
:10AE400014F800230D930F9B1B680F930C9A0A9B19
:10AE5000D31A0C930B9A0A9B13440B93079A0C9BDF
:10AE6000934228BF13460A930C9B002BD1D100BFFD
:10AE700000BF11B05DF804FB0C47040000B589B0B9
:10AE80000590049103920293039B079307AA002362
:10AE90000093029B04990598FFF75EFF079B039AB6
:10AEA0009A4203D00349F6200DF084FD00BF09B09B
:10AEB0005DF804FB0C47040000B589B005900491CF
:10AEC00003920293039B079307AA01230093029B1B
:10AED00004990598FFF740FF079B039A9A4204D014
:10AEE00004494FF480700DF065FD00BF09B05DF8B6
:10AEF00004FB00BF0C47040082B003468DF8073006
:10AF00009DF90730002B0DDB9DF8073003F01F0281
:10AF100006499DF907305B09012000FA02F260330F
:10AF200041F8232000BF02B0704700BF00E100E0FD
:10AF3000BFF34F8F00BF064BDB6803F4E0620449A8
:10AF4000044B1343CB60BFF34F8F00BF00BFFDE73F
:10AF500000ED00E00400FA0500B583B00190019B0C
:10AF6000002B03D10449C4200DF024FD019B5B6834
:10AF7000184603B05DF804FB5047040000B583B0E9
:10AF80000190019B002B03D1064972200DF012FDA8
:10AF9000019B00221A60BFF35F8F00BF00BF03B0A8
:10AFA0005DF804FBA447040000B585B00190019B47
:10AFB000002B03D10A4985200DF0FCFC01210198EA
:10AFC000FFF736F80390BFF35F8F00BF039B002BA2
:10AFD0000CBF01230023DBB2184605B05DF804FB6B
:10AFE000A447040000B583B00190019B002B03D15E
:10AFF0000A4992200DF0DEFC019B1B68012B03D057
:10B00000064993200DF0D6FCBFF35F8F00BF019B74
:10B0100000221A6000BF03B05DF804FBA4470400DF
:10B0200033DF704700BF184641DF704700BF184646
:10B030004FF080430122C3F80025BFF34F8F00BFBC
:10B0400020BFFDE700B585B000238DF807300DF176
:10B0500007031846FEF794FAF1EE103A0393039BA8
:10B0600023F09F030293029BE1EE103A00BFBFF36F
:10B070005F8F00BF2620FFF73FFF9DF8073018467F
:10B08000FEF794FA039B03F00703002B03D0044957
:10B090007D200DF08FFC00BF05B05DF804FB00BF04
:10B0A000E847040008B5064B00221A700548FFF770
:10B0B00065FF0549054800F0B1FA0023184608BDB0
:10B0C000BC370020B837002030480400C0370020CB
:10B0D00000B583B0FFF7B6FF17F0A6FD0346002BBF
:10B0E0000ED0FFF7A1FF0190019B002B0BD0019B1D
:10B0F000022B08D006494FF4B0700DF05BFC02E063
:10B1000020BF40BF20BF00BF03B05DF804FB00BFFD
:10B11000E847040000B583B00FE02248FFF71CFFAA
:10B120000190019B1B68204A1278104698470346FD
:10B13000002B32D01B4800F09BFA1A48FFF70CFF97
:10B140000346002BE9D1FDF783F800BFFCF73EFE74
:10B150000346002BFAD1144B1B78032B03D0124B60
:10B160001B78022B01D1FFF7E3FE17F05DFD0346CC
:10B17000002B0FD0FFF754FF0090009B002B07D04F
:10B18000009B022B04D009494FF4D1700DF012FC42
:10B1900020BFFDE7FFF74CFF00E000BF03B05DF804
:10B1A00004FB00BFC0370020B4370020E84704008C
:10B1B00000B583B003468DF807301748FFF7F4FE5B
:10B1C000034683F00103DBB2002B21D19DF8073049
:10B1D000042B0ED0114B1B78002B03D00E48FFF729
:10B1E00001FF16E00E4A9DF8073013700B4B012249
:10B1F0001A700A4B1B78002B04D10A4940F2D51073
:10B200000DF0D8FBFFF786FF0348FFF7EBFE00E0E9
:10B2100000BF03B05DF804FBB8370020BC37002046
:10B22000B4370020E847040082B00190019B9B687E
:10B23000024A12781344184602B070477E48040050
:10B2400000B583B001900091019B002B03D1084908
:10B2500083200DF0AFFB019B9B68009A9A4202D2BB
:10B26000009B013300E00023184603B05DF804FBA7
:10B270003C48040000B585B00190019B1B681B6829
:10B280000393019B1B685B680293029A039B9A429B
:10B2900003D3029A039BD31A07E00198FFF7C4FF78
:10B2A0000246039BD21A029B1344184605B05DF870
:10B2B00004FB000000B585B00190019B002B03D179
:10B2C0000D4998200DF076FB019B1B681B680393CA
:10B2D000019B1B685B68029302990198FFF7B0FF1E
:10B2E0000246039B93420CBF01230023DBB21846A6
:10B2F00005B05DF804FB00BF3C48040010B588B001
:10B300000190009100230793019B002B03D1564924
:10B31000A3200DF04FFB009B002B03D15249A4202A
:10B320000DF048FB00238DF80F300DF10F03184688
:10B33000FEF726F90198FFF7BDFF03468DF81B3095
:10B340009DF81B3083F00103DBB2002B03D1019B7E
:10B350001B7C002B7BD1019B1B685B680593019BC9
:10B360001B685A68019B1C6811460198FFF768FF2B
:10B37000034663609DF81B30002B0AD0019B1B68BD
:10B380001A68019B1C6811460198FFF759FF034694
:10B390002360019BDB68013B072B38D801A252F8E0
:10B3A00023F000BFC5B30200D5B302000FB4020002
:10B3B000E7B302000FB402000FB402000FB40200A2
:10B3C000F9B30200019B5A68059B1344009A127856
:10B3D0001A702DE0019B5A68059B5B001344009A8C
:10B3E00012881A8024E0019B5A68059B9B00134435
:10B3F000009A12681A601BE0019B5A68059BDB00EB
:10B40000D118009BD3E90023C1E9002310E0019B80
:10B410005B681946019BDB68059A02FB03F30B444A
:10B420001846019BDB681A46009918F01EFD00BF04
:10B430000198FFF71FFF0490019B1B689B68049A0B
:10B440009A4207D9019B1B68049A9A6002E0042380
:10B45000079300E000BF9DF80F301846FEF7A6F8EE
:10B46000079B184608B010BD3C48040010B588B0D2
:10B470000390029113468DF8073000230793039B36
:10B48000002B03D14549E7200DF094FA029B002BD5
:10B4900003D14249E8200DF08DFA00238DF81730D2
:10B4A0000DF117031846FEF76BF8039800F078F8D3
:10B4B000034683F00103DBB2002B63D0039B1B68C0
:10B4C0001B6806939DF8073083F00103DBB2002B65
:10B4D0000AD0039B1B681A68039B1C6811460398DB
:10B4E000FFF7AEFE03462360039BDB68013B072B9F
:10B4F00037D801A252F823F019B5020029B502008D
:10B5000063B502003BB5020063B5020063B50200FB
:10B5100063B502004DB50200039B5A68069B1344B5
:10B520001A78029B1A702FE0039B5A68069B5B00F7
:10B5300013441A88029B1A8026E0039B5A68069BD4
:10B540009B0013441A68029B1A601DE0039B5A6813
:10B55000069BDB001344D3E900230299C1E90023D1
:10B5600012E0039B5B681946039BDB68069A02FBAB
:10B5700003F30B441946039BDB681A46029818F044
:10B5800074FC01E0052307939DF817301846FEF779
:10B590000DF8079B184608B010BD00BF3C480400DA
:10B5A00000B585B00190019B002B04D10B4940F2FE
:10B5B0002B200DF0FFF9019B1B681B680393019B77
:10B5C0001B685B680293039A029B9A420CBF01239B
:10B5D0000023DBB2184605B05DF804FB3C480400CC
:10B5E00082B00190019B9B6800229A60019B9B683E
:10B5F00000221A61019B9B6800225A61019B9B6893
:10B600000022DA60019B9B6800225A60019B9B68C4
:10B6100000221A6000BF02B07047000000B583B07E
:10B6200001900091019B002B03D1104950200DF097
:10B63000C1F9009B002B03D10C4951200DF0BAF940
:10B64000019B009A1A60019B1B681A68019B5A6053
:10B65000019B5A68019B1B685B689A4202D1019B5F
:10B6600000225A6000BF03B05DF804FB804804006C
:10B6700000B583B00190019B002B03D114496320D6
:10B680000DF098F9019B1B68002B03D11049642031
:10B690000DF090F9019B5B68002B14D0019B5B6857
:10B6A0001A46019B1B689B6813441A46019B5A600B
:10B6B000019B5A68019B1B685B689A4204D1019BFD
:10B6C00000225A6000E000BF03B05DF804FB00BF39
:10B6D0008048040000B585B001900091019B002BCB
:10B6E00003D118493A200DF065F9009B002B03D1D6
:10B6F00014493B200DF05EF9019B5B6803930FE05A
:10B70000019B9B68039A126800991046984703466C
:10B7100083F00103DBB2002B07D1039B1B6803936B
:10B72000039B1B68002BEBD100E000BF039B1A6852
:10B73000009B1A60039B009A1A6000BF05B05DF879
:10B7400004FB00BFEC48040000B585B00190019BEC
:10B75000002B03D10C4951200DF02CF9019B5B68A3
:10B760001B680393019B5B681B68002B06D0019B41
:10B770005B681A68019B5B6812681A60039B184635
:10B7800005B05DF804FB00BFEC48040000B583B0D1
:10B790000190019B002B03D105495D200DF00AF9B2
:10B7A000019B5B681B68184603B05DF804FB00BF93
:10B7B000EC48040000B585B001900091019B002B7E
:10B7C00003D1164969200DF0F5F8009B002B03D139
:10B7D00012496A200DF0EEF800238DF80B30019B22
:10B7E0005B6803930FE0039B1B68009A9A4207D1A2
:10B7F000009B1A68039B1A6001238DF80B3006E04A
:10B80000039B1B680393039B1B68002BEBD19DF8E4
:10B810000B30184605B05DF804FB00BFEC4804008F
:10B8200000B585B00190019800F00EF80390039BDD
:10B83000002B01D0039B00E0024B184605B05DF8D9
:10B8400004FB00BF3449040086B00190164B0593F9
:10B85000164B04931FE0049A059BD31ADB10DA0FF2
:10B8600013445B10DB00059A13440393039B1B688E
:10B870000293029A019B9A4202D9039B04930AE025
:10B88000029A019B9A4203D2039B0833059302E07C
:10B89000039B5B6804E0059A049B9A42DBD3002378
:10B8A000184606B0704700BF344D04005C4E0400DB
:10B8B000024BD3F88034DBB2184670470070024068
:10B8C000024BD3F88434DBB2184670470070024054
:10B8D00008B50AF03FFC0023184608BD00B585B046
:10B8E00003468DF807300B468DF8063013468DF869
:10B8F00005309DF8073003F01F029DF806305B010C
:10B9000003F060031A439DF80530DB01DBB21343FB
:10B910000393039BFF2B04D905494FF4AC700DF042
:10B9200049F8039BDBB2184605B05DF804FB00BF85
:10B930005C4E040082B00190019B1B7A184602B055
:10B940007047000000B585B001900B468DF80330BC
:10B95000019B002B04D10F494FF488700DF02AF899
:10B960000198FFF7E7FF03461A469DF8033093421C
:10B9700001D3002309E0019B093303939DF80320C1
:10B9800013465B001344039A1344184605B05DF850
:10B9900004FB00BFA44E040082B00190019B1B7801
:10B9A000184602B0704782B00190019B5B78184640
:10B9B00002B0704700B585B001900B468DF803309A
:10B9C000019B002B04D10D4940F243100CF0F2FF13
:10B9D000019B5B789DF803209A4201D3002309E084
:10B9E000019B9B781A46019B134403939DF80330F7
:10B9F000039A1344184605B05DF804FBA44E0400F6
:10BA000082B00190019B1B78184602B0704782B04B
:10BA10000190019B1B68184602B0704700B583B0C7
:10BA20000190019B002B04D1064940F243200CF009
:10BA3000C1FF0198FFF7EBFF03461B68184603B0F0
:10BA40005DF804FBF04E040000B583B00190019B4B
:10BA5000002B04D1064940F25F200CF0ABFF0198A7
:10BA6000FFF7D5FF03465B68184603B05DF804FB9B
:10BA7000F04E040000B583B00190019B002B04D16F
:10BA8000064940F27B200CF095FF0198FFF7BFFFBD
:10BA900003465B68184603B05DF804FBF04E0400F3
:10BAA000014B1846704700BF745004004FF08043AC
:10BAB000D3F838341846704708B5FFF7F7FF034648
:10BAC00003F00103002B14BF01230023DBB218464F
:10BAD00008BD08B5FFF7EAFF034603F00203002B99
:10BAE00014BF01230023DBB2184608BD00B583B0A4
:10BAF00001900091019B002B04D1114940F20F10DD
:10BB00000CF058FF019B5B68002B04D10C494FF4EB
:10BB100088700CF04FFF019B5B681B68002B04D101
:10BB2000074940F211100CF045FF019B5B681B6850
:10BB30000099019898470346184603B05DF804FB46
:10BB40003C4F040000B583B001900091019B002B95
:10BB500004D1114940F219100CF02CFF019B1B6815
:10BB6000002B04D10C494FF48D700CF023FF019B86
:10BB70001B689B68002B04D1074940F21B100CF096
:10BB800019FF019B1B689B68009A528810469847D2
:10BB900000BF03B05DF804FB3C4F040000B583B068
:10BBA00001900B468DF80330074B1B68002B06D025
:10BBB000054B1B689DF8032011460198984700BF6C
:10BBC00003B05DF804FB00BF8839002000B583B0E6
:10BBD00003468DF80730074B5B68002B05D0054BFB
:10BBE0005B689DF807201046984700BF03B05DF8DA
:10BBF00004FB00BF8839002010B58EB0039001937C
:10BC00000B468DF80B3013468DF80A30002309934C
:10BC100000230D9302E00D9B01330D93039B5B68A2
:10BC20005C6809A8012300220399A0470346002B62
:10BC3000F1D100238DF8233000230C9300238DF8DD
:10BC40002F30002306934FE0039B5B685C680DF187
:10BC5000230206A801230399A047039B5B685C6845
:10BC60000DF1170206A801230399A0479DF817308C
:10BC70009DF80B209A4227D19DF82F209DF80A307D
:10BC80009A421CD19DF823301A46109B1A60019BE2
:10BC90005A1C01929DF823201A70019B5A1C019294
:10BCA0009DF80B201A70039B5B685C689DF823303D
:10BCB000023B06A8019A0399A047002319E09DF8CA
:10BCC0002F3001338DF82F30039B5B685C689DF843
:10BCD0002330023B06A800220399A0479DF8233099
:10BCE0001A460C9B13440C930C9A0D9B9A42ABD3AF
:10BCF000052318460EB010BD00B585B003468DF87B
:10BD000007309DF90730002B14DA9DF8073003F057
:10BD10000F038DF80E309DF80E30082B04D9114911
:10BD20004FF4CC700CF046FE9DF80E30DB000E4A4E
:10BD3000134413E09DF8073003F00F038DF80F3024
:10BD40009DF80F30082B04D906494FF4CF700CF042
:10BD500031FE9DF80F30DB00044A1344184605B04D
:10BD60005DF804FB3C4F0400E83800203039002027
:10BD700000B583B003468DF807309DF807301846AC
:10BD8000FFF7BAFF03461B68184603B05DF804FBD3
:10BD900000B585B0034600918DF807309DF8073057
:10BDA0001846FFF7A9FF0390039B009A1A60009BB7
:10BDB000002B10D19DF80730002B03D09DF80730E1
:10BDC000802B04D108494FF4E1700CF0F3FD039B84
:10BDD00000225A6004E0009B5B681A68039B5A606B
:10BDE00000BF05B05DF804FB3C4F040000B583B014
:10BDF0000190064B5B68054A126801991046984706
:10BE00000346184603B05DF804FB00BF303900203C
:10BE100000B58BB00190019B0993099B1B78052B02
:10BE20001AD1FFF74DFD03468DF82330FFF740FD93
:10BE300003468DF81B30002200210020FFF74EFD45
:10BE400003461A469DF81B30934205D19DF82330D6
:10BE5000052B01D13A4B0993099B1B78002B2ED15E
:10BE600001F096F8079007E009990798FFF76AFE36
:10BE70000798FFF7FFFD0790079B002BF4D10023E5
:10BE80008DF80B300DF10B031846FDF779FB2D4BA8
:10BE90001B68002B03D1099B5A882B4B1A80012168
:10BEA0002848FEF754F99DF80B301846FDF77EFB45
:10BEB00001210998FFF772FE224B1B683CE0234AE0
:10BEC00003AB19461046FEF759F80590059B002B69
:10BED00032D0059A099B1B68136000238DF80A3045
:10BEE0000DF10A031846FDF74BFB174B1A88154B4B
:10BEF0001B689BB2D31A9BB201339AB2059BDA80BE
:10BF000000211048FEF794F803469AB2059B9A80E8
:10BF10009DF80A301846FDF749FB0C4A03AB194659
:10BF20001046FEF744F803468DF813309DF81330A1
:10BF300019460998FFF732FE0BB05DF804FB00BF0D
:10BF4000884F0400E0380020E4380020D03800207A
:10BF500000B583B003468DF807309DF80730022BFB
:10BF60000ED0022B10DC002B02D0012B04D00BE0F2
:10BF70000A48FFF74DFF0DE00948FFF749FF09E0C8
:10BF80000848FFF745FF05E0074940F262200CF042
:10BF900011FD00BF00BF03B05DF804FB7C4F04003F
:10BFA000804F0400844F04003C4F040000B583B070
:10BFB00001900198FFF72CFF00BF03B05DF804FB70
:10BFC00000B583B003468DF807309DF80730002B8D
:10BFD00004D0064940F27B200CF0ECFC0448FFF74B
:10BFE00017FF00BF03B05DF804FB00BF3C4F040027
:10BFF0008C4F040082B003468DF807309DF807305F
:10C00000082B27D801A252F823F000BF31C002004C
:10C0100035C0020039C002003DC0020041C002002C
:10C0200045C0020049C002004DC0020051C00200DC
:10C03000002310E000230EE001230CE000230AE0BF
:10C04000002308E0012306E0012304E0012302E0CD
:10C05000012300E00023184602B0704782B0034677
:10C060008DF807309DF80730082B27D801A252F829
:10C0700023F000BF99C002009DC00200A1C00200D1
:10C08000A5C00200A9C00200ADC00200B1C00200FC
:10C09000B5C00200B9C00200002310E000230EE08A
:10C0A00001230CE000230AE0002308E0002306E05F
:10C0B000002304E0002302E0012300E000231846EF
:10C0C00002B07047014B1B78184670478439002036
:10C0D00010B582B003468DF807309DF8073018463A
:10C0E000FFF788FF03461C461C4B1B781846FFF7DA
:10C0F00081FF03469C420DD09DF807301846FFF79C
:10C1000079FF0346002B03D0154806F0F3FB01E04E
:10C1100006F04EFC9DF807301846FFF79FFF0346D8
:10C120001C460E4B1B781846FFF798FF03469C42AF
:10C130000CD09DF807301846FFF790FF0346002B00
:10C1400002D00AF0B3F901E00AF0A6F9034A9DF81B
:10C150000730137000BF02B010BD00BF843900204B
:10C16000B82A002000B587B001900B468DF8033047
:10C1700013468DF802300198FFF7DCFB03461A46A0
:10C180009DF80330934204D91B4940F2F9200CF08A
:10C1900011FC9DF80230002B01D0072328E09DF808
:10C1A000033019460198FFF7CDFB04900498FFF780
:10C1B000FAFB03468DF80F3000238DF8173010E09E
:10C1C0009DF8173019460498FFF7F4FB0290029B84
:10C1D0001B78184600F0A4FE9DF8173001338DF847
:10C1E00017309DF817209DF80F309A42E8D30023AE
:10C1F000184607B05DF804FB3C4F040000B587B05B
:10C2000001900B468DF803300198FFF793FB03462E
:10C210001A469DF80330934204D919494FF44670E9
:10C220000CF0C8FB9DF8033019460198FFF78AFB14
:10C2300004900498FFF7B7FB03468DF80F300023F6
:10C240008DF8173010E09DF8173019460498FFF765
:10C25000B1FB0290029B1B78184600F07FFE9DF810
:10C26000173001338DF817309DF817209DF80F30E7
:10C270009A42E8D300BF00BF07B05DF804FB00BFDF
:10C280003C4F040000B589B0019006F093FA0346D4
:10C29000002B04D1484940F231300CF08BFB474869
:10C2A00008234FF484724649FDF735FE0690069B3D
:10C2B000002B01D003237BE0424809F0C7FE069023
:10C2C000069B002B01D0069B72E03F4B00221A70A8
:10C2D0003E4B00221A603E4B00221A604822002189
:10C2E0003C4817F0EBFD482200213B4817F0E6FDE3
:10C2F000019B002B09D1394B00221A60374B0022D9
:10C300005A60364B00221A7204E0344B019A07CA75
:10C3100083E8070000200AF099FC0690069B002B9A
:10C3200008D0069B852B05D0234A40F25F31069842
:10C33000FCF736FCFFF7B4FB059000238DF81F30A7
:10C3400018E000238DF81E3007E00398FFF758FB34
:10C35000034605991846FFF71BFD9DF81E305A1C31
:10C360008DF81E2019460498FFF724FB0390039BC9
:10C37000002BEAD19DF81F305A1C8DF81F2019465A
:10C380000598FFF7DFFA0490049B002BD9D10B230B
:10C390008DF8083002AB19460598FFF7A7FB069009
:10C3A000069B002B03D0FFF793FA069B00E00023C7
:10C3B000184609B05DF804FB3C4F0400D03800205B
:10C3C000C8370020ADBF0200843900207839002032
:10C3D0007C390020E83800203039002088390020DE
:10C3E00000B583B009F0AEFF034683F00103DBB272
:10C3F000002B04D109F0B2FF0346002B01D0082323
:10C400000FE00A480AF088FC0190019B0093009B12
:10C41000002B05D0064A40F2C2310098FCF7C0FB61
:10C420000023184603B05DF804FB00BF904F0400E2
:10C430003C4F040008B509F0A5FE00BF08BD000090
:10C4400008B509F097FF034683F00103DBB2002B28
:10C4500004D1044940F2D1300CF0ACFA09F0FAFEF4
:10C4600000BF08BD3C4F040008B509F077FF034644
:10C47000002B0DD10D494FF476700CF09BFA07E0BC
:10C48000FFF71AFB034683F00103DBB2002B0BD14D
:10C49000FFF71FFB034683F00103DBB2002BEFD154
:10C4A0000348FFF7B5FC00E000BF08BD3C4F0400A7
:10C4B000944F040000B583B082238DF8043001ABA3
:10C4C0001846FFF7A5FC00BF03B05DF804FB00B5FC
:10C4D00083B083238DF8043001AB1846FFF798FC36
:10C4E00000BF03B05DF804FB00B583B000F00CFDA5
:10C4F0000346002B04D10E4940F213400CF05AFAC7
:10C50000012001F04FFE034683F00103DBB2002B54
:10C5100001D0002307E084238DF8043001AB1846D6
:10C52000FFF776FC0123184603B05DF804FB00BF5B
:10C530003C4F040000B587B00190DD4B1B68002B19
:10C5400004D1DC4940F225400CF034FAFDF765F8DF
:10C550000346052B04D8D74940F22C400CF02AFAA8
:10C56000019B1B78852B00F26A8201A252F823F00E
:10C5700089C80200E7C8020075C9020009C90200A3
:10C5800039C902009DC90200ADC902003FCA0200BC
:10C5900015CA020023CA020031CA02003FCA0200C3
:10C5A0003FCA02003FCA02003FCA02008FC9020010
:10C5B0003FCA02003FCA02003FCA02003FCA02004F
:10C5C0003FCA02003FCA02003FCA02003FCA02003F
:10C5D0003FCA02003FCA02003FCA02003FCA02002F
:10C5E0003FCA02003FCA02003FCA02003FCA02001F
:10C5F0003FCA02003FCA02003FCA02003FCA02000F
:10C600003FCA02003FCA02003FCA02003FCA0200FE
:10C610003FCA02003FCA02003FCA02003FCA0200EE
:10C620003FCA02003FCA02003FCA02003FCA0200DE
:10C630003FCA02003FCA02003FCA02003FCA0200CE
:10C640003FCA02003FCA02003FCA02003FCA0200BE
:10C650003FCA02003FCA02003FCA02003FCA0200AE
:10C660003FCA02003FCA02003FCA02003FCA02009E
:10C670003FCA02003FCA02003FCA02003FCA02008E
:10C680003FCA02003FCA02003FCA02003FCA02007E
:10C690003FCA02003FCA02003FCA02003FCA02006E
:10C6A0003FCA02003FCA02003FCA02003FCA02005E
:10C6B0003FCA02003FCA02003FCA02003FCA02004E
:10C6C0003FCA02003FCA02003FCA02003FCA02003E
:10C6D0003FCA02003FCA02003FCA02003FCA02002E
:10C6E0003FCA02003FCA02003FCA02003FCA02001E
:10C6F0003FCA02003FCA02003FCA02003FCA02000E
:10C700003FCA02003FCA02003FCA02003FCA0200FD
:10C710003FCA02003FCA02003FCA02003FCA0200ED
:10C720003FCA02003FCA02003FCA02003FCA0200DD
:10C730003FCA02003FCA02003FCA02003FCA0200CD
:10C740003FCA02003FCA02003FCA02003FCA0200BD
:10C750003FCA02003FCA02003FCA02003FCA0200AD
:10C760003FCA02003FCA02003FCA02003FCA02009D
:10C7700007C8020089C70200CDC702003BC80200FB
:10C780005BC80200A5C902004B48FFF72FFB4A48CF
:10C7900000F088FC0D20FFF719FA00F0A7FD01F06A
:10C7A00078FC464B1B68002B03D1454B1B7A002BB2
:10C7B00001D0012300E0002303F00103DBB218469F
:10C7C00009F068FD0120FFF783FC45E100F08EFDD4
:10C7D00009F094FD0020FFF77BFC3A4800F062FC72
:10C7E0003848FFF703FB0E20FFF7F0F9FFF76AFC6C
:10C7F00003461846FFF7FEFB0346002B00F0258199
:10C8000006F0D6F821E1FFF75DFC0346072B0ED0BA
:10C81000072B10DC052B02D0062B04D00BE00220E6
:10C82000FFF756FC08E00820FFF752FC04E0022066
:10C83000FFF74EFC00E000BF0EE1FFF743FC0346AC
:10C84000032B40F0048109F0A9FD0346002B00F002
:10C85000FE800420FFF73CFCF9E0FFF733FC0346C1
:10C86000032B07D109F09AFD0346002B02D00420C8
:10C87000FFF72EFC09F0CAFD0346002B00F0E9800B
:10C880000620FFF725FCE4E0FFF71CFC0346032B22
:10C8900004D0FFF717FC0346082B02D10A48FFF724
:10C8A00049FE0020FFF792F900F06CFB059016E0BE
:10C8B000783900203C4F0400984F04007C39002058
:10C8C000883900209C4F0400A04F0400019905986E
:10C8D000FFF70CF903900598FFF7B6F80590059B54
:10C8E000002BF3D1B8E000F001FD01F0C9FB0220FC
:10C8F000FFF7EEFB0120FFF769F90198FFF776FAE1
:10C90000019800F0CFFBA7E0FFF7DCFB0346082B04
:10C9100005D10220FFF7DCFB09F0D2FD02E0052083
:10C92000FFF7D6FB0320FFF751F90198FFF75EFAF6
:10C93000019800F0B7FB8FE00320FFF747F9484864
:10C94000FFF754FA464800F0ADFBFFF7BBFB034688
:10C95000062B02D0082B04D007E00720FFF7B8FB16
:10C9600007E00220FFF7B4FB03E00220FFF7B0FB73
:10C9700072E071E00320FFF7ABFB0220FFF726F91E
:10C98000019800F08FFB0198FFF730FA64E00F2068
:10C99000FFF71CF9019800F085FB5DE00198FFF7B7
:10C9A00025FA59E00198FFF721FA55E0019B9B78A1
:10C9B0001846FFF7A1F90490049B1B68002B04D1D3
:10C9C000284940F202500BF0F5FF049B5B68002BF6
:10C9D00004D1244940F203500BF0ECFF049B5B6848
:10C9E000049A12680199104698470346002B32D0EA
:10C9F000019B9B7803F00F03002B2CD0019B9B78AD
:10CA000003F00803002B26D1019B9B78184609F000
:10CA1000ACFF20E00820FFF7D9F8019800F042FBB6
:10CA20001AE00920FFF7D2F8019800F03BFB13E071
:10CA30000A20FFF7CBF8019800F034FB0CE009491D
:10CA400040F226500BF0B6FF06E000BF04E000BF46
:10CA500002E000BF00E000BF00BF07B05DF804FBCC
:10CA6000A44F04003C4F040000B583B000230193A1
:10CA7000394B1B68002B07D1384B39491846FDF755
:10CA8000AAFA0346344A1360334B1B68002B32D09A
:10CA9000314B1B689B88002B1ED02F4B1B68DB88FB
:10CAA000B3F5006F03D32C4B1B680022DA802A4BAE
:10CAB0001B68DA88511C89B2D9801346ADF806305C
:10CAC000254B1B689A88013A92B29A8001AB1846AE
:10CAD000FFF730FD01233AE01F4B1B681846FFF7B4
