:020000021000EC
:1090000000600020A59301005D9301005F930100C3
:10901000619301006393010065930100000000006B
:109020000000000000000000000000006793010045
:1090300069930100000000006B9301006D93010033
:10904000EDB101006F930100C1B30100B1B50100A2
:109050006F9301000000000075B201006F930100E2
:109060006F9301006F9301006F9301006F930100F4
:109070006F9301006F9301006F9301006F930100E4
:109080006F93010051A301006F9301006F930100E2
:109090006F9301006F93010045DE01006F930100A3
:1090A0006F9301006F9301000000000000000000BA
:1090B0006F9301006F9301000000000000000000AA
:1090C00000000000000000000000000000000000A0
:1090D0000000000000000000000000000000000090
:1090E0000000000000000000000000000000000080
:1090F0000000000000000000000000000000000070
:10910000000000000000000000000000000000005F
:10911000000000000000000000000000000000004F
:10912000000000000000000000000000000000003F
:10913000000000000000000000000000000000002F
:10914000000000000000000000000000000000001F
:10915000000000000000000000000000000000000F
:1091600000000000000000000000000000000000FF
:1091700000000000000000000000000000000000EF
:1091800000000000000000000000000000000000DF
:1091900000000000000000000000000000000000CF
:1091A00000000000000000000000000000000000BF
:1091B00000000000000000000000000000000000AF
:1091C000000000000000000000000000000000009F
:1091D000000000000000000000000000000000008F
:1091E000000000000000000000000000000000007F
:1091F000000000000000000000000000000000006F
:10920000354936480A1A02D0072291438D4634491F
:1092100034480A1A06D00722914381F309880222B2
:1092200082F3148830483149314A00F044F831481B
:109230003149324A00F03FF831483249324A00F0B1
:109240003AF832483249334A00F035F83248334967
:10925000334A00F030F833483349344A00F02BF8F1
:1092600033483449344A00F026F83448344900225F
:1092700000F02CF833483449002200F027F8334836
:109280003349091A082902DB002202604160314A91
:1092900090471F481F49884205D00268043003B434
:1092A000904703BCF7E700208646EC4600200021EB
:1092B000294A9047FEE7884207D0521A05D0037822
:1092C00001300B700131013AF9D17047884202D068
:1092D00002700130FAE7704700600020005800205B
:1092E0000060002000600020ECF90100C82300208D
:1092F0001C240020EC930100EC93010004EB01001E
:10930000ECF90100C8230020C823002000EC010074
:1093100000EC010000EC010000EC010000EC010099
:1093200000EC010000EC010000EC0100EBF9010091
:1093300040FA01001C2400201C2400201C240020D2
:10934000743000207430002074300020743000200D
:1093500074380020BB93010099C20100FEE7FEE7CC
:10936000FEE7FEE7FEE7FEE7FEE7FEE7FEE7FEE7D5
:1093700009480068094909680A280AD1002908D162
:10938000074802686FF070031A404FF040031A4319
:10939000026000F009B80000300100103401001034
:1093A000E40E0040FFF7E4BF0B484FF0070188438D
:1093B00085460A488047FFF723BF094809490A4AFA
:1093C000884207D0521A05D0037801300B70013162
:1093D000013AF9D17047000000600020ADAC0100F7
:0C93E00000EC0100C8230020C82300207E
:1093EC007047000007B5044B0093044A402300F07B
:1093FC0032F803B05DF804FB0D9401001D2400202D
:10940C002DE9F84388461446B2B10F4B0F4E032595
:10941C00002743F00109224608EB0701002003F066
:10942C006DFA0744241A48B933782BB14FF47A40BB
:10943C00C847013D02D13570BDE8F8830123337074
:10944C00002CE8D1F8E700BF00EC01001C24002040
:10945C00704703F083BAF0B595B01D461646084622
:10946C000C4601F01DFB1A9B0D93CDE908650025F8
:10947C002B46082205A920460A958DF82C500C95F0
:10948C0001F02AFB079B0293069B03939DF8143073
:10949C008DF8115003F00302012A1DD1BDF81420E0
:1094AC00059DC3F3C203C2F383168DF81030B200CE
:1094BC0008230EA9204601F00FFBC5F3952508AB38
:1094CC000093324602AB0EA9284600F027FB20463B
:1094DC0001F0EAFA15B0F0BD022AF8D1BDF8165029
:1094EC00C3F3C203C5F389158DF810300827082D76
:1094FC002E4628BF08263B4632460EA9204601F0D0
:10950C00EBFAAD1B08AB02AA31460EA8374400F0AB
:10951C0069FB002DEBD1DAE708B5FFF79AFF044899
:10952C00042100F06BFA034B01225A7108BD00BFF5
:10953C00F0EB0100C82300200378024613F004006E
:10954C0006D003F00300012803D0022809D0012023
:10955C0070470B6812880233C2F3831213440B60FA
:10956C0070470B685288023303EB92130B60EEE7E3
:10957C002DE9F04FDFF81CA187B00F4600230446FD
:10958C00861C0DF1070015468DF8073000F06EFDB6
:10959C00DAF804203A60DAF8083003F580739B1A85
:1095AC000AF21C470AF583690AF21448B3421AD32B
:1095BC000020002D69D004F00F039B0143F005033C
:1095CC0063F30F00DAF80430DAB2033233444AF8AA
:1095DC0022009DF80700CAF8043000F06BFD012052
:1095EC0007B0BDE8F08F0121384600F088FF4846EF
:1095FC0000F09DFF404600F09AFFDAF80800029058
:10960C00C0B203300AEB800002A9FFF795FF029B62
:10961C0030BBDAB20AEB8202D16803919A1C013397
:10962C00DBB20AEB83030292D3F80CB001F0030314
:10963C00012B22D0022B15D08346404600F07AFF36
:10964C0010B1029BCAF808305946384600F057FF53
:10965C00DAF80830DAF8042003F580739B1AA5E7D2
:10966C00D8B2CEE7BDF80E30C3F3891303334FEAFB
:10967C001B4B02EB93030293DFE7BDF80C30C3F3F3
:10968C0083134FEA1B4B1344F5E7A40544F0060083
:10969C0098E700BF30250020064B074810B5002284
:1096AC001A7001F0B6F9044610B9044801F042FAF8
:1096BC00204610BD3025002064EB01003CEC01007D
:1096CC0030B50A4C71B10A4A0A49121BD208002360
:1096DC009A4201D1002030BD31F82350854202D08E
:1096EC000133F5E7034654F83300F4E778EB010057
:1096FC00F0EB0100C8230020094B013903EBC0003B
:10970C00032909D8DFE801F00A0204060420704797
:10971C0000797047407970470020704702207047ED
:10972C0078EB0100034BD3E90130C31A584258417E
:10973C00704700BF302500202DE9F04186B0FFF7BF
:10974C00F1FF0546002840F0ED80774CC4F8180472
:10975C00BFF34F8FA3680293DBB2033304EB830098
:10976C0002A9FFF7E9FE029B18B1D4F81824002ACD
:10977C005AD0DAB2991C013304EB8202DBB204EB4F
:10978C008303D268DB68049302F00303022B039279
:10979C00029154D1BDF80E306448C3F38917502F91
:1097AC003E4628BF502606F1080166F38F13C1F31D
:1097BC000901ADF80E3001F044F90546002800F01F
:1097CC009C8001F06DF90023082203A9284601F0C2
:1097DC0079F90299CB43DBB20133C9B20331B6EB51
:1097EC00830F4FEA830204EB810125D95FFA82F8DB
:1097FC000823A6EB0806284601F064F9F6B208F136
:10980C0008034B4903F0FC033246284601F05AF991
:10981C00029B033703EB97070297D4F81834002BFD
:10982C0043D1D4F8106453E062689A4294D8A26091
:10983C00284606B0BDE8F08108233246E5E7012B47
:10984C005BD1BDF80C303948C3F38311062928BF0E
:10985C00062161F38913023101F00F018900ADF883
:10986C000C3001F0EEF80546002846D001F018F94E
:10987C000023082203A9284601F024F90026BDF88C
:10988C000C20C2F38312B300964203F10803C4D236
:10989C0002994A1CC9B20331029204EB81010422E1
:1098AC00284601F00FF90136E9E7284601F0FCF8EB
:1098BC00FFF738FF80F00105EDB2B9E7F3685B798B
:1098CC0023B1336829461B6830469847F3681E68F5
:1098DC00002EF3D1284601F0E7F80DF107008DF8C2
:1098EC00076000F0C3FBD4F818340BB9029BA360DB
:1098FC009DF8070000F0DEFBDAE7D4F8104454B909
:10990C000C4B0D480D49C01AC008000440F0020071
:10991C0000F05CF8CCE7236820469B689847E36826
:10992C001C68ECE7002583E73025002064EB010080
:10993C003C25002078EB010098EB010024EC0100A1
:10994C002DE9F34704460E46924601A9012218461A
:10995C009946FFF70DFE1B4F10B3019D4FF0000809
:10996C00AA1CC84508EB020123D11748002100F0BE
:10997C0097FD80F31000000440EA1440E4006B1CD7
:10998C0004F03804DBB2EDB244F0010407EB8303BE
:10999C00033544EA881444EA8624D86047F8254005
:1099AC003B781BB1FFF7C8FE0028FBD102B0BDE825
:1099BC00F087C9B207EB81015AF82830CB6008F167
:1099CC000108CEE7302500204C29002000231A4640
:1099DC00FFF7B6BF07B50123019201AAFFF7B0FF4D
:1099EC0003B05DF804FB07B5CDE9002302236A46FA
:1099FC00FFF7A6FF03B05DF804FB000030B50F4C79
:109A0C00D4F8102403460020114631B9D9680871E6
:109A1C004AB9C4F810340A6030BDC9680D79854262
:109A2C0006D00968F1E7D26814680C601360F3E79C
:109A3C0001300A28E8D14FF0FF30EDE73025002047
:109A4C0038B5084B0125D3F810441D7004B938BD46
:109A5C00E3685D71236820465B689847E3681C687F
:109A6C00F4E700BF30250020C38873B504460D46CB
:109A7C0033B1144A00921449144A284600F0BDFD33
:109A8C00217A05291CD0637A4BB1A088FFF734FEEC
:109A9C000F4B104953F82020284600F0AEFD227AD7
:109AAC000D4BA08853F822600021FFF709FE0B49EB
:109ABC0003463246284602B0BDE8704000F09DBD1A
:109ACC0002B070BD68EC010050EC010048EC0100E4
:109ADC00D4EC01006DEC0100F8EC010070EC01001D
:109AEC0010B5037A052B0C460FD0437A23B1084AE4
:109AFC000849204600F081FD0749204600F07DFD15
:109B0C002046BDE8104000F06DBD002AF8D0F3E708
:109B1C0068EC01006DEC010065EC01002DE9F043EF
:109B2C0085B01F460C9D002395F80C902B730646B0
:109B3C000C46904629463846FFF796FFB8F1060FBB
:109B4C0009D8DFE808F00412181F2833400031460A
:109B5C00284600F052FD002229463846FFF7C0FF88
:109B6C0085F80C9005B0BDE8F08322683146284694
:109B7C0000F043FDEFE7D4E900233146284600F01E
:109B8C003CFDE8E7A36800933146D4E9002328465E
:109B9C0000F033FDDFE7E3680193A36800933146DF
:109BAC00D4E90023284600F028FDD4E7236902936A
:109BBC00E3680193A36800933146D4E90023284657
:109BCC0000F01BFDC7E76369039323690293E36805
:109BDC000193A36800933146D4E90023284600F092
:109BEC000CFDB8E708292DE9F74F80460E461746BD
:109BFC001C463CD800251B7B25732146104601933F
:109C0C00FFF732FFDFF880A0DFF880B0AE4231D929
:109C1C0018F805205946204600F0EFFC0135082DB8
:109C2C00F4D11B49DFF86CA0DFF86CB0204600F0D3
:109C3C00E4FC4FF000094E4521D918F809507E2D4F
:109C4C0003D8284604F062FB00B92E252A46594653
:109C5C00204600F0D2FC09F10109B9F1080FEAD154
:109C6C00012221463846FFF73BFF019B237303B0CB
:109C7C00BDE8F08F5146204600F0BFFCCEE75146C0
:109C8C00204600F0BAFCE6E780EC01007AEC01001B
:109C9C0084EC010082EC010086EC01001FB5002170
:109CAC00039001AA44F20100CDE9011100F004F87F
:109CBC0005B05DF804FB000038B572B6FFF7C0FEC6
:109CCC00FFF73AFD0028FBD1104B114C114D1249F6
:109CDC00E41AE408240444F00100FFF777FED5F8F9
:109CEC00F030DB0700D500BE0C4944F00200FFF752
:109CFC006DFEBFF34F8FEA68094B02F4E062134329
:109D0C00EB60BFF34F8F00BFFDE700BF78EB0100A6
:109D1C0098EB010000ED00E017ED010023ED0100D0
:109D2C000400FA0510B5D0E90243D1E90202A042C1
:109D3C0072EB03032CBF0120002010BD08B50A48AC
:109D4C0000F0E9FA094AD2E90031C018084BD3E90E
:109D5C00002341F10001904271EB030303D210F197
:109D6C00807041F1000108BDD0230020F0290020B3
:109D7C00682A002037B505460C460A4801A900F0B0
:109D8C00FEFA60B10570446001A9064800F021FBA1
:109D9C0018B1054800F0C4FA002003B030BD04200F
:109DAC00FBE700BF542A0020D023002038B5184B05
:109DBC001B78044613B90025284638BD0028FAD074
:109DCC00037F03F0FF05002BF5D0FFF7B7FFD4E9B5
:109DDC000223904271EB030314D3236903B9237755
:109DEC00D4E90530984721690029E4D0237F03F09A
:109DFC00FF05002BDFD0D4E902325B1842F10002E0
:109E0C00C4E902320348214600F0B3FED4E700BF98
:109E1C00F829002040ED010013B5114B11491868C9
:109E2C00019008231048582200F096FA044698B97D
:109E3C000E4A0F4801A900F05FF9044660B90C48BE
:109E4C00012100F04BFA01230A4A0948194600F097
:109E5C00ADF9094B01221A70204602B010BD00BFAB
:109E6C003AED0100FC290020542A0020E99E010053
:109E7C00D0230020FFFF7F00F82900203AB10368AF
:109E8C005A614A1E51425141196100207047072006
:109E9C00704738B5037F04460D4683B98261FFF7DE
:109EAC004DFF2369281841F10001C4E9020103B1F7
:109EBC00256121460020BDE83840FFF75BBF00203C
:109ECC0038BD0023014603770120FFF753BF000084
:109EDC00014800F020BA00BFD02300202DE9F34741
:109EEC00064600F003FA40B1584AD2E9003113F1AA
:109EFC00807341F10001C2E900310021304600F0CD
:109F0C0004FA38B1524C236823B12068FFF74EFF96
:109F1C00002323600121304600F0F7F920B1FFF750
:109F2C000DFF4C4BC3E900014B48494D4B4C4C4F7A
:109F3C0001A900F05EFA002842D1DFF82081444CE0
:109F4C00DFF82091404600F02AFE2368002872D0EA
:109F5C007BB12368D0E90252D3E902138D4272EB34
:109F6C0003032AD223681B7F1BB12168404600F0F3
:109F7C0000FE404600F00DFED0E9027A0546FFF7E0
:109F8C00DDFE3F1A6AEB010A012F7AF1000345DB73
:109F9C00B7F5350F40D3FFF79BFF334A02444FF41C
:109FAC0096030021484600F021F900283ED1236891
:109FBC0013B9304600F0F2F8256002B0BDE8F08726
:109FCC000378012B1DD0022B09D14FF0000820463D
:109FDC0000F0DFFD002836D080F81C80F7E73BB995
:109FEC0041680B7F23B901230B77204600F0C1FD9C
:109FFC0001A9194800F028FA01A9174800F0F9F94D
:10A00C0099E741682B68994202D100232B60EFE756
:10A01C00204600F0C7FDEBE7AA68C0E700214846E0
:10A02C0000F069F92846FFF7C1FE01E00D28F9D0D0
:10A03C000023236086E7002BBFD1304602B0BDE879
:10A04C00F04700F0AFB801233B70D1E7F0290020B6
:10A05C00702A0020682A0020542A002040ED0100BC
:10A06C00F8290020D0230020FFFFB40070B5EFF3D7
:10A07C00108672B60C4A946801239CB993600B4B02
:10A08C000B4DD3F8801029401160C3F88050D3F8E1
:10A09C00841051604FF0FF32C3F88420047006B96D
:10A0AC0062B670BD0370FAE7742A002000E100E08C
:10A0BC00FC06FFBD084B9A6810B55AB150B9EFF3C6
:10A0CC00108172B6054A1C6814605C685460986014
:10A0DC0001B962B610BD00BF742A002000E100E097
:10A0EC000346405882B028B100225A505B58019365
:10A0FC00019B012002B07047F8B5204B4479204EEB
:10A10C0043F824201F4A204B06EBC4049B1A2279E7
:10A11C00DB081B0432B143F002001C49FFF756FC6C
:10A12C000820F8BD02680C88C2F8084590F9045064
:10A13C008A7804795201002DD2B219DB14494F19D7
:10A14C0087F8002301226D0904F01F0402FA04F4BD
:10A15C0041F82540427906EBC201012446F8320051
:10A16C000C7143F003000B49FFF730FC0020D8E7DB
:10A17C00094904F00F040A55ECE700BF882A0020B7
:10A18C00802A002078EB0100A8EB01004CED0100C7
:10A19C0000E100E06EED010014ED00E00368012227
:10A1AC001A607047036801225A60704773B501F159
:10A1BC005005AD000068ADB24FF480348C400026E1
:10A1CC00C0F80843C0F84843465101F5A8714559F9
:10A1DC00019522F07F42019D40F82120C0F84443B4
:10A1EC000BB1C0F8044302B070BD00002DE9F74F6D
:10A1FC000D4622F07F4402684FF4803705F150067B
:10A20C008F408046B60002EB8500C2F84873B6B2A8
:10A21C00C2F80873D2F8041599464FF0000BD0F829
:10A22C004035C0F8401542F806B05B1A92590092BE
:10A23C0023F07F43012B009A4FEA850A0CD1264B61
:10A24C004FF4806043F001039847D8F8003043F88E
:10A25C0006B09B590193019BD8F80010D1F8046506
:10A26C00C1F84473A31B23F07F43012B1CD11A4B61
:10A27C0005F5A875013443F0010341F825404FF46E
:10A28C0080609847D8F80030D3F804359E4209D145
:10A29C00D8F800300020C3F84473C3F8047303B03B
:10A2AC00BDE8F08F0D20FAE78A44C9F1FF13CAF814
:10A2BC004045D1F80405221A013A22F07F4203F5F9
:10A2CC007F439342EED3002AE2D10134CAF84045D1
:10A2DC00D1F804359842DAE780ED010003680222D8
:10A2EC00C3F8442309B1C3F80423704700684FF442
:10A2FC008271FFF7F5BE4FF4803303FA01F1036866
:10A30C00C3F84813C3F8081370475031890000682C
:10A31C0089B2FFF7E5BE0368D3F804057047000067
:10A32C0090F90430002B09DB5A09012103F01F03BB
:10A33C0001FA03F34032024941F82230704700BF62
:10A34C0000E100E0024B034A1B681068184700BF8D
:10A35C00882A0020802A002030B5054659B1B2FB6E
:10A36C00F3F403FB1424A0B238B9C5E90010A860BB
:10A37C00AA81EB8130BD0E20FCE70920FAE737B546
:10A38C0050E8013F9DB2C48925448489A54228BF69
:10A39C002D1B0489A54202BFBFF32F8F002207E0BB
:10A3AC00C5EA030540E80154002CE9D14FF0010245
:10A3BC008DF803200193019A0A609DF8031001F0B7
:10A3CC00FF0321B1006810FA82F003B030BD1846CB
:10A3DC00FBE70A884B889A4209D150E8012FC2EA60
:10A3EC00024240E80123002BF7D1012070470020E6
:10A3FC00704737B550E8023F1FFAA3F5C488A54251
:10A40C0002BFBFF32F8F00220DE0C489254484893D
:10A41C00A54228BF2D1BC3EA054540E80254002C79
:10A42C00E8D14FF001028DF803200193019A0A60E4
:10A43C009DF8031001F0FF0321B1006800EB1240FE
:10A44C0003B030BD1846FBE70A884B889A4209D105
:10A45C0050E8022FC2EA224240E80223002BF7D137
:10A46C00012070470020704701F01F024B090121A9
:10A47C00914000EB830000F01EB801F01F03012295
:10A48C009A404B0900EB8300D14300F02CB84B09E8
:10A49C0001F01F0150F82300C84000F00100704784
:10A4AC0010B5034653E8000F0A4643E8002494F025
:10A4BC00000FF7D110BD10B5034653E8002F42EA48
:10A4CC00010043E8000494F0000FF6D110BD10B564
:10A4DC00034653E8000F00EA010243E8002494F01D
:10A4EC00000FF6D110BD10B5034653E8002F02EA59
:10A4FC00010043E8000494F0000FF6D110BD10B534
:10A50C00034653E8002F02EB010043E8000494F0EB
:10A51C00000FF6D110BD10B5034653E8002FA2EB87
:10A52C00010043E8000494F0000FF6D110BD0121A6
:10A53C00FFF7C1BF0021FFF7CABF10B590B1D0E93A
:10A54C00012301689B1ADBB20A60013BDBB2FF2BD3
:10A55C00026802D10020107110BD11684C1C1460EF
:10A56C000B70F2E70E20F7E737B5054600240DF126
:10A57C0007008DF80740FFF779FD2A686B681168B2
:10A58C0099420ED9481E106011F8013CEC68298ADA
:10A59C0001FB0344AB6811791B1ADBB2994238BF3B
:10A5AC0013719DF80700FFF785FD204603B030BD01
:10A5BC0037B5054600230DF107000C468DF8073022
:10A5CC00FFF754FD2A681368591C1160E968641A76
:10A5DC00298AB4FBF1F41C709DF80700FFF76AFDA3
:10A5EC0003B030BD826810B504462AB143690168D6
:10A5FC00006998470023A36010BD0EB403B50399FE
:10A60C0021B104AB01AA019300F076F802B05DF819
:10A61C0004EB03B070470A2938B504460D4602D145
:10A62C000D21FFF7F8FFA3682268591CA160D554CF
:10A63C00D4E901329A4204D32046BDE83840FFF7F2
:10A64C00D1BF38BD2DE9F84F9846DDE90A431546D0
:10A65C0082460F460A464FF00109AA420FD2C14565
:10A66C0038BFC14613F0010B01D16CB9002401268F
:10A67C00B8F1010F1BD908F1FF386E43F8E709F167
:10A68C000109B2FBF5F2E8E79B070ED5B8F1000F14
:10A69C000CBF30262026A145E9D2013C314650465C
:10A6AC00FFF7B9FF002CF6D1E0E72026F3E7B7FB64
:10A6BC00F6F39D42E1D9DFF83C80B7FBF6F3504648
:10A6CC0018F8031006FB1377FFF7A5FF3346AB42D0
:10A6DC00B6FBF5F6F1D2BBF1000F02D00CB1A145DF
:10A6EC0001D3BDE8F88F20215046013CFFF793FFC2
:10A6FC00F4E700BF86ED01002DE9F74F054617463C
:10A70C008846002900F03E8118F8011B49B92B7BC3
:10A71C00002B00F03781284603B0BDE8F04FFFF75F
:10A72C0061BF252940F0B780002698F800302D2B0A
:10A73C00424608F1010823D0302B24D02B2B25D0F6
:10A74C0000242A2B02F1010123D13B681A1D1B683E
:10A75C003A601C440A4613782E2B26D101324FF056
:10A76C00000A104610F8011BA1F1300CBCF1090FC6
:10A77C001DD80A2303FB0A13A3F1300A0246F0E7A3
:10A78C0046F00106D1E746F00206CEE746F0040695
:10A79C00CBE711F8013CA3F130000928DBD80A22E1
:10A7AC0002FB0434303C0A46CBE74FF0000A12F8A7
:10A7BC00011B01F0FB0068289046F8D0782909D8D5
:10A7CC006F290CD8632962D022D8252963D0582947
:10A7DC0000F0888098F80030002B95D197E77039FD
:10A7EC000829F7D801A353F821F000BF6BA9010089
:10A7FC00E1A70100E1A7010001A90100E1A7010007
:10A80C00DFA80100E1A70100E1A70100F1A8010008
:10A81C00642901D06929DDD13A68D2F80090111D64
:10A82C0089EAE9723960A2EBE9724FF0010B092A4F
:10A83C0035DCD34538BFD3462CB1B9F1000F01DB61
:10A84C00720700D5013CB30702D5BAF1000F03D053
:10A85C00F00701D44CBB0024B9F1000F2DDAC9F17B
:10A86C0000092D212846FFF7D6FE06F00302022A26
:10A87C0004D1BAF1000F01D11CBB0024CDE9004674
:10A88C0053460A2249462846FFF7DCFEA2E73B68FE
:10A89C001A1D19783A602846FFF7BDFE9AE70A237D
:10A8AC000BF1010BB2FBF3F2C1E7A345D4D220218B
:10A8BC002846013CFFF7AFFECCE77107D5D52B211D
:10A8CC00D0E7A345DAD230212846013CFFF7A3FE9E
:10A8DC00D2E73968CDE900460A1D3A6053460A2290
:10A8EC000968D0E739680A1D3A60CDE9004653463D
:10A8FC001022F5E73B681A1D3A6016F00106D3F8F2
:10A90C00009024D1B9F1000F03D0484603F0A7FD05
:10A91C000646B4421DD809F1FF3919F8011F002968
:10A92C003FF458AF2846FFF776FEF6E72846013687
:10A93C00FFF771FE19F806100029F7D1A642BFF4F3
:10A94C0049AF20212846013CFFF765FEF6E70026BB
:10A95C00F0E720212846013CFFF75DFED9E73B6874
:10A96C001A1D3A60302128461C68FFF754FE7821E6
:10A97C002846FFF750FE00220823CDE9003221467D
:10A98C00102280E703B0BDE8F08F00BF2DE9F84F2F
:10A99C00B0F806A04579D2F800B09DF828900AFBD3
:10A9AC0005F5043D88460BEB0301A94203F10404B1
:10A9BC0088BFA5EB030BB4FBFAF607460AFB16445B
:10A9CC00C2F800B04EB9AAEB04055D4528BF5D4640
:10A9DC00BBF1000F04D1BDE8F88F3F68013EF1E7F1
:10A9EC00043408EB06003C442A46B9F1000F0DD0A4
:10A9FC002146ABEB050B03F0B4FCDA452E443F6863
:10AA0C0055464FF0000428BF5D46E1E7014620465D
:10AA1C00EFE7FFF792BDF8B546790146721E054681
:10AA2C00002393422D6803D30024A64202D8F8BD1C
:10AA3C000133F6E70F682846FFF7BAFD01343946B3
:10AA4C00F3E72DE9F843068ACD1C0746FFF78CFD8A
:10AA5C00043E35440446B5FBF6F5F0B14FF4807373
:10AA6C00EDB28380C680013D076081464FF000083F
:10AA7C00A84512D23846FFF777FD064648B16379F0
:10AA8C000133637108F10108C9F8000007608146C1
:10AA9C00EEE72046FFF7BFFF34462046BDE8F883BB
:10AAAC0001210430FFF72BBD10B501210446043001
:10AABC00FFF731FDC0B220B92046BDE81040FFF7CA
:10AACC00AABF10BD1FB503920022009203AAFFF784
:10AADC005DFF05B05DF804FB1FB5039201220092E7
:10AAEC0003AAFFF753FF05B05DF804FB41DF704785
:10AAFC00064B10B500241C70054B1C60BFF35F8F18
:10AB0C000449054800F01FF8204610BD942A002087
:10AB1C00982A0020A0ED01008C2A002008B503F033
:10AB2C0071F918B1BDE80840FFF7E0BF20BF40BF86
:10AB3C0020BF08BD836800225A60C3E904229A60D2
:10AB4C00DA601A6070470B684A684360934208BF2A
:10AB5C000023016008BF43607047436843B102683B
:10AB6C00916852680B449342436004BF00234360D6
:10AB7C00704770B5446806460D46206818B1B36836
:10AB8C002946984718B923682B60256070BD246846
:10AB9C00F3E74368186808B102681A6070474368A5
:10ABAC00186870474368186800B97047884203D129
:10ABBC0002681A600120704703460068F4E7000041
:10ABCC0010B50D49A1F59472914201D800200FE007
:10ABDC008C1AE30F03EBE4035B1002EBC30452F893
:10ABEC003330834205D802D204F10802ECE76068E6
:10ABFC0010BD2146E8E700BFACF2010008B5FFF735
:10AC0C00DFFF024B002808BF184608BD6FF101009A
:10AC1C00BFF34F8F0549064BCA6802F4E062134339
:10AC2C00CB60BFF34F8F00BFFDE700BF00ED00E02E
:10AC3C000400FA054FF08053D3F83001421C04BFD6
:10AC4C004FF0704393F8E00F831F58425841704700
:10AC5C004FF0704393F8E02F062A09D1D3F8E83F60
:10AC6C00C3F30313033B032B02D8024AD05C704797
:10AC7C0000207047B4F201004FF08053D3F830013C
:10AC8C00421C04BF4FF0704393F8E00F062804D029
:10AC9C00A0F10A0358425841704701207047000048
:10ACAC0008B5FFF7C7FF40B14FF08053A44AD3F863
:10ACBC002433C3F30423C2F84035FFF7C9FF10B1A6
:10ACCC00A04BA14A5A67FFF7D7FF48B14FF080530A
:10ACDC004FF08042D3F84432C3F34233C2F83C35D0
:10ACEC00FFF7B6FF30B1994AD2F8FC3023F08073ED
:10ACFC00C2F8FC30FFF7C0FF40B14FF08043002298
:10AD0C00C3F80C21C3F81021C3F83825FFF7A0FFB6
:10AD1C0020B14FF080430322C3F8A025FFF798FF22
:10AD2C0060B18B4B0522C3F810260122C3F888268C
:10AD3C000022C3F818263F22C3F814264FF0805384
:10AD4C00D3F83021501C09BF4FF07043D3F8343185
:10AD5C0093F8E02FD3F8E83F08BFC3F30313062A98
:10AD6C004ED1033B032B03D87A4AD35C002B49D03A
:10AD7C004FF08052784BD2F80414C3F82015D2F857
:10AD8C000814C3F82415D2F80C14C3F82815D2F8FB
:10AD9C001014C3F82C15D2F81414C3F83015D2F8CB
:10ADAC001814C3F83415D2F81C14C3F84015D2F893
:10ADBC002014C3F84415D2F82414C3F84815D2F85B
:10ADCC002814C3F84C15D2F82C14C3F85015D2F82B
:10ADDC003014C3F85415D2F83414C3F86015D2F8F3
:10ADEC003814C3F86415D2F83C14C3F86815D2F8BB
:10ADFC004014C3F86C15D2F84424C3F8702501E054
:10AE0C000A2AB5D0FFF716FF48B14FF080534FF028
:10AE1C008042D3F8583203F04F03C2F8E43EFFF7F8
:10AE2C002BFF48B14FF08043D3F80024D10744BF27
:10AE3C006FF00102C3F800244FF08053D3F8302197
:10AE4C00062A0ED1D3F83431033B032B02D8434AE4
:10AE5C00D35CBBB1424AD2F83C3743F48063C2F8AE
:10AE6C003C374FF08053D3F830210A2A0AD1D3F85B
:10AE7C0034313BB14FF08042D2F8E43E43F00F0343
:10AE8C00C2F8E43E4FF01023D3F80022002A03DB73
:10AE9C00D3F80422002A23DA324B0122C3F804250A
:10AEAC00D3F80024002AFBD04FF010221521C2F851
:10AEBC000012D3F80024002AFBD04FF010231522E7
:10AECC00C3F80422274BD3F80024002AFBD000221D
:10AEDC00C3F80425D3F80024002AFBD0FFF798FE12
:10AEEC00D3F80022D20703D4D3F80432DB0722D5DF
:10AEFC001C4B0122C3F80425D3F80024002AFBD0F4
:10AF0C004FF010220021C2F80012D3F80024002ABE
:10AF1C00FBD04FF010230022C3F80422114BD3F8BE
:10AF2C000024002AFBD00022C3F80425D3F8002407
:10AF3C00002AFBD0D2E70C4B0C4A1A6008BD00BFAC
:10AF4C000030014000C007400DF0ADBA00ED00E04C
:10AF5C0000500040ACF2010000C00040B0F2010013
:10AF6C000010004000E00140D82300200090D003E6
:10AF7C00054A4FF0A043105CD3F8043523FA00F0D7
:10AF8C00C04300F001007047B8F20100044B1A5C9A
:10AF9C00012393404FF0A042C2F80C35704700BF1C
:10AFAC00B8F20100044B1A5C012393404FF0A0420D
:10AFBC00C2F80835704700BFB8F2010008B5002090
:10AFCC00FFF7F0FF0120FFF7EDFFBDE8084002207E
:10AFDC00FFF7E8BF08B50020FFF7D8FF0120FFF707
:10AFEC00D5FFBDE808400220FFF7D0BF074A4FF05D
:10AFFC00A041105CD1F804350122824022EA030002
:10B00C001340C1F80805C1F80C357047B8F20100BF
:10B01C00C3070AD54FF0A0430322C3F83C27C3F85B
:10B02C004027C3F84827FFF7C9BF704738B5074C0E
:10B03C00051E04F1080318BF1C4623682BB11A68BF
:10B04C0022605B6828469847F7E738BDA42A0020A1
:10B05C0020B9054B01225A70FFF7E8BF012802D135
:10B06C00014A9070F8E770479C2A002020B9034BE6
:10B07C0001225A70FFF7DABF704700BF9C2A0020EC
:10B08C0038B50E4C2378B3B90D486360A3602361C7
:10B09C00E36000F075F8054602F0B4FE08B900F064
:10B0AC007BF801232370074BD3F800340BB1012339
:10B0BC00A370284638BD8525F5E700BF9C2A0020E3
:10B0CC005DB001000000014037B50D4C00230DF1BF
:10B0DC0007008DF80730FEF7C9FFE368013BE3601A
:10B0EC00E36833B9074BD3F8005415B900F066F890
:10B0FC00A5709DF80700FEF7DDFF03B030BD00BF63
:10B10C009C2A002000000140012813B50CD0032814
:10B11C0020D038B9134B0122C3F88020BFF34F8FD6
:10B12C00BFF36F8F02B010BD0F4C00230DF1070061
:10B13C008DF80730FEF79AFF23780BB9FFF7A0FFC5
:10B14C00E3689DF807000133E3600123A370FEF769
:10B15C00B1FFE7E700F020F802B0BDE81040FFF7C0
:10B16C00B3BF00BF00E100E09C2A002000F180404A
:10B17C00002382B0036003680193019B02B0704707
:10B18C00044B0246187918B91A6001229A8070474C
:10B19C0085207047B02A0020074B1A68D20704D4C8
:10B1AC00C02283F8002301221A604FF08043012251
:10B1BC00C3F81825704700BF00E100E04FF0804253
:10B1CC0008B50223C2F808334FF48270FFF7CEFFA4
:10B1DC000123D360D2F81834DB03FBD408BD000084
:10B1EC004FF0804110B5D1F8003163B14FF480704D
:10B1FC00FFF7BCFF0D4B58790122C1F8082310B999
:10B20C005A711B6898474FF08042D2F8043163B1F1
:10B21C004FF48270FFF7AAFF0223C2F80833034BE6
:10B22C00BDE810401B680120184710BDB02A002053
:10B23C0000F1804000F5C040002382B00360036839
:10B24C000193019B02B07047800000F1A040D0F840
:10B25C00002722F44032C0F80027D0F8003743EA28
:10B26C000143C0F8003770472DE9F74F00244E4DCD
:10B27C0001944FF48072012102F1804303F5C04325
:10B28C0090B21B68012B06D1D5F804330B4202D0C7
:10B29C00FFF7CEFF0C430432B2F5907F4FEA410129
:10B2AC00EAD1414BD3F87C31012B0CD14FF4BE7059
:10B2BC00FFF7BEFF4FF0A04344F00044D3F8202525
:10B2CC000192C3F82025E3B2D3B1384F00250126F3
:10B2DC00344210D0AB0003F1804303F5C043D3F8E4
:10B2EC001005D3F8101557F8253023B1C1F30141DF
:10B2FC00C0F3042098470135082D4FEA4606E7D1E4
:10B30C00002C48DA294D4FF0A048294E4FF0000987
:10B31C00012716F9013B5A1C31D0C3F3C20202A912
:10B32C000A44DCB212F8042C03F03F0A03F00703C2
:10B33C0007FA03F31A4222D00AF5E073504658F884
:10B34C002330C3F3014BBBF1020F0CBF03210221CD
:10B35C00FFF77AFF07FA0AF3C8F8203505EB0A0362
:10B36C0093F9303055F823304BB1A109032904D09F
:10B37C00BBF1020F12D1012901D15046984709F1B6
:10B38C000109B9F1040FC4D1D8F820350193C8F8DC
:10B39C002035002BB9D103B0BDE8F08FBBF1030F02
:10B3AC00EDD10229E8E700BF00600040B82A002078
:10B3BC00082B0020014B1B68184700BF142B0020E2
:10B3CC000E4B984237B50C4602D0002003B030BD6E
:10B3DC0000230DF107008DF80730FEF747FE084BF0
:10B3EC001D7915B901221C601A719DF80700FEF732
:10B3FC0061FE002DE9D01120E8E700BF00200040DD
:10B40C00142B00201FB503788DF800308388ADF81D
:10B41C00043083688DF80630C3688DF807300369F3
:10B42C0002934369054A0393054B684653F8213050
:10B43C0052F82110984705B05DF804FB1C2B002036
:10B44C00202B0020024B4FF4807043F0010318476F
:10B45C00E0F201002DE9F047154690F80090324AD1
:10B46C0042F82950314A42F829304B7B07460C46AA
:10B47C006BB30868496882008B0002F1A04203F1AB
:10B48C00A04340F20C66C2F800674FF0010AC3F803
:10B49C0000674FF0A0460AFA00F00AFA01F1C6F86C
:10B4AC000805C6F8081540F20D61C2F80017C3F87C
:10B4BC000017FFF7C7FF4FF00008D6F81025636898
:10B4CC0022FA03F3DB070DD5B8F1000F1DD1002DC7
:10B4DC00174A4B4608BF2A462146381DBDE8F0479F
:10B4EC0000F01EB923680AFA03F3C6F80C35FFF70F
:10B4FC00A9FF23680AFA03F3C6F8083508F1010816
:10B50C00FFF7A0FFB8F1090FD7D1636801264FF000
:10B51C00A04806FA03F3C8F80C35FFF793FF6368ED
:10B52C009E40C8F80865D2E7202B00201C2B002079
:10B53C0011B401000023435082B043580193019B86
:10B54C0002B070470A7B0346032A29D8DFE802F0D1
:10B55C00212519028A68500304D5D3F84C250869B3
:10B56C00904207D18A6852031AD4D3F84C25496902
:10B57C00914215D000200622C3F80005C3F800251F
:10B58C007047D3F84C2508699042F3D1D3F83C2589
:10B59C00EDE7D3F84C250969EAE7D3F83C25FAE73F
:10B5AC0001207047F0B5594D594CD5F8243187B06E
:10B5BC00FBB14FF492712846FFF7BCFFD5F804316C
:10B5CC00BBB9A368C5F808330223A360A368C5F808
:10B5DC000433D5F860311BB1D5F800329F0503D484
:10B5EC004A4B01221A625A61012384F82E3007B0AB
:10B5FC00F0BDD5F80431002B50D044484FF4827183
:10B60C00FFF798FF236A5E0609D494F82E3033B9FD
:10B61C003F49FFF797FF80F0010084F82E00236A62
:10B62C005D0720D43B4E0FCE01AD0FC533683748B4
:10B63C002B604FF4B071FFF77DFF4FF4AE71FFF745
:10B64C0079FF94F8303013B194F82E305BB12F4B56
:10B65C000022C3F80022A2602F4AC3F808232F4B04
:10B66C000822C3F88021294AD2F8C434C2F8C43461
:10B67C0098073DD501238DF8003094F830300BB984
:10B68C0084F82F30236A5B0703D594F82E30002BF7
:10B69C00ADD0D4E9003168469847A8E71B484FF471
:10B6AC00A471FFF747FF237B83B91A4F0FCF01AE6D
:10B6BC000FC63B68336094F83030002BD3D1C5F8FB
:10B6CC000032A360144BC5F80833C8E74FF400737D
:10B6DC00C5F8003240F20223A36003F1CE73C5F823
:10B6EC000833A368C5F804330123AB602B627EE7F3
:10B6FC00590701D50223BEE7DA0701D50323BAE7C0
:10B70C0094F82E30002BB6D00423B4E70030004060
:10B71C00242B0020302B002002029C0100E100E0D1
:10B72C002DE9F84F0679304D4FF0340A0AFB06FA32
:10B73C0005EB0A079B4697F82D3080460C46914640
:10B74C00002B4DD129490068FFF73AFE002849D15A
:10B75C002168637B87F8323001F5E0724FF0A0432B
:10B76C00B860C7F804B087F82F0087F8300040F2B3
:10B77C000C6745F80A9043F82270626802F5E07C89
:10B78C0043F82C70D8F80030C3F80815C3F80C2512
:10B79C00A268C3F82425B9F1000F14D0227B43F31F
:10B7AC00073152010029C3F30733D2B213DB104C1B
:10B7BC00671887F800230122490903F01F0302FAD6
:10B7CC0003F344F82130342303FB0655012385F899
:10B7DC002D30BDE8F88F074903F00F03CA54F2E788
:10B7EC000820F6E71120F4E7242B0020B1B5010066
:10B7FC0000E100E014ED00E0036802790621C3F8D3
:10B80C000015044B342101FB0233022283F82D2056
:10B81C00704700BF242B00202DE9F843DFF8C482C9
:10B82C0090F804900468342606FB0986002386F8F9
:10B83C002E30CB6803F06043B3F1005F0D46174622
:10B84C0003D010263046BDE8F883A74BC4F8083364
:10B85C0096F82F3023B1B368C4F804331126F1E7FE
:10B86C0012F0140F0CBF0123002386F82F308E46E4
:10B87C00BEE80F0006F10C0CACE80F00DEF800304F
:10B88C00CCF80030C7F3001386F8303037626B7891
:10B89C00C4F8883520464FF48271FFF74BFE4FF405
:10B8AC009271FFF747FE4FF4B071FFF743FE4FF470
:10B8BC00A471FFF73FFE17F0010318BF0123C4F872
:10B8CC00503517F0020318BF0123C4F840352B780C
:10B8DC00032B00F2B580DFE803F084A069022B692A
:10B8EC0003F06043B3F1005FABD14FF48073C4F845
:10B8FC000032EA686B68C4F844254FF4A871C4F8A8
:10B90C004835FFF717FE01232362A360D4F85031AA
:10B91C00002BFBD04FF4A8712046FFF70BFEAB6851
:10B92C002A69C4F84425C4F84835342303FB098339
:10B93C004FF480229A60082300263A0704D42A7810
:10B94C00032A1CBF0122E250342303FB09F308EB4A
:10B95C00030258F80330002B75D10125D4F8482187
:10B96C00D4F80431002B40F08980003A18BF012232
:10B97C00D4F82431002B00F088804FF492712046CB
:10B98C00FFF7D8FDD4F86011D4F8003209B198054E
:10B99C0004D4256265610029E0D00022D90574D554
:10B9AC004FF4A4712046FFF7C5FDD7E76B68EA6832
:10B9BC00C4F84425C4F848352B6903F06042B2F151
:10B9CC00005F7FF43EAFAA68C4F834354FF484535B
:10B9DC00C4F83825C4F80032342303FB098302224F
:10B9EC0012E06B68EA68C4F8442517F0200FC4F81D
:10B9FC0048354FF034030BD04FF48072C4F800225A
:10BA0C0003FB09834FF480229A600123236292E79F
:10BA1C004FF40072C4F80022DFE76B68EA68C4F8E0
:10BA2C003425C4F838354FF48053C4F8003234232D
:10BA3C0003FB098302229A600123236200237BE724
:10BA4C000823072679E77B0744BF002393607D0614
:10BA5C0006D4342303FB09839A6842F002029A60ED
:10BA6C00342303FB0988D8F8083043F40073C8F872
:10BA7C000830D8F80830C4F80433E3E64FF4827188
:10BA8C002046FFF757FD012272E7002A3FF466AF0C
:10BA9C003421D4F8C434C4F8C43401FB0982002026
:10BAAC0082F82F0093B113F0010F14BF4FF402462C
:10BABC00032648F2012213F0020F18BF164613F0AA
:10BACC00040F48F2022318BF1E46BBE67B063FF567
:10BADC00B9AE09FB01812046FFF734FD002808BFF1
:10BAEC000326AFE6242B002002029C0110B586B081
:10BAFC000024CDE902349DF820308DF80510A342C6
:10BB0C00CDE9042401A914BF202222468DF804405B
:10BB1C00FFF782FE06B010BD10B586B0012402936B
:10BB2C000023CDE903328DF805101A4601A98DF8D2
:10BB3C0004400593FFF770FE06B010BD0120FFF71F
:10BB4C0055BA000008B5074B1B783BB10020FFF736
:10BB5C0029FABDE808400220FFF724BABDE80840E6
:10BB6C00FFF72CBA582B0020F8B57A4C23780546F1
:10BB7C001BB100232370FFF7E5FF172D00F2878020
:10BB8C00DFE805F00C1717425364757F878C878CA0
:10BB9C00949999999999C3C8D0D8E3E3FFF7D2FF48
:10BBAC006D48FEF78EF96D4B002204461A70204644
:10BBBC00F8BD0020FFF7DCF9F0B10020FFF7F2F937
:10BBCC00022D0CBF4FF4E1644FF47A64634B1D708B
:10BBDC0000254FF400464FF47A7029464FF4FA6270
:10BBEC000023E4FB060102F09BFA2A460146BDE85D
:10BBFC00F8405948FEF74DB9FFF7C8F9022D0CBFB4
:10BC0C00C8244FF4C874E1E70020FFF7B1F940B144
:10BC1C000020FFF7C7F94FF44874504B03221A70F9
:10BC2C00D6E7FFF7B3F9C824F7E70020FFF7A0F930
:10BC3C0038B10020FFF7B6F94FF47A64474B042271
:10BC4C00EDE7FFF7A3F94FF4C874F7E70020FFF70F
:10BC5C008FF948B10020FFF7A5F9404B05221A7067
:10BC6C0040F6CD410022C2E7FFF790F9F5E700203E
:10BC7C00FFF7BCF9394B06221A70002240F26661BC
:10BC8C00B5E70020FFF782F9344B07221A70002425
:10BC9C008DE701202070FFF7A9F9EEE70120207055
:10BCAC00FFF7A4F900224FF40051A0E7FFF792F937
:10BCBC002A4B0C22EAE72A482A4EFEF702F9D5F164
:10BCCC00110504461CD0D8B9012D13D0C82045430A
:10BCDC0021464FF400474FF47A704FF4FA62002378
:10BCEC00C5FB070102F01CFA224601461C48FEF770
:10BCFC00D0F804460120FFF749F90123337056E7C9
:10BD0C000120FFF74FF90023F8E7FFF71BFF134B58
:10BD1C001222BBE7FFF716FF0020FFF737F90F4B96
:10BD2C001322B3E7FFF70EFF0120FFF72FF90B4BA0
:10BD3C001422ABE7FFF706FF0020FFF727F90120DD
:10BD4C00FFF724F9054B1522A0E7FFF743F9034B46
:10BD5C001D709CE7A42B0020802B0020A52B00201D
:10BD6C00602B0020582B0020044B1B68DB0703D5ED
:10BD7C00034B1878FFF7F8BE704700BFA02B0020CC
:10BD8C00A52B0020044B1B6813F0010301D0FFF717
:10BD9C00EBBE1846704700BFA02B002008B50B4B1C
:10BDAC00186010F001000FD00120FFF731F9084A9C
:10BDBC0008480021FEF762F830B9BDE80840064A91
:10BDCC0006480121FEF75AB808BD00BFA02B002081
:10BDDC0075BD0100F0F2010049BB0100ECF201005D
:10BDEC00072070470620704708B501220221002069
:10BDFC00FFF7F6FF08B1072810D107220221012016
:10BE0C00FFF7EEFF08B1072808D100210A220846E7
:10BE1C00FFF7E6FF10B1072808BF002008BD00009F
:10BE2C000388102B10B502D0112B1ED010BD1A4C4C
:10BE3C002168B1B901220846FFF7D2FF08B10728E3
:10BE4C0024D1072202210120FFF7CAFF08B10728DD
:10BE5C001CD1042202210020FFF7C2FF08B10728E1
:10BE6C0014D1236801332360E0E70B4A1368013BCC
:10BE7C001360002BDAD1FFF7B7FF0028D6D0074BA1
:10BE8C001B68002BD2D0BDE810401847034B1B6831
:10BE9C00002BE6D09847E4E7AC2B0020A82B002021
:10BEAC0008B50020FFF79EFF08B1062806D1012037
:10BEBC00FFF798FF10B1062808BF002008BD76DFF9
:10BECC0070477ADF70477CDF70477FDF70478FDF0A
:10BEDC007047B1DF704732DF704733DF70473FDFA9
:10BEEC007047037813B9828A934200D370470133A9
:10BEFC00FAE7FDF7D3BE08B50020FFF743FF08B102
:10BF0C00FDF7CCFEFFF7CCFF08B1FDF7C7FEFFF73E
:10BF1C00E4FF18B1BDE80840FDF7C0BE08BD000045
:10BF2C0013B50DF1060201A90DF1020000F020FB82
:10BF3C000E4CBDF90630BDF902204FF49671204627
:10BF4C00643B643293FBF1F3A1F5167192FBF1F2B1
:10BF5C00074902F0E0F9074A074B10801B88074895
:10BF6C00214601F093FE02B010BD00BFEC2C002066
:10BF7C00F4F20100D02B0020E0230020E423002069
:10BF8C000388212B13B5044649D007D8112B32D086
:10BF9C00132B52D0102B0CD002B010BD522B5AD0F8
:10BFAC00562B01D03B2BF7D1A0881321FFF787FF2D
:10BFBC004AE02D4B2D482E49C01AC008000440F011
:10BFCC000300FDF703FD0720FFF7DCFE08B1FDF7CA
:10BFDC0065FE284BA1882848198001F0DBFC08B1CC
:10BFEC00FDF75CFE254800224FF4A47102B0BDE8B9
:10BFFC001040FDF74EBF1C4B1C482149C01AC0080D
:10C00C00000440F00300FDF7E1FC1A4B1B484FF60F
:10C01C00FF721A8002B0BDE81040FDF752BF00233A
:10C02C0080888DF8043001A98DF80530FFF74FFF9B
:10C03C000028B1D0FDF732FEAEE70E480023008891
:10C04C001A468521FFF741FF0028A5D002B0BDE8B4
:10C05C001040FDF723BE074800231A4619460088F6
:10C06C00FFF737FFF0E700BF78EB010098EB01001A
:10C07C00FBF20100E0230020E02C0020B02B00207C
:10C08C0005F3010008B503784BB9054B3B21188823
:10C09C00FFF715FF18B1BDE80840FDF7FFBD08BD5F
:10C0AC00E0230020072808B513D00A280DD0042857
:10C0BC0019D10D4B13211888FFF701FF30F008033D
:10C0CC0011D0BDE80840FDF7E9BDBDE80840FFF719
:10C0DC0012BF054B1A884FF6FF739A4203D10348DF
:10C0EC0001F07DF8EAE708BDE0230020D42B002006
:10C0FC0008B548B103280BD10220FFF743FE38B135
:10C10C00BDE80840FDF7CABDBDE80840FFF7F3BE27
:10C11C0008BD00000C4B4A881B889A4212D10A8831
:10C12C0040F677239A420DD1084A09488B88094971
:10C13C00801A033BC0089BB200041A4640F003006F
:10C14C00FDF751BC704700BFE023002078EB0100E5
:10C15C0098EB010012F30100FDF7A0BD08B50849EA
:10C16C00084801F02EFB08B1FDF798FD0548F721B2
:10C17C0001F036FB18B1BDE80840FDF78FBD08BDD6
:10C18C0021C10100CC2C00201FB509220A23CDE9C6
:10C19C0000234FF0CC710223CDE9021300230C488D
:10C1AC001A466946FFF756F920B1FDF777FD05B041
:10C1BC005DF804FB0748FFF71FFB074B07480849CE
:10C1CC00C01AC008000440F00300FDF7FFFBEEE7C7
:10C1DC00C0F30100C4F3010078EB010098EB0100FF
:10C1EC002EF30100B0B586B002AF07F1100404E9DC
:10C1FC000F00BB8D03F108026946D208A1EBC20205
:10C20C00954697F824108DF80810B96A02AA0DF11A
:10C21C000900CC18A14214D100210091013397F8E8
:10C22C002010DBB2381DFFF761FC044608B1FDF7A6
:10C23C0035FDFDF781FA0028FBD120461037BD46AD
:10C24C00B0BD11F8015B00F8015BE3E730B587B0D6
:10C25C0006AC9DF8285004E90F009DF83830009387
:10C26C000BAA0123294603A8FFF740FC044620B182
:10C27C00FDF714FD204607B030BD9DF834300C9A04
:10C28C00294603A8FFF748FC0446F3E780B54FF4B2
:10C29C008041ACB00020FDF7FFF908B1FDF7FEFCC2
:10C2AC00FDF73AF9FDF7B8FD08B1FDF7F7FC7D4A4B
:10C2BC007D480121FDF7E2FD08B1FDF7EFFC7B495C
:10C2CC000120FFF76BFD08B1FDF7E8FCFEF710FC51
:10C2DC0008B1FDF7E3FC01F057FD08B1FDF7DEFCFA
:10C2EC00002301A90120019301F0E0FD08B1FDF745
:10C2FC00D5FC01A801F0A8FE08B1FDF7CFFC012088
:10C30C00FFF7E9FD08B1FDF7C9FC0120FFF7E7FDD8
:10C31C0008B1FDF7C3FC112365488DF8003002F01D
:10C32C009EF8634982B26846FFF7CDFD08B1FDF770
:10C33C00B5FC0822002101A802F03CF80623ADF858
:10C34C0004300C23ADF806300023ADF8083001A8FA
:10C35C004FF49673ADF80A30FFF7B3FD08B1FDF753
:10C36C009DFCFFF7FBFE534B5348019301A901F0D1
:10C37C00FFFA08B1FDF792FC00210422684602F096
:10C38C0019F84E4B4E480093694601F005FC08B174
:10C39C00FDF784FCAC22002101A802F00BF802236B
:10C3AC008DF804304FF4A063464AADF806300123F3
:10C3BC00ADF8503015928DF88030402244F2506325
:10C3CC00CDE923234048414B2A9301A900F05EFD9F
:10C3DC0008B1FDF763FC3C48012100F054FD1C2220
:10C3EC00002101A801F0E6FF00234FF4A032CDE9B3
:10C3FC000132ADF812304FF4F0228DF81430344B7A
:10C40C00039206930322334B8DF8102001A8079357
:10C41C0001F004F808B1FDF741FCFFF7B5FE2E4C16
:10C42C002E4B2F4FDFF8BC80E41AE408240444F0B0
:10C43C00030401250026012301AAE9B23846FFF7BF
:10C44C006BFB28B92A4641462046FDF7C3FA012664
:10C45C00FDF772F90028FBD10135802DEBD1BEB16F
:10C46C0000214FF47A72084600F0A8F81E492046C5
:10C47C00FDF7ACFA1448032100F07AFD08B1FDF782
:10C48C000DFCFDF759F90028FBD1FEF747FBF8E747
:10C49C0016492046FDF79AFAFDF74EF90028FBD114
:10C4AC00DEE700BF2DBF0100BCF30100B1C00100ED
:10C4BC0042F30100FFBE0100E02C0020EFBE0100A2
:10C4CC00E4230020DC230020D42B0020FDC001003D
:10C4DC0091C0010065C1010098EB010078EB0100EF
:10C4EC00C4F3010059F301007EF30100A7F301002E
:10C4FC0038B5054D044645F001054FF47A40A84780
:10C50C00013CFAD138BD00BF00F4010010B588B071
:10C51C0000228DF81F20049201220392104B0DF182
:10C52C001F02029275216822CDE900210FCBFFF783
:10C53C008DFE044608B1FDF7B1FB0A480A4B9DF885
:10C54C001F200A491B1ADB081B0443F00300FDF7EC
:10C55C0041FAFDF7F1F80028FBD160B208B010BD2C
:10C56C0008F4010078EB010098EB0100D0F3010016
:10C57C0070B50D4688B0012114460622CDE9032181
:10C58C000D4B06AA0646029243206822CDE90020F4
:10C59C000FCBFFF75BFE08B1FDF780FBBDF8183041
:10C5AC005BBA3380BDF81A305BBA2B80BDF81C30F7
:10C5BC005BBA238008B070BD08F401002DE9F04F80
:10C5CC008BB007460E460792FFF7A0FF002840F0FD
:10C5DC000181864C4FF001084FF0680909AD4FF00E
:10C5EC006B0A94E80F004FF0800BCDE9009ACDF860
:10C5FC000C8002958DF824B0FFF7F4FD4FF4FA701F
:10C60C00FFF776FFFFF782FF1A23CDE90093CDE900
:10C61C00025894E80F008DF824B0FFF7E3FD3220A8
:10C62C00FFF766FF0DF12703CDE901A3CDE90388E0
:10C63C0094E80F00CDF80090FFF708FE08B1FDF765
:10C64C002DFB6B4B6B499DF82720A3EB01094FEA9F
:10C65C00D9094FEA094949F0030942F00802664931
:10C66C008DF827204846FDF7B5F94FF001084FF03B
:10C67C00680A6B23CDE900A3CDE9025894E80F00BA
:10C68C008DF82480FFF7AEFD3220FFF731FF3F23FA
:10C69C008DF824306C23CDE900A3CDE9025894E841
:10C6AC000F00FFF79FFD3220FFF722FF00238DF8CC
:10C6BC0024306A23CDE900A3CDE9025894E80F0099
:10C6CC00FFF790FD3220FFF713FF1C23CDE900A3E9
:10C6DC00FF0094E80F00CDE902588DF82470FFF7A5
:10C6EC0081FD3220FFF704FF1B23CDE900A3F600E8
:10C6FC0094E80F00CDE902588DF82460FFF772FD25
:10C70C003220FFF7F5FE079A3C49042A38BF042271
:10C71C00B2F57A7F28BF4FF47A724FF47A77B7FB71
:10C72C00F2F7013FFFB2164648463A46FDF752F97A
:10C73C001923CDE900A3CDE9025894E80F008DF838
:10C74C002470FFF74FFD3220FFF7D2FEC6F34702ED
:10C75C00BB2A0BD8612A40D8292A41D8132A42D89F
:10C76C00092A8CBF4FF005084FF0060842462349B2
:10C77C004846FDF72FF968278DF824801A234FF0CF
:10C78C000108CDE90073CDE9025894E80F00FFF7DA
:10C79C0029FD3220FFF7ACFE38230026CDE90073CB
:10C7AC00CDE9025894E80F008DF82460FFF71AFDCC
:10C7BC003220FFF79DFE6C23CDE90073CDE90258C2
:10C7CC0094E80F008DF82460FFF70CFD3220FFF782
:10C7DC008FFE30460BB0BDE8F08F4FF00208C5E776
:10C7EC004FF00308C2E74FF00408BFE708F401005C
:10C7FC0098EB010078EB0100E1F30100ECF3010090
:10C80C000369C26893429CBF80681B18013B981A4D
:10C81C0070472DE9F843D0E902940546A9EB0408CA
:10C82C004068904520440F46144404D901F099FD0A
:10C83C00EC60BDE8F8834246A4EB090401F091FDDD
:10C84C006868224607EB0801F0E72DE9F843C56854
:10C85C000646894617464FF000083469B36870687D
:10C86C00A54228BFE418013C621B5C1BBC4228BFDC
:10C87C003C46944228BF144649462844224601F0BF
:10C88C0070FDB3682544AB4208BF00253F1BA04494
:10C89C00A144F560E1D14046BDE8F88310B5114CD8
:10C8AC00114AA2610223C4E90433104BE361A26470
:10C8BC004FF400730E4A0F492362E26400231022E6
:10C8CC00E01DA3626362E362A3656365E3652265B1
:10C8DC0001F0A3FD0849204601F09FFD2023A37120
:10C8EC0010BD00BF0C2D002018F40100942D002069
:10C8FC00842D002021F4010025F4010070B5164BA5
:10C90C00182400FB04451D4404FB00331646DC6A66
:10C91C00012C0ED0022C18D0E4B92846FFF770FF7A
:10C92C00864204D832462846FFF773FF3446204629
:10C93C0070BD2846FFF764FF8642344628BF044684
:10C94C0022462846FFF765FFF1E72846BDE8704010
:10C95C00FFF77BBF0024EAE70C2D0020FFF79EBFFA
:10C96C006DDF704779DF70477DDF704764DF70479C
:10C97C002DE9F04F85B000250E9CBDF83CB0B4F805
:10C98C0000A00191074690461E46A9463A884A45A2
:10C99C000DDC45B12388013BA3EB0A039BB2FF2BB3
:10C9AC003AD806F80A30002005B0BDE8F08F7A6856
:10C9BC0052F82900039000220DF10B0103A8FFF798
:10C9CC00D5FF0028F0D19DF80B20424521D12288BB
:10C9DC00002D14BF0020022002EB08010144594530
:10C9EC001ADC3DB9013292B2019B2280B3542288E9
:10C9FC000132228022880DF10B01324403A8FFF78B
:10CA0C00B5FF0028D0D121889DF80B200A44228044
:10CA1C00012509F10109B9E70C20C5E72DE9F3411E
:10CA2C00089FBDF824801546CDE900780222044603
:10CA3C001E46FFF79DFF50B933461022294620466B
:10CA4C00CDE9087802B0BDE8F041FFF791BF02B024
:10CA5C00BDE8F0812DE9F04F00231788138090F882
:10CA6C002D3085B006460D46144653B3082F01D819
:10CA7C000C2027E102A8FFF773FF002840F0228169
:10CA8C0023880822EA54238801339BB21B2223807B
:10CA9C00EA542088013080B2208006220DF1090171
:10CAAC00284401F05EFC23889DF8082006339BB2D5
:10CABC0012F0FE0218BF01222380EA5423880133AE
:10CACC002380B378FBB123880433BB42D0D802A8AF
:10CADC00FFF748FF002840F0F58023880322EA5432
:10CAEC00238801339BB219222380EA542388BDF892
:10CAFC00082001339BB2E9182380EA54120A4A70C9
:10CB0C00238802332380F2789AB12388D91CB94246
:10CB1C00AED80221E954238801339BB20121238032
:10CB2C00E95423880B449BB22380EA5423880B449A
:10CB3C0023807268AAB12388D91CB94298D80221E3
:10CB4C0092F90020E954238801339BB20A212380F7
:10CB5C00E954238801339BB22380EA5423880133A0
:10CB6C0023803389002B40F0A180338A5BB1CDE95F
:10CB7C0000472B460722032106F11000FFF74EFF5A
:10CB8C00002840F09F80338B5BB1CDE900472B46EA
:10CB9C001522142106F11800FFF740FF002840F081
:10CBAC009180326A002A40F09080D6F82480B8F147
:10CBBC00000F30D0B8F804302188981C8A1C02442D
:10CBCC00BA423FF655AFFE283FF652AF03336B54D3
:10CBDC00238801339BB2FF222380EA54238801333C
:10CBEC009BB22380B8F80020EA54E918120A4A7064
:10CBFC002088023080B22080B8F804205AB1D8F8CE
:10CC0C00081000296BD0284401F0ABFB2388B8F83E
:10CC1C0004201344238096F82C30002B40F098808D
:10CC2C00307800284ED03388012B58D0228802F15E
:10CC3C00020CBC453FF61CAF012805D173780233BA
:10CC4C0013449F42FFF414AF023FBF1ABFB202A9B4
:10CC5C0005EB0C00ADF80870FFF786FE90BB317841
:10CC6C00BDF80830022900F0B98072789A4202D3DC
:10CC7C009F4280F0B180012940F0B280974293B27C
:10CC8C00C0F0AE80ADF808300821BDF80830FE2B9E
:10CC9C003FF6EEAE22880133AB542288013292B2B9
:10CCAC002280A9542288134423800BE0CDE900474D
:10CCBC002B460622022106F10800FFF7AFFE0028E2
:10CCCC003FF453AF05B0BDE8F08FB4F800C00CF1E1
:10CCDC000603BB423FF6CCAE1188052901D80720CC
:10CCEC00F0E76FF4486E01EB0E039BB24FF27D3E02
:10CCFC007345F4D95388052BF1D96FF44860181893
:10CD0C0080B27045EBD94FF6FF70814201D0994249
:10CD1C00E5D8052305F80C30238801339BB212218A
:10CD2C002380E954238801339BB223801188E95472
:10CD3C00E818090A4170238802339BB22380528879
:10CD4C00EA54E918120A4A702388023323802CE72C
:10CD5C00B36A002BC3D04FF000084FF00C0A4FF011
:10CD6C00160BB16A5FFA88F20AFB02F201EB0209B8
:10CD7C00B9F80430981CFE283FF67AAE20880333AD
:10CD8C002B54238801339BB2238005F803B02388EE
:10CD9C0001339BB223808A5AEA54E918120A4A706A
:10CDAC002088023080B22080B9F804205AB1D9F81A
:10CDBC000810002993D0284401F0D3FA2388B9F83D
:10CDCC0004201344238096F82C2008F101085FFA04
:10CDDC0088F39A42C5D823E7092156E79F42FBD234
:10CDEC00ADF8087050E730B5C8B1F2B10024651C3D
:10CDFC008D4206DA1588A54212D805196D789D4228
:10CE0C000ED1A14211D9005D48B1013880B230B1C8
:10CE1C000234A3B210FA84F4A14206DB138030BDB5
:10CE2C00055D01352C44A4B2E1E70020F7E713B50A
:10CE3C0013460022ADF806200DF106020446FFF75A
:10CE4C00D2FF10B1BDF80600204402B010BD72DF55
:10CE5C00704773DF704774DF704738B501220446A2
:10CE6C000D46B0F8D810D0F8D400FFF7E0FF00B1B1
:10CE7C00057004F13C0204F1D40104F15400BDE846
:10CE8C003840FFF7E4BF80F830107047F8B504461F
:10CE9C000F46002968D0002866D091F87A301BB173
:10CEAC0091F89830002B61D1D7F8A030042B5DD0CD
:10CEBC00D7F89C30042B59D04FF0000C84F802C0EA
:10CECC0007F178060FCE251D0FC50FCE0FC596E8BE
:10CEDC00070085E8070084F830C0D7F8A4306363F6
:10CEEC00D7F8A830A3634FF6FF7504F1D403C4F848
:10CEFC00E430A4F8E8500722614604F1EA0001F09E
:10CF0C0059FA23780BB984F85450224604F1550190
:10CF1C001F25C4F8D410384622F8D85FFFF79AFDC5
:10CF2C0008BB224604F19301C4F8DC1007F13C0065
:10CF3C0022F8E05FFFF78EFDA8B9A369A4F848308A
:10CF4C004FF480730125A4F85030636920640146C6
:10CF5C0084F83C50636404F13C0204F15400FFF784
:10CF6C0076FF00B92570F8BD0E20FCE70720FAE724
:10CF7C00F8B5077804460D46002F00F0F98000F153
:10CF8C00EA06817007220021304601F013FAE3888B
:10CF9C0013B1A378012B04D0E3794BB1A378022B06
:10CFAC0006D1636BABB1012284F8F12008209847BD
:10CFBC0004F1EB0304F1F10113F8012B12B99942BE
:10CFCC00FAD117466B1E032B51D8DFE803F0050B83
:10CFDC000F1284F8F130EBE7A3791BB194F82430ED
:10CFEC0003B95FB9E3790BB1002F42D1237A002B3F
:10CFFC0041D1637A002B0CBF00250425636BA5700F
:10D00C00002B3AD0033D012D37D86279AAB394F89E
:10D01C00F22092BB84F8F420012284F8F32007203C
:10D02C00984704F13C0518220021284601F0C2F96A
:10D03C00E26A531E0121022B94F8243084F83C1030
:10D04C0028BF0A4684F8512033B1A36A5A1E022A1B
:10D05C0028BF0B4684F85230A278002384F8503055
:10D06C00042A1BD8DFE802F06C0D22325200002596
:10D07C00C4E70225C2E70325C0E7002384F8F33098
:10D08C00CFE7C4E91063C4F8E4300223012284F82A
:10D09C003C30802384F83120A4F84830A378002B4E
:10D0AC0051D1636B002B5FD100205CE0022384F82C
:10D0BC003130032384F83C302369A4F84830002332
:10D0CC00C4F8E430E36826646364E7E76369636487
:10D0DC00A369A4F848306379B3B194F8F2309BB9E2
:10D0EC0094F8F43083B1022384F8503004212046A4
:10D0FC00FFF7B3FE0028D1D1052384F8313004F1B9
:10D10C00D403C4F8E430C9E70323F6E7E3696364A6
:10D11C00236AA4F84830637983B194F8F2306BB980
:10D12C0094F8F43053B1022384F850300421204693
:10D13C00FFF793FE0028B1D10623DEE70423DCE7DA
:10D14C0084F83130AAE7D4F8E4102A4604F15400EC
:10D15C00FFF77DFE38B994F8301094F85400FFF7BF
:10D16C0078FE00289DD0F8BD94F8310098479BE7D5
:10D17C000820F8E70388112B10B50C460AD0262B93
:10D18C001FD0102B05D1C37B012B02D18388A1F8B2
:10D19C00E83010BD0022838881F8F220B1F8E82035
:10D1AC009A42F6D10B79002BF3D101212046FFF7DF
:10D1BC00DFFE0028EDD0A36B002BEAD0BDE81040B9
:10D1CC001847037A013B012BE3D8897805230131F9
:10D1DC00B1FBF3F303EB8303C91AC9B2E6E738B525
:10D1EC00044690F85400FFF736FE012384F8F23021
:10D1FC00002384F8F43084F8503006212046FFF7E1
:10D20C002CFE054638B9A1782046FFF7B1FE10B1C7
:10D21C00A36B03B19847284638BD75DF704776DF9E
:10D22C0070477ADF70477BDF70470000034B1A882A
:10D23C0082420CBF18460020704700BFB02F002060
:10D24C00024B9B6903B11847704700BF942F002015
:10D25C0073B585B22846FFF7E9FF044638B3174E7D
:10D26C00027A337B9A420CD200F10A012846FFF76E
:10D27C00D4FFF0B111281AD002B0BDE87040FFF70E
:10D28C00DFBF00230372337C43B13B212846FFF7F9
:10D29C00C6FF30F0080301D0FFF7D2FF736933B13A
:10D2AC0000228DF80420ADF8065001A8984702B072
:10D2BC0070BD237A01332372F9E700BF942F00204D
:10D2CC0013B50B46497A02460E4871B9D0E90110E4
:10D2DC001C7A002C18BF01465868FCF7DAFD78B1AF
:10D2EC0002B0BDE81040FFF7ABBF002119724369D3
:10D2FC0033B101218DF80410ADF8062001A8984730
:10D30C0002B010BD942F00204B8802889A4212D88C
:10D31C0042889A420FD380888B8840F2F31188425E
:10D32C0094BF021A421A9A4205D80844984234BF54
:10D33C000020012070470020704700000388122B4A
:10D34C0070B5014659D004D8102B1ED0112B44D0E7
:10D35C0070BD502BFCD12F4BC288DB899A42F7D180
:10D36C00038A022BF4D186883046FFF75FFF05460F
:10D37C000028EDD001F1120000F071F938BB68689B
:10D38C00FCF79FFD0028E3D009E0C37B012BDFD124
:10D39C004FF6FF70FFF74AFF054620B90420BDE8A1
:10D3AC007040FFF74DBF1C4A8E8806800023037225
:10D3BC001368C0F80A305368C0F80E3010310A30C8
:10D3CC00FFF7A2FF134B6872DB89002BC0D12946F3
:10D3DC003046BDE87040FFF773BF8088FFF726FF2B
:10D3EC0004460028B4D04068FCF76BFD08B1FFF789
:10D3FC0027FF4FF6FF732380AAE786883046FFF796
:10D40C0015FF05460028A3D008310A30FFF77CFF32
:10D41C006872DCE7942F0020C42F0020F8B5064674
:10D42C0048B305460FCD154F3C460FC495E8070091
:10D43C0084E807003068124C3C60B0B1FFF7F1FE95
:10D44C00C0B9326813682360536863600D480E4A94
:10D45C004FF6FF7303800D4B40F8043F0021FCF79F
:10D46C000DFD002818BF032004E02046FFF7DBFE6B
:10D47C000028EBD0F8BD0E20FCE700BF942F002055
:10D48C00C42F0020B02F00205DD20100D02F00202F
:10D49C000AB1FCF7E9BFFCF7F0BF73B50191019C31
:10D4AC0006466CB100252C46294601A8FCF7EFFF77
:10D4BC0018B106EB440301349D800135142DF3D1D2
:10D4CC003046346002B070BD2DE9F0430388848887
:10D4DC00103B8DB00A2B1ED8DFE803F006361D1D5D
:10D4EC001D1D1D1D1D5B3D002E4FBB68DB430093B6
:10D4FC0079686846FCF7F7FF009901A8FFF7CDFFA4
:10D50C000DF108080026019B9E4207D3132C12D95B
:10D51C000420FCF7C3FB0DB0BDE8F08338F8029B88
:10D52C0000250135494607EB8500FCF7A6FF1E2DAB
:10D53C00F7D10136E7E721461B48FCF795FF1B485E
:10D54C002146FCF791FFE6E7174821460DB0BDE8F0
:10D55C00F043FCF792BF027A15483F2A4FEA1215A6
:10D56C00214694BF00220122FFF792FF022D94BFA7
:10D57C00002201220F482146FFF78AFF012D0E4899
:10D58C0094BF0022012221460DB0BDE8F043FFF705
:10D59C007FBF037A002BBED1427A0548C2F3C0028A
:10D5AC002146F1E7F02F0020F82F0020F42F002067
:10D5BC0008300020043000200030002013280146E1
:10D5CC0002D80248FCF763BF00207047F42F0020FC
:10D5DC0010B50446FFF7F2FF002814BF20461420B4
:10D5EC0010BD70B50546164608460AB90E2070BD2A
:10D5FC0000231360002DF9D02B68002BF6D0EB889C
:10D60C0013F003040ED1FFF7E3FFC0B214280BD0C4
:10D61C002B7983420AD9EA882B6800FB02303060F0
:10D62C002046E4E70720E2E70520E0E70420DEE7F8
:10D63C00AADF7047002301380B70042806D8DFE8F6
:10D64C0000F00306080A0C0011230B70704721230D
:10D65C00FBE73123F9E71223F7E72223F5E70088EC
:10D66C0000F001007047F0B58B7891B0012B0C469F
:10D67C0038BF01238DF80E3005460B88ADF80C3001
:10D68C00002116466846032200F094FE607C694631
:10D69C00FFF7D0FFA07C0DF10101FFF7CBFFE27B80
:10D6AC00237B217D43EAC203227C43EA02139DF8CB
:10D6BC000220002922F0190203F0190314BF0221E1
:10D6CC000121134361F342031C22002109A88DF8A8
:10D6DC00023000F06FFE637B13F0300F15D002AFF9
:10D6EC0003220021384600F065FEE07C0DF10901B3
:10D6FC00FFF7A0FF11238DF808309DF80A300E9724
:10D70C00012262F342038DF80A30637B8DF82430DA
:10D71C001422A37B8DF82530002104A800F04AFECA
:10D72C0003AB0493A388ADF81C30A368CDF814D0D8
:10D73C001BB1E288ADF818200893A369002B31D0F7
:10D74C0001AF03220021384600F034FEA3691A8889
:10D75C00ADF82C205A88ADF82E205A680D97187BFE
:10D76C000A923946FFF766FFA3690DF10501587B54
:10D77C00FFF760FFA3699A7A197A41EAC201DA7A53
:10D78C009B7B41EA02119DF80620002B01F0190148
:10D79C0022F0190214BF02230123114363F3420147
:10D7AC008DF80610E36903B10C93334604AA09A95A
:10D7BC002846FFF73DFF11B0F0BDA5DF7047B5DF80
:10D7CC00704758B14FF0F7130360FB230371F72335
:10D7DC00C3801723C1608360002070470E20704700
:10D7EC0030B1A1F11703E02B04D801800020704761
:10D7FC000E2070470720704713B5034680880C46EF
:10D80C0090B91A883A2A68D010D8102A3DD0112A1B
:10D81C005ED0A37A43B1E1880020FFF7CEFF002849
:10D82C0076D14FF48073638102B010BD552AF0D1CC
:10D83C00DB88C988A072172B38BF17238B4228BFEF
:10D84C000B462381FFF7BBFF60B1FDF7D7F9394BCE
:10D85C003949024639481B1ADB081B0443F0010006
:10D86C00FCF7B8F8E27A002AD3D1E368002BD0D0C9
:10D87C0040F67721ADF802202289ADF80010ADF802
:10D88C000420694620469847C3E7DB7B012B04BF85
:10D89C000B88CB80C98823898B42BAD20020FFF732
:10D8AC008CFF10B90123E372B3E7112802D10123D5
:10D8BC00A372AEE7FDF7A2F91E4B214902461F48A1
:10D8CC001B1ADB081B0443F00100FCF783F8A0E7EC
:10D8DC00F723CB8017238B609BE75B89CA88934225
:10D8EC0028BF1346172BCA6838BF17230B8162B1A8
:10D8FC00C97A51B140F67721ADF80010ADF80200AD
:10D90C00ADF804306946204690470023638180E7D8
:10D91C00112889D0FDF772F9064B094902460748D0
:10D92C001B1ADB081B0443F0010002B0BDE81040D9
:10D93C00FCF750B8C0EB01005DF4010078EB01007E
:10D94C002CF40100B0DF704766DF704710B5002182
:10D95C0004464088FFF7F8FF034608B9237210BD50
:10D96C00112801D10123F9E76368BDE8104018477D
:10D97C0060B159B10378DE2B0AD00B684360DE230B
:10D98C0003704FF6FF734380002070470E207047E2
:10D99C000820704728B10378DE2B04D14180002089
:10D9AC0070470E20704708207047F0B5054685B0CB
:10D9BC000C46002942D0002840D00B78DE2B3DD1FC
:10D9CC0082884B889A4204D10B7A13B10846FFF730
:10D9DC00BDFF2B88112B33D0512B0FD0012B2DD108
:10D9EC002B7A012B2AD1A9886288914226D1204614
:10D9FC00237205B0BDE8F040FFF7A8BFAE8863887E
:10DA0C00B3421BD1AF79022F18D1AD7B2B1F022B48
:10DA1C0014D800211022684600F0CCFC052D18BF4C
:10DA2C004FF4C0736946304618BFADF804308DF81A
:10DA3C000070FFF787FF08B16368984705B0F0BD29
:10DA4C006388AA889A4204BF4FF6FF736380F5E798
:10DA5C00A8DF7047ADDF7047AEDF704762DF7047FD
:10DA6C0070B505468AB00C46002962D0002860D0FB
:10DA7C000388502B37D0572B72D0102B59D181885B
:10DA8C006069002601AA0196FFF7ABFD082231461A
:10DA9C000DEB020000F08EFC02232189A888CDF842
:10DAAC000CD002AA0293FFF7D5FF002841D1A3693D
:10DABC00002B3ED00398FFF7D2FD002839D0019BF4
:10DACC000BB101221A701822002104A800F072FC7C
:10DADC0002238DF81030AB88ADF81830019B0594FB
:10DAEC000793A36923E08188606902AAFFF779FD97
:10DAFC001822002104A800F05DFCAB882189ADF848
:10DB0C001830EB88029A05949942079218D12E8A04
:10DB1C00022E15D16AB105F11200FFF7A0FD029B90
:10DB2C0048B101221A708DF81060A3690BB104A8DA
:10DB3C0098470AB070BD187003238DF81030F4E7C5
:10DB4C00A2899A42F5D1A369002BF2D000228DF85C
:10DB5C00102005F1120208922A8AADF82420E6E77B
:10DB6C008188606902AAFFF73CFD01460028E0D1DC
:10DB7C00029B1B78002BDCD0A369002BD9D0182278
:10DB8C0004A800F017FC01238DF81030AB88ADF819
:10DB9C0018300594029BA3E7F0B53A4B8FB002AD59
:10DBAC0004460A4603F1100C2F46186859682E4695
:10DBBC0003C6083363453546F7D1002C5FD0002AE5
:10DBCC005DD01368A36121463846FFF747FF002854
:10DBDC0053D12246012512F8023B8DF8063001A9DB
:10DBEC002846ADF80450FFF733FF002845D1014615
:10DBFC00202206A800F0DEFB22460223ADF81830E6
:10DC0C0012F80C3B8DF81A30BDF824301E4E60888B
:10DC1C00079623F44F6323F00F0343F440632B4325
:10DC2C0006A9ADF824308DF829508DF82A50FFF74D
:10DC3C001AFD10BB0146202206A800F0BBFB2246B1
:10DC4C000323ADF8183012F8043B8DF81A30BDF8E8
:10DC5C0024306088079623F4875323F01F0343F482
:10DC6C0080532B43ADF8243006A940F201138DF8F4
:10DC7C002950ADF82A30FFF7F6FC0FB0F0BD0E209E
:10DC8C00FBE700BFA1F40100F4000100F0B50F4662
:10DC9C0087B016461C46054618B3406901AA1946BA
:10DCAC00FFF79FFCD8B94FF6FF739C421BD0019B2A
:10DCBC00CBB11B78CBB13388F42B18D8014610228A
:10DCCC0002A800F077FBAB88ADF8083002A901235D
:10DCDC002046CDE904678DF80A30FFF7BDFE07B08A
:10DCEC00F0BD0E20FBE70520F9E70820F7E7072039
:10DCFC00F5E710DF7047000013B504460949684684
:10DD0C00FCF721FF019808B902B010BDD0E9003131
:10DD1C002046984718B16846FCF71FFFF2E7112020
:10DD2C00F2E700BFC0F4010013B50446074968468A
:10DD3C00FCF709FF019B0BB902B010BD2046D3E9DB
:10DD4C00002190476846FCF708FFF3E7D8F4010080
:10DD5C000B4991F816335A09EC231341DB0706D50E
:10DD6C00084B9A683AB94FF480030B60704742F243
:10DD7C000200FBF793BF1A6842F480021A607047E6
:10DD8C0000E100E0742A0020F7B5194F3C7864BB21
:10DD9C00184E012520463570FFF7AEFF112821D013
:10DDAC002046FFF7C1FF144B8DF803401868019013
:10DDBC000DF10300FCF75AF9104901A8FFF799FF80
:10DDCC000446B0FA80F0400938709DF80300FCF767
:10DDDC0071F93CB90A4B34701C70FFF7B9FF284637
:10DDEC00FFF7A2FF204603B0F0BD0824FAE700BFFE
:10DDFC006D3000206C300020B9F40100C59C01008E
:10DE0C006E300020014B1878704700BF6D30002039
:10DE1C0007B508496846FCF796FE019B13B903B099
:10DE2C005DF804FBD3E9002090476846FCF795FEAB
:10DE3C00F3E700BFCCF40100FFF7EABF60DF7047E7
:10DE4C0069DF704761DF704730B5134DADF5017D6B
:10DE5C004FF4FA740DF1020103A8ADF80240FFF77C
:10DE6C00F1FF70B9294601A8FCF76DFE029B002B4F
:10DE7C00F0D003A8D3E90021904701A8FCF76DFE70
:10DE8C00F4E7052805D00DF5017DBDE83040FBF722
:10DE9C0005BF0DF5017D30BD60F70100024B1B780D
:10DEAC000BB1FFF7D1BF70476F30002030B505467E
:10DEBC0085B00C46002900F0B2805A4B0B600C2246
:10DECC00002101A800F076FA01238DF806302268B3
:10DEDC008DF80450062301A92020ADF80830FFF777
:10DEEC00AFFF60B1FCF78AFE4F4B504902465048D9
:10DEFC001B1ADB081B0443F00100FBF76BFD0C2223
:10DF0C00002101A800F056FA012322688DF8053093
:10DF1C0001A94020FFF794FF60B1FCF76FFE424B64
:10DF2C004449024642481B1ADB081B0443F001001B
:10DF3C00FBF750FD0C22002101A800F03BFAF7235F
:10DF4C0022688DF8045001A92320ADF80630FFF7A4
:10DF5C0077FF60B1FCF752FE334B37490246344829
:10DF6C001B1ADB081B0443F00100FBF733FD0C22EA
:10DF7C00002101A800F01EFA012022688DF804008F
:10DF8C0001A9FFF75DFF60B1FCF738FE264B2B496A
:10DF9C00024627481B1ADB081B0443F00100FBF761
:10DFAC0019FD0C22002101A800F004FA4FF4B06313
:10DFBC002268019301A9A120FFF742FF60B1FCF791
:10DFCC001DFE194B1E49024619481B1ADB081B047F
:10DFDC0043F00100FBF7FEFC0C22002101A800F02D
:10DFEC00E9F99DF8043022686FF3000301A9A02021
:10DFFC008DF80430FFF724FF034668B1FCF7FEFDF3
:10E00C00094B104902460A481B1ADB081B0443F053
:10E01C000100FBF7DFFC0023184605B030BD0E23D2
:10E02C00FAE700BFC8230020D0EB0100E4F40100A4
:10E03C0078EB01002AF5010076F50100BDF5010031
:10E04C0009F601005AF60100F8B506460768FFF715
:10E05C00F5FE3368BB4205461DD91948194C1A49BF
:10E06C00241AE408240444F002042046FBF7AEFC16
:10E07C00336816493A462046FBF7B5FC4FF08053FF
:10E08C003268D3F80C3112499B0203F100539A1AEF
:10E09C002046FBF79FFC25B90E4B01221A7028462F
:10E0AC00F8BD2846FCF7AAFD064B0B49024604486E
:10E0BC001B1ADB081B0443F00100FBF78BFCEEE79B
:10E0CC0078EB0100D0EB0100ADF60100DCF60100AD
:10E0DC000DF701006F30002037F701004BDF704760
:10E0EC001FB50E4C01A8FFF7F9FF70B9214602A825
:10E0FC00FCF729FD039B002BF4D00198D3E90021F8
:10E10C00904702A8FCF729FDF4E7052804D004B0D9
:10E11C00BDE81040FBF7C2BD04B010BD78F701009C
:10E12C0053EA020C61D02DE9F04BB3FA83F51E00D3
:10E13C0007BFB2FA82F502FA05F403FA05F41646A3
:10E14C00C5F120051EBF22FA05F73C43203556EADF
:10E15C00044C4FEA144418BF0134A3464FF0000995
:10E16C00C846904271EB030C39D3094207BFB0FA91
:10E17C0080F700FA07F6B1FA81F701FA07F6C7F152
:10E18C0020071EBF20FA07FC46EA0C062037B6FB18
:10E19C00FBFC7F1B103F07F01F04C4F120060CFA98
:10E1AC0004F42CFA06F644BF34460026202FA4BFF4
:10E1BC002646002454EA060C08BF012418EB040878
:10E1CC0049EB0609A4FB027CC01B06FB02CC04FB3A
:10E1DC0003CC71EB0C01904271EB030CC5D20B46D6
:10E1EC00024649464046BDE8F08BB2FBF3F2000014
:10E1FC007F2805D8034B185C034B5B5C18407047B9
:10E20C000020704790F7010010F80100A0F16103A5
:10E21C00192B98BF20387047A0F14103192B98BFD8
:10E22C00203070477F2805D8034B185C034B5B5C90
:10E23C00184070470020704790F7010010F801005B
:10E24C00A0F16103192B98BF20387047A0F141034E
:10E25C00192B98BF203070477F299ABF017001207D
:10E26C006FF02E0070475AB10A787F2A0AD800B195
:10E27C000260002119605960501A18BF01207047C4
:10E28C00002070476FF02E00704710B5044608460A
:10E29C00A2684AB12368616803F1010C8C4508BF80
:10E2AC0000208B4208D2D054E3682BB121686268FD
:10E2BC00914201D22146984723680133236010BD57
:10E2CC0070B54C1E09D41646C5B229463046FFF728
:10E2DC00DCFF013CB4F1FF3FF7D170BD10F0100F23
:10E2EC0008D108B510F4007F14BF30202020FFF7B0
:10E2FC00E7FF08BD7047000008B5034B5B689B68DF
:10E30C001B68984708BD00BF0824002008B50921E8
:10E31C00FFF7F2FF08BD0EB400B586B007AA52F89D
:10E32C00041B05920390002304936FF000430293A7
:10E33C0001A800F0C5F806B05DF804EB03B0704717
:10E34C00037853B159B10144034613F8012F12B1AC
:10E35C008B42FAD10B46181A70470346FBE703466B
:10E36C00F9E7844640EA010313F0030F18D1844601
:10E37C00202A0BD32DE9F007B1E8F807A0E8F8073D
:10E38C00A2F12002202AF7D2BDE8F007042A07D315
:10E39C0051F8043B40F8043BA2F10402042AF7D2E2
:10E3AC00002A05D011F8013B00F8013B013AF9D1E4
:10E3BC00604670478446002A2DD010F0030F04D01D
:10E3CC0000F8011B013A26D0F7E7C9B241EA012156
:10E3DC0041EA0141202A12D3A2F120022DE9F003D7
:10E3EC000B460C460D460E460F4688468946A0E85D
:10E3FC00FA03203AFBD2BDE8F00320320BD0042AFA
:10E40C0005D340F8041B043A05D0042AF9D200F8CD
:10E41C00011B013AFBD160467047024610F0030F16
:10E42C0016D111F0030F13D12DE9F0004FF0013785
:10E43C004FF0803351F8044BA4EB070525EA040593
:10E44C001D4002D142F8044BF4E7A1F10401F0BCE9
:10E45C0011F8013B02F8013B002BF9D1704700F198
:10E46C00010110F0030F11D010F8012B002A23D05A
:10E47C0010F0030F0AD010F8012B002A1CD010F05A
:10E48C00030F03D010F8012B002A15D02DE97000D2
:10E49C004FF001324FF0803350F8044BA4EB0205DF
:10E4AC0025EA04051D4000D1F6E7A0F1040070BC7C
:10E4BC0010F8012B002AFBD1A0EB010070470000E3
:10E4CC002DE9F04F89B007460392002303600C46F8
:10E4DC0014F8011B002900F0FD82DFF86CB2E6E2B3
:10E4EC00002507E05E2868D145F4805501E045F031
:10E4FC0040051C46234613F8010B3028F2D81F2880
:10E50C0037D9A0F12002102A33D801A151F822F0FA
:10E51C00FBE401007FE501007FE5010061E50100FE
:10E52C007FE501007FE501007FE5010067E5010063
:10E53C007FE501007FE501007FE501006DE501004D
:10E54C007FE5010073E501007FE501007FE5010037
:10E55C0079E5010045F08005CBE745F40045C8E7B7
:10E56C0045F02005C5E745F01005C2E745F40075F8
:10E57C00BFE72A2821D1039A111D0391D2F800A0DC
:10E58C00BAF1000FBCBFCAF1000A45F010051878AB
:10E59C00A31C2AEAEA7A2E2826D00021742847D018
:10E5AC007A2845D06C2800F0A8804C2800F0AB806D
:10E5BC00682800F0B8801C463DE0A0F13002D2B2D1
:10E5CC00092A88BF4FF0000AE3D84FF0000A0AEB83
:10E5DC008A0A303800EB4A0A13F8010BA0F130021A
:10E5EC00D2B2092AF3D9D4E718782A280AD1039A87
:10E5FC00111D03911168587802330029CEDB45F4C4
:10E60C008075CBE70133A0F13002D2B2092A88BF62
:10E61C000021F4D8002101EB8101303800EB4101DD
:10E62C0013F8010BA0F13002D2B2092AF3D9E4E7B6
:10E63C001C4614F8010B002800F05882A0F12503A9
:10E64C00DBB2532B62D8A0F12503532B5ED8DFE845
:10E65C0013F076005D005D005D005D005D005D0007
:10E66C005D005D005D005D005D005D005D005D00B6
:10E67C005D005D005D005D005D005D005D005D00A6
:10E68C005D005D005D005D005D005D005D005D0096
:10E69C005D005D005D005D005D005D005D005D0086
:10E6AC005D005D005D005D005D005D005D005D0076
:10E6BC005D005D005D005D00EF005D005D005D00D4
:10E6CC005D005D005D005D005D005D005D007F0034
:10E6DC0024015D005D005D005D0024015D005D00B6
:10E6EC005D005D0099001201D6005D005D00AA007E
:10E6FC005D001D015D005D00F1001C4614F8010B6E
:10E70C0045F0010597E745F001051C460F4B1E68C7
:10E71C00002E00F0C98103AB0193009153462A46A9
:10E72C003946B047C0E11878682803D05C1C45F026
:10E73C00040580E745F008059C1C58787BE72521EB
:10E74C003846FFF7A2FDAFE1CDCCCCCC7030002029
:10E75C00039B1A1D03921E780AF1FF3A3A46514662
:10E76C002846FFF7BBFD31463846FFF78EFDA9461C
:10E77C0019F0100F00F098813A4651462020FFF70F
:10E78C009FFD91E115F0080F06D03A68039B191D07
:10E79C0003911B681A7087E1039B1A1D03921B6877
:10E7AC003A681A6080E1039B1A1D0392D3F800802B
:10E7BC00C24BB8F1000F08BF9846464625F40079C5
:10E7CC0015F4807F16D04046FFF7BAFD0546AAEB3C
:10E7DC00050A3A4651464846FFF780FD002DC7D042
:10E7EC0016F8011B3846FFF750FDA8EB0603EB4269
:10E7FC00F6D1BDE74046FFF732FE0546E7E7039B3F
:10E80C001A1D03921B6815F0800F0CBF00262326DF
:10E81C0045F4807508211A46002B00F0218105ABC8
:10E82C004FF0000805F4005C60468C460146D3E0CE
:10E83C0045F4005515F0800F1BD043F2780643F2D7
:10E84C005803782818BF1E4615F4807F01D025F494
:10E85C00007515F4804F32D0039B1A1D03921B6870
:10E86C0015F0040F1FD01BB2002B20DA5B422D26B3
:10E87C002DE00026E8E715F0800F0CBF00263026AF
:10E88C0015F4807FE5D025F40075E2E715F4807F60
:10E89C0007D025F400750026DBE745F480450026FB
:10E8AC00D7E70026D5E715F0080FDDD0DBB215F061
:10E8BC00200F60D115F0400F18BF202607E0039BF6
:10E8CC001A1D03921B6815F0040F4FD09BB215F460
:10E8DC00807F14BF25F4007501215838202800F2E0
:10E8EC00A78001A252F820F023E801003DEA0100C4
:10E8FC003DEA01003DEA01003DEA01003DEA01006C
:10E90C003DEA01003DEA01003DEA01003DEA01005B
:10E91C003DEA01003DEA0100AFE901003DEA0100DA
:10E92C003DEA01003DEA01003DEA0100AFE90100CA
:10E93C003DEA01003DEA01003DEA01003DEA01002B
:10E94C003DEA010087E9010023E801003DEA0100EE
:10E95C003DEA01003DEA01003DEA0100AFE901009A
:10E96C003DEA01003DEA010023E8010015F0080F23
:10E97C00ADD0DBB2ABE72B26A9E71A464FF0000867
:10E98C00002B57D005A84FF0000803F007033033D5
:10E99C0000F8013B08F10108D2081346002AF4D113
:10E9AC0048E018464FF00008002B43D04FF0000809
:10E9BC0005F4004E4FF02C0973468E46194628E09C
:10E9CC0002F00F00DFF8F8E01EF8000003F8010B6E
:10E9DC0008F10108120908D00029F1D002F00F004B
:10E9EC00DFF8E0E01EF80000F0E7614622E008AB3B
:10E9FC0003EB080CABFB0032D20802EB8203A0EB5A
:10EA0C00430330330CF80C3C08F1010809280DD9EC
:10EA1C0010460029EBD008F00303032BE7D108AB19
:10EA2C00434403F80C9C08F10108E0E7714601E04F
:10EA3C004FF00008A1EB080121EAE179AAEB090AE1
:10EA4C00AAEB080AFF2E0ED9AAF1020AC6F3072177
:10EA5C003846FFF71AFCF1B23846FFF716FC04E013
:10EA6C004FF00008E6E7002E43D13A4651462846BF
:10EA7C00FFF734FC3A4649463020FFF721FCB8F149
:10EA8C00000F0EDD0DF1140908F1FF38C84498F899
:10EA9C00001046463846FFF7F8FBC14508F1FF3831
:10EAAC00F5D115F0100F0FD114F8011B91B12529D8
:10EABC003FF416AD3846FFF7E8FBF5E7E4F9010043
:10EACC00C4F90100D4F901003A4651462020FFF761
