:020000022000DC
:10800000006000208D830200458302004783020048
:10801000498302004B8302004D83020000000000F0
:1080200000000000000000000000000005D2020077
:1080300051830200000000005383020055830200B8
:1080400057830200578302005783020057830200C0
:10805000578302000000000057830200578302008C
:1080600057830200578302005783020057830200A0
:108070005783020057830200578302005783020090
:1080800089B402004DB102005783020057830200F9
:1080900057830200578302000DD402005783020069
:1080A0005783020057830200000000000000000018
:1080B0005783020057830200000000000000000008
:1080C00000000000000000000000000000000000B0
:1080D00000000000000000000000000000000000A0
:1080E0000000000000000000000000000000000090
:1080F0000000000000000000000000000000000080
:10810000000000000000000000000000000000006F
:10811000000000000000000000000000000000005F
:10812000000000000000000000000000000000004F
:10813000000000000000000000000000000000003F
:10814000000000000000000000000000000000002F
:10815000000000000000000000000000000000001F
:10816000000000000000000000000000000000000F
:1081700000000000000000000000000000000000FF
:1081800000000000000000000000000000000000EF
:1081900000000000000000000000000000000000DF
:1081A00000000000000000000000000000000000CF
:1081B00000000000000000000000000000000000BF
:1081C00000000000000000000000000000000000AF
:1081D000000000000000000000000000000000009F
:1081E000000000000000000000000000000000008F
:1081F000000000000000000000000000000000007F
:10820000314932480A1A02D0072291438D4630493B
:1082100030480A1A06D00722914381F309880222C6
:1082200082F314882C482D492D4A00F03CF82D4843
:108230002D492E4A00F037F82D482E492E4A00F0DD
:1082400032F82E482E492F4A00F02DF82E482F499B
:108250002F4A00F028F82F482F49304A00F023F821
:108260002F483049304A00F01EF83048304900228B
:1082700000F024F82F483049002200F01FF82F4A60
:1082800090471F481F49884205D00268043003B454
:10829000904703BCF7E700208646EC46002000210B
:1082A000274A9047FEE7884207D0521A05D0037844
:1082B00001300B700131013AF9D17047884202D088
:1082C00002700130FAE7704700600020005800207B
:1082D0000060002000600020F0DB0200DC220020B3
:1082E00014230020D4830200D4830200B8D60200F5
:1082F000F0DB0200DC220020DC22002024D7020078
:1083000024D7020024D7020024D7020024D7020079
:1083100024D7020024D7020024D70200F0DB020099
:1083200028DC020014230020142300201423002042
:10833000C4480020C4480020C4480020A383020091
:10834000459D0200FEE7FEE7FEE7FEE7FEE7FEE7EB
:10835000FEE7FEE7FEE7FEE709480068094909680D
:108360000A280AD1002908D1074802686FF0700373
:108370001A404FF040031A43026000F009B80000B1
:108380003001001034010010E40E0040FFF7E4BF9C
:108390000B484FF00701884385460A488047FFF79E
:1083A0002FBF094809490A4A884207D0521A05D006
:1083B000037801300B700131013AF9D170470000A8
:1083C0000060002095B5020010D70200C8220020EE
:0483D000DC2200208B
:1083D4004B1C30B5DB00044612F003009BB20DD1F8
:1083E400074D2A601A44074B1A60074B1870074B55
:1083F4001870074B1C80074B198030BD0720FCE721
:108404001C230020182300201423002024230020F0
:1084140020230020222300202DE9F743DFF8A88041
:10842400B8F800308B4206460D46174647D3002461
:108434000DF107008DF8074000F080F8234B244A23
:1084440024481B78008892F800C084455FFA8CF1B8
:1084540038BF4C1CDBB238BFE4B2A34228D0147836
:108464001178CBB2884286BF0133DBB2002313708C
:108474009DF8070000F086F84FF6FF739C4220D069
:10848400154B1B6843F8347003EBC4099EB195B1D6
:10849400124BB8F800001B682A46314604FB003032
:1084A40005F0ACF8A9F80450002003B0BDE8F0834F
:1084B4004FF6FF74DCE70020A9F80400F5E7092073
:1084C400F3E70420F1E700BF202300202423002049
:1084D40014230020222300201C2300201823002022
:1084E40070B5104C104D22782B789A4200D170BD93
:1084F4000E480F4A2378126806880E4802EBC3011F
:10850400006852F83320898803FB060090470A4923
:1085140022780988D3B2914286BF0133DBB20023AB
:108524002370E0E7242300201423002020230020CC
:108534001C230020182300202223002070B5EFF311
:10854400108672B60C4A946801239CB993600B4B55
:108554000B4DD3F8801029401160C3F88050D3F834
:10856400841051604FF0FF32C3F88420047006B9C0
:1085740062B670BD0370FAE72823002000E100E032
:10858400FC06FFBD084B9A6810B55AB150B9EFF319
:10859400108172B6054A1C6814605C685460986067
:1085A40001B962B610BD00BF2823002000E100E03D
:1085B40030B53AB11368DB430A4D0144814204D11A
:1085C400D84330BD4FF0FF33F6E710F8012B53408A
:1085D400082213F0010418BF2C46013A84EA53031D
:1085E400F7D1EBE72083B8ED30B5054659B1B2FBBE
:1085F400F3F403FB1424A0B238B9C5E90010A86051
:10860400AA81EB8130BD0E20FCE70920FAE782B095
:1086140050E8022FC188B2EB324F4FF0000317BF6E
:1086240092B241EA014142EA014104E04268B2EBFC
:10863400324F08BF012340E80212002AE8D18DF826
:1086440007309DF80730002B0CBF1120002002B02A
:10865400704737B550E8013F9DB2C48925448489E9
:10866400A54228BF2D1B0489A54202BFBFF32F8F4B
:10867400002207E0C5EA030540E80154002CE9D1D3
:108684004FF001028DF803200193019A0A609DF8CE
:10869400031001F0FF0321B1006810FA82F003B067
:1086A40030BD1846FBE70A884B889A4209D150E846
:1086B400012FC2EA024240E80123002BF7D1012036
:1086C40070470020704737B550E8023F1FFAA3F502
:1086D400C488A54202BFBFF32F8F00220DE0C489D6
:1086E40025448489A54228BF2D1BC3EA054540E8DB
:1086F4000254002CE8D14FF001028DF803200193BD
:10870400019A0A609DF8031001F0FF0321B100688B
:1087140000EB124003B030BD1846FBE70A884B88D3
:108724009A4209D150E8022FC2EA224240E80223C9
:10873400002BF7D1012070470020704710B5034685
:1087440053E8000F40EA010243E8002494F0000FCC
:10875400F6D110BD10B5034653E8002F02EA01001C
:1087640043E8000494F0000FF6D110BD0121FFF797
:10877400E5BF0021FFF7EEBF10B590B1D0E90123AA
:1087840001689B1ADBB20A60013BDBB2FF2B026873
:1087940002D10020107110BD11684C1C14600B70C4
:1087A400F2E70E20F7E737B5054600240DF1070080
:1087B4008DF80740FFF7C2FE2A686B68116899427A
:1087C4000ED9481E106011F8013CEC68298A01FB9F
:1087D4000344AB6811791B1ADBB2994238BF137199
:1087E4009DF80700FFF7CEFE204603B030BD37B535
:1087F400054600230DF107000C468DF80730FFF7FE
:108804009DFE2A681368591C1160E968641A298A54
:10881400B4FBF1F41C709DF80700FFF7B3FE03B03E
:1088240030BD0B6801601146184710B40468E46851
:10883400A44610BC604710B404682469A44610BC64
:108844006047000070B550B90E4D0F4C0026641BF4
:108854001423B4FBF3F4B44208D1002010E00368FD
:10886400002BF1D0BDE87040DB6918472B6813B9C1
:1088740001361435EFE7DB69284698470028F7D01E
:1088840070BD00BFC8220020DC220020014B4360E1
:108894000020704724D70200084670470020704724
:1088A400024B1868003818BF012070473423002099
:1088B40008B50248FFF75DFF002008BD34230020FF
:1088C40008B510461A4604F099FE002008BD0000C1
:1088D4002DE9F041804686B011480F4616461D46E4
:1088E400FFF744FF0446C8B9AA083146384601F0E8
:1088F400BBF80B48FFF73DFFD8F8083053B101220D
:108904008DF800200C9A0592CDE90147CDE9036565
:1089140068469847204606B0BDE8F0811124F9E77F
:10892400342300202DE9F043814687B014480E46D5
:1089340015469846FFF71AFF0446F0B90746BD42AC
:1089440015D10F48FFF715FFD9F808305BB10222A3
:108954008DF800200022CDE90126CDE90325CDF8CC
:10896400148068469847204607B0BDE8F08306EBBC
:10897400073001F04BF80137E1E71124F3E700BFBA
:108984003423002029DF704728DF704770B503685F
:108994009E6886B004460D466EB1142200216846D6
:1089A40004F055FEA3680593237901952BB1012B9F
:1089B4000DD06846B04706B070BD01238DF8003075
:1089C40023690293E368039363690493F1E7022341
:1089D4008DF80030E3681B030293F5E708467047FF
:1089E40000207047024B187A003818BF01207047E6
:1089F40024250020034B187A0122B0FA80F05A741F
:108A0400400970472425002008B510461A4604F092
:108A1400F5FD002008BD000008B51422002104481B
:108A240004F015FE0348FFF7F2FD002008BD00BF67
:108A3400242500201425002010B5094C094B43605F
:108A44002046FFF793FE48B904F0C4FC064920749D
:108A54001C2306484FF4EE72FFF7C6FD002010BD3C
:108A64002425002050D7020038230020142500209C
:108A740038B5224D224C2B7A3BB922492248FFF7C4
:108A840022FE206008B9686038BD022324682B7276
:108A9400237973B1012B22D020460321FFF776FFFF
:108AA40000232B726B6017491748BDE83840FFF765
:108AB40035BED4E90523D21A142AD4E9031028BFF9
:108AC40014229208012A38BF012219441844FFF7DE
:108AD40059FF50B11128DFD101232B72D4E7D4E917
:108AE40003031844FFF750FFF3E72B7C002BCBD193
:108AF400BDE83840022000F009B800BF242500205A
:108B04003C250020382500201425002038B5224CAF
:108B1400237A002B3FD0022B09D103282ED01F4BE0
:108B240000221B68E2601A793AB1012A20D0637CE2
:108B34006BBBBDE83840FFF79BBFD3E905128D1A24
:108B4400142D94BF521914329A619142EFD1022824
:108B54004FF0000308BF19462372104B18BF0D21B4
:108B64001868FFF713FF0E490E48FFF7D7FDDEE73D
:108B74001A6901321A615B699A42E7E7E3680133D3
:108B8400082B01D8E360D2E70023E360DFE7BDE808
:108B9400384004F00FBC38BD242500203C250020BB
:108BA4003825002014250020831E012B01D8FFF74F
:108BB400ADBF704700F0FD03012B08D1044B002228
:108BC4005A74421E504250411874FFF751BF704707
:108BD4002425002010B5064C201DFFF7C7FD28B939
:108BE400637C1BB9BDE81040FFF742BF10BD00BF56
:108BF400242500202DE9F34180460D46104801A9A3
:108C040016461F46FFF725FD0446B0B11822002181
:108C1400043004F01CFD2D0B0123237101A9084825
:108C2400C4F80080A760E5606661FFF73CFDFFF7CC
:108C3400D1FF002002B0BDE8F0810420FAE700BFB4
:108C4400142500202DE9F34180460F460F4801A961
:108C540016461D46FFF7FDFC0446A8B11822002164
:108C6400043004F0F4FC089BA36001A9C4E9036781
:108C74000648C4F800806561FFF715FDFFF7AAFFF9
:108C8400002002B0BDE8F0810420FAE7142500209A
:108C94000B684A684360934208BF0023016008BF21
:108CA40043607047436843B10268916852680B445B
:108CB4009342436004BF0023436070472DE9F04FA3
:108CC400CBB00AAA01F1400514464B780E781B0478
:108CD40043EA0663CE7833438E78043143EA0623AD
:108CE4008D4244F8043BF0D11024916B16464FEAB0
:108CF400F14383EA714383EA9123716A366852F837
:108D0400045F31440B444FEAB54181EAF51181EA2D
:108D1400D50101340B44402CD363E6D1D0E914E3EC
:108D24000193836D0293C36D0393036E0493436EA7
:108D34000593836E0693C36E0793DDE9067BDDE935
:108D4400041CDDE902592C4B019E089374464FF034
:108D54000008089B0DF1280A53F8042B5AF828A0A0
:108D640008934FEAF12383EAB113524483EA71630F
:108D74001344CDF824A001EA0C0227EA010A8AEA86
:108D840002021A444FEA743A86EA05035A4423401D
:108D94008AEAB40A06EA050B83EA0B0B8AEAB45A98
:108DA40008F10108DA44B8F1400F02EB0903BB46AD
:108DB4005244A94619D172440265019A224442657B
:108DC400029A32448265039A2A44C265049A1A4478
:108DD400059B02660B444366069B63448366079BBC
:108DE4003B44C3664BB0BDE8F08F674635468C46BE
:108DF400264619461446ACE77CD7020030B5E0B1EC
:108E04000F4A104900240025C0E91245C0E9141294
:108E14000D4C0E4A0E4DC0E916420E4AC0E91852D6
:108E24000D4A826602F17452A2F523020023A2F6CF
:108E340092420364C266184630BD0E20FCE700BFB0
:108E440085AE67BB67E6096A72F36E3C3AF54FA5D7
:108E54007F520E518C68059BABD9831F70B50C46AD
:108E6400E8B1D2B900201BE0A5180026AC42F9D025
:108E7400036C14F8012BC2540133402B0364F5D165
:108E84000146FFF71BFFD0E9123213F5007342F1DC
:108E94000002C0E912320664E8E70029E4D10E209A
:108EA40070BD70B50D4616460446002876D00029DC
:108EB40074D0036C8022591C372BE25408443FD8E9
:108EC400C3F13702002104F0C2FBD4E91223216C60
:108ED4000820E1FB0023C4E9122312BAE26323FA57
:108EE40000F284F83B3084F83A201A0C1B0E214619
:108EF40084F8392084F838302046FFF7DFFE691EF5
:108F04006EB30023E26EDA4001F8012FA26EDA405C
:108F14000A71626EDA400A72226EDA400A73E26DF6
:108F2400DA400A74A26DDA400A75626DDA400A7694
:108F3400226DDA400833202B0A77E3D1002070BD7C
:108F44004029C3F13F024FF0000188BF002204F022
:108F54007EFB21462046FFF7B1FE3822B2E71823F4
:108F6400226DDA4001F8012F626DDA400A71A26DB8
:108F7400DA400A72E26DDA400A73226EDA400A7449
:108F8400626EDA400A75A26EDA400A76E26EDA4060
:108F9400083B13F1080F0A77E2D1CFE70E20CEE7A2
:108FA40043689B68184708B5436808305A7900F04D
:108FB40078FE002008BD2DE9F0430C469BB008461E
:108FC40098461746FFF7ECFFD4F8049099F805503B
:108FD400454528BF454606462A46394602A800F0BC
:108FE40055FE99F8052022990AA800F05AFE009629
:108FF4000AAB2A4602A904F1080001F02DFD00285D
:1090040048F2425018BF00201BB0BDE8F083002393
:10901400C0E902328B881A44B1F9063002611A445D
:10902400C0E9001142610888003818BF0120704768
:109034004268118838B50346002937D0148A02F1F2
:10904400100141602CB9C2680168FFF7E0FF2046B7
:1090540038BD9078118900F03005302D14D1947CFE
:1090640004F03004302C1BD190881969091A196155
:109074000021908AB2F91620084419690144196143
:10908400114459610120E3E700F0F004202C07D1DA
:1090940050894143002DECD1986801309860E8E78D
:1090A40000F0C000802808BF0421F3E70846CFE79A
:1090B40070B5466804460D4663681A88AA4204D10E
:1090C4009B7803F00F03082B07D12046FFF7B0FF6E
:1090D4006368B342F0D1002070BD0120FCE743680F
:1090E4001A44426011B101399A4201D101207047FA
:1090F40013F8010B01F8010FF6E770B54568AA787B
:1091040002F00F06082E86B003461FD103691C68BF
:1091140000260CB906B070BD236862689D6826738A
:1091240029466846FFF773FF6368049304F10C0350
:109134000593AB7803F0C003802B08BF231D68465A
:1091440008BF0493FFF7D9FFA468E2E712F0C00157
:1091540022D102F0300010280CD15A691170072E68
:10916400EC6818690BD10146204606B0BDE8704092
:1091740000F01AB89006F2D55B691980CAE72A890B
:10918400214624B106B0BDE8704004F037BA06B0F9
:10919400BDE8704004F05BBA8029BBD100690021AE
:1091A40092060160B6D5E7E77FB50A4601466846F0
:1091B400FFF72DFF30B16846FFF79FFF6846FFF7C2
:1091C40037FFF7E707B05DF804FB836810B5044682
:1091D4000BB9002010BD0368012298470028F8D07D
:1091E400A368013BA360F5E72DE9F3410F460DF1B8
:1091F40007018046FFF7E9FF054620B90025284608
:1092040002B0BDE8F0819DF907309DF80740002BBE
:1092140013DA04F07F0407260DF107014046FFF737
:10922400D4FF0028EAD09DF8072002F07F03B34062
:109234001C43130606F1070601D43C60DFE7232E26
:10924400EAD1DBE730B5044685B01546A9B9026812
:10925400114B9A4211D0102D06D82A466946204651
:10926400FFF7F0FF05B030BD102269462046FFF736
:10927400E9FF0028F6D0103DEDE7A368AB4201D228
:109284000020EFE723682A46204698470028F7D0B5
:10929400A268521BA260E5E7E3900200F7B50E4610
:1092A40001A907461546FFF79FFFA0B1019A511C7B
:1092B4004FF0000404D2B37803F0C003802B01D133
:1092C400204608E033898B42FAD329463846FFF713
:1092D400B9FF019BEC5403B0F0BD73B50D4601A971
:1092E40006461446FFF780FF98B1019AB2F5803F15
:1092F40011D2AB7803F0C003802B02F102010AD033
:109304002B898B4207D32146304621F8022BFFF7E5
:1093140099FF02B070BD0020FBE7000010B5034CBC
:1093240082600022C0E90041C26010BDE3900200E7
:109334002DE9F341002580460E462F462C460DF1BB
:1093440007014046FFF741FFC0B19DF807C0A4F1F3
:1093540020030CF07F02C4F1200102FA03F322FA85
:1093640001F10B43A2401CF0800F45EA020547EAD5
:10937400030704F1070404D1C6E9005702B0BDE8AD
:10938400F081462CDBD10020F8E737B50D4669465D
:109394001446FFF7CDFF70B12B89082B0DD1DDE901
:1093A4000032C4E90032DDE90001914208BF98426D
:1093B4000CBF0120002003B030BD042B03D1009B5F
:1093C40023600022EFE7022B03D1009B23809BB292
:1093D400F7E7012B04D1009B237003F0FF03F0E7B0
:1093E4000020E8E737B50D4669461446FFF7A0FFAD
:1093F40030B12B89082BDDE9001203D1C4E9001236
:1094040003B030BD042B4FEAE17009D121600B4653
:109414000246824208BF8B420CBF01200020EFE7C6
:10942400022B03D10BB22380DA17F2E7012B02D10E
:109434004BB22370F8E70020E2E7F7B51F4600239C
:109444003B700D460B70136001A904461646FFF7E6
:10945400CBFE30B9A36813B901233B70002003B0DD
:10946400F0BD019C002CF7D0E30804F0070433603E
:109474002C70F4E713B50446052925D8DFE801F07C
:10948400030F17242422012201A92046FFF7DAFE44
:1094940018B19DF90430002BF5DB02B010BD082291
:1094A4000021204602B0BDE81040FFF7CBBE01A961
:1094B400FFF79AFE0028F0D0019A00212046FFF71A
:1094C400C1FEEAE70422EBE70020E6E773B50D46A8
:1094D40001A90446FFF788FE064618B9002630465F
:1094E40002B070BD94E80F0085E80F0001998A422C
:1094F400F4D3A960A3685B1AA360F0E72DE9F043F5
:109504005668B37813F0C00489B007468C461546F4
:1095140003D0402C69D000240CE003F00F02604912
:1095240003F03003202B51F8228025D006D8E3B174
:10953400102B17D0204609B0BDE8F083302BF9D1A9
:109544006B6931881980072A09D121463289286933
:1095540004F07DF86B682969D868FFF725FE2A694D
:10956400696840E06B6901221A702A6931464346F2
:1095740009B0BDE8F0431847BCF1020FD5F81490C8
:1095840024D1042A22D804A9FFF7A0FF0446002806
:10959400C1D0069B2BB16968B9F800304A899A4258
:1095A40005D8059B7B60069B002BC3D0B3E70889D5
:1095B4002A6903FB002204A8C04728B1B9F8003087
:1095C4000133A9F80030E4E70446EAE7B9F80030CB
:1095D40072899A429FD931892A69581C03FB012256
:1095E400A9F8000031463846C1E7D2F81080464653
:1095F40056F8043B23B909B0BDE8F043FFF73ABF7E
:10960400022914D104A9FFF761FF002883D0D8F8F8
:1096140000306968324604A89847044600283FF49D
:109624007AAF069B002BF2D1059B7B6082E7012970
:1096340026D005292CD000297FF46DAF0C460DF1FE
:10964400040901340B2C3FF466AF01224946384625
:10965400FFF7F8FD00283FF45EAF19F9013B002B3A
:10966400EFDB104B049301ABCDE9053400230793E2
:109674006968D8F80030324604A89847044659E788
:10968400082201A9FFF7DEFD08240028E9D142E7FA
:1096940004220DEB0201FFF7D5FD0424F5E700BF1A
:1096A40088D80200E39002002DE9F04F91B00446FF
:1096B400002604A8CDE90266FFF7A9FCA3683BBB1A
:1096C400DDE9053404A89D78FFF7B2FC0028F7D142
:1096D40015F0300F03D1059B1B8803B10134002C16
:1096E40000F0A980630902A90022934240F09C8003
:1096F40010AA02EB830304F01F0453F8383CC4F1AE
:1097040020044FF0FF30E040C31A584258410DE0A6
:109714000DF1030301AA0DF102012046FFF78DFEAE
:1097240038B99DF80330002BCAD1002011B0BDE830
:10973400F08F019904A8FFF7BBFC002850D1019BCE
:10974400B3427DD3059D059A937803F00F03082B4C
:109754007FD004A8FFF76CFC059B9D42F3D14FF02A
:10976400FF36019FB7426BD3089B9DF80290D4F853
:1097740008801D684FF0010AA368002D5DD098454C
:109784009CD12B68D3F800B0BBF1000F08D04B4636
:109794003A4629462046D8470028C6D0AD68EBE7AC
:1097A400D3F808B0BBF800309F42F7D16A68594635
:1097B4000AA8FFF72CFC6B680E9305F10C030F93BA
:1097C4009BF8023003F0C003802B04BF2B1D0E93C3
:1097D4000AAA85F80CA049462046FFF78FFEDBE76E
:1097E400059B9B7813F0300F0FD1069A3F2A0CD8B3
:1097F400510910AB03EB810102F01F0201239340D6
:1098040051F8382C134341F8383CE5682DB19DF8E4
:109814000220019904AB2046A8479DF8021004AA2F
:109824002046FFF76BFE10E051F8045B01357FF42E
:109834007DAF013259E7012078E798457FF43EAFC8
:109844009DF802102046FFF715FE00287FF436AF7E
:109854006BE7168885E770B50C4606461546114633
:109864002046FFF7A1FC2A4621463046BDE8704059
:10987400FFF71ABFF0B585B0CF680C4669460546B8
:109884001646FFF723FE68B1E06858B1A37803F0E9
:109894003003202B32463946684605D1FFF7DBFFFB
:1098A400019B6B6005B0F0BDFFF7FEFEF8E713B552
:1098B4000C466946FFF73CFD60B1DDE900134A0838
:1098C40042EAC372C9074FEA530344BFD243DB439E
:1098D400C4E9002302B010BD37B50D4669461446ED
:1098E400FFF7E5FF70B12B89082B0DD1DDE90032BC
:1098F400C4E90032DDE90001914208BF98420CBF7F
:109904000120002003B030BD042B03D1009B236051
:10991400DA17EFE7022B03D1BDF900302380F7E714
:10992400012B03D19DF900302370F1E70020E9E712
:1099340013B504220C460DEB0201FFF783FC08B1BA
:10994400019B236002B010BD1146FFF7F1BF13B5B0
:1099540008220C466946FFF775FC18B1DDE90023BF
:10996400C4E9002302B010BD1146FFF7F0BF0000A8
:10997400044B1A5C012393404FF0A042C2F80C350B
:10998400704700BFACD80200044B1A5C012393401B
:109994004FF0A042C2F80835704700BFACD80200AF
:1099A40008B50020FFF7F0FF0120FFF7EDFF0220CC
:1099B400FFF7EAFFBDE808400320FFF7E5BFC20751
:1099C40008B501460CD54FF0A0430322C3F8442741
:1099D400C3F84827C3F84C27C3F85027FFF7E0FF24
:1099E4008B070AD54FF0A0430C22C3F83427C3F8E1
:1099F4003827C3F83C27C3F8402708BD024AD2F8E9
:109A04000034002BFBD0704700E001400A4908B540
:109A14000223C1F80435BFF36F8FBFF34F8FC1F832
:109A24000805FFF7EBFF0023C1F80435BFF36F8F80
:109A3400BFF34F8F08BD00BF00E0014010B5094CD3
:109A44000123C4F80435BFF36F8FBFF34F8F016058
:109A5400FFF7D4FF0023C4F80435BFF36F8FBFF3BF
:109A64004F8F10BD00E0014070B50E4E0123154626
:109A7400C6F80435BFF36F8FBFF34F8F0024AC4299
:109A840007D10023C6F80435BFF36F8FBFF34F8FA0
:109A940070BD51F8243040F82430FFF7AFFF013493
:109AA400EDE700BF00E00140034620B131B10020E2
:109AB400C1E90003704748F21050704748F2135050
:109AC400704730B1036848F240508B4208BF002011
:109AD400704748F21050704728B148F21150914233
:109AE40008BF0020704748F21050704770B5064612
:109AF4000C461D46FFF7D8FF50B9B3794AB1AB42C3
:109B04000AD111462046FFF74EFA08B9044B2360E8
:109B140070BD48F21050FBE748F21150F8E700BF5F
:109B24007052464D2DE9F0470C4606460F49204633
:109B3400DDE9088915461F46FFF7C3FFA0B963682E
:109B44005A79494652004046FFF7C6FF60B94DB105
:109B5400CDF820803B462A4621463046BDE8F047F2
:109B6400FFF729BA48F21050BDE8F0877052464D0D
:109B740010B5044638B149B10B684160984708B93B
:109B8400044B236010BD48F20150FBE748F210502B
:109B9400F8E700BF6E524648F0B4134648B1076870
:109BA400094EB7420AD161B12AB14368F0BC5B687F
:109BB400184748F201531846F0BC704748F2025364
:109BC400F9E748F21053F6E76E524648F0B460B134
:109BD40007680C4EB7420CD171B143681568DC6854
:109BE400A5420CD3F0BC9B68184748F20150F0BC66
:109BF400704748F20250FAE748F21350F7E748F288
:109C04001450F4E76E5246482DE9F0410446DDE96C
:109C1400067815461E46FFF7ABFF60B93246294663
:109C24002046FFF7B9FF30B9424639462046BDE821
:109C3400F041FFF7CBBFBDE8F0810000F8B50A4F53
:109C44000A4C0B4EE41B0123E40833700025A542A3
:109C540003D1022333700020F8BD57F835309847FC
:109C64000028F9D10135F2E7B8D60200B8D60200CF
:109C74004025002001390144814200D27047037815
:109C84000A7800F8012B01F80139F5E7013A02449A
:109C94000139824200D2704711F8013F02F80139BC
:109CA400F7E770B516460D46FFF7F0FF3246A919DF
:109CB4003044BDE87040FFF7E9BF38B50D460446AF
:109CC400FFF7D8FF29466019BDE83840FFF7D2BF37
:109CD400BFF34F8F0549064BCA6802F4E062134391
:109CE400CB60BFF34F8F00BFFDE700BF00ED00E086
:109CF4000400FA0508B507281BD8DFE800F00412B1
:109D04001A1A1A041A040120FFF759FE0020FFF75B
:109D14002FFE0120FFF72CFEBDE808400220FFF7CC
:109D240033BE0120FFF730FEBDE808400220FFF7F4
:109D34001FBE08BD08B5FFF7CBFF08B5FFF7C8FF86
:109D440008B501F069FB4FF48051002001F03BF9A4
:109D540008B1FFF7BDFF0548C0F5383101F033F90C
:109D64000028F6D1024801F04DF8F2E70080020025
:109D7400F99C02001AB1013A8B5C8354FAE77047EC
:109D8400000000000000000000000000C3F1080310
:109D9400DB0070B501330446002003A55B1920C91C
:109DA40040CAAD1920C4184720C940CA754120C40F
:109DB40020C940CA754120C420C940CA754120C485
:109DC40020C940CA754120C420C940CA754120C475
:109DD40020C940CA754120C420C940CA754120C465
:109DE400404170BD0000000000000000C3F1080302
:109DF400DB0070B50133002403A500BF5B1920C943
:109E040040CAAD1B20C0184720C940CAB54120C074
:109E140020C940CAB54120C020C940CAB54120C0AC
:109E240020C940CAB54120C020C940CAB54120C09C
:109E340020C940CAB54120C020C940CAB54120C08C
:109E44006441B4FA84F0400970BD00BF2DE9F04FBD
:109E540008B4F8CA04B451F8042BA3FB028940F8EF
:109E6400048B4FF0000AE4FB629A4FF0000BE5FB11
:109E740062AB4FF0000CE6FB62BC4FF0000EE7FB58
:109E840062CE51F8042B4FF00008E3FB628940F8DE
:109E9400048BE4FB629AE5FB62ABE6FB62BCE7FB86
:109EA40062CE51F8042B4FF00008E3FB628940F8BE
:109EB400048BE4FB629AE5FB62ABE6FB62BCE7FB66
:109EC40062CE51F8042B4FF00008E3FB628940F89E
:109ED400048BE4FB629AE5FB62ABE6FB62BCE7FB46
:109EE40062CE51F8042B4FF00008E3FB628940F87E
:109EF400048BE4FB629AE5FB62ABE6FB62BCE7FB26
:109F040062CE40F8049B40F804AB40F804BB40F830
:109F140004CB40F804EB0CBC052B00F01E810C684C
:109F2400A0F11400A1F11401A2F1140252F804EBFF
:109F34004FF0000550F8046BE4FB6E5652F804EB46
:109F440050F8047BE4FB6E6752F804EB50F8048B82
:109F5400E4FB6E7852F804EB50F8049BE4FB6E8942
:109F640052F804EB50F804ABE4FB6E9AA0F1140031
:109F740052F8044B51F804EB4FF0000CE4FB6EC5AF
:109F840040F804CB51F804EBE4FB6E5640F8045B54
:109F940051F804EBE4FB6E6740F8046B51F804EBF2
:109FA400E4FB6E7840F8047B51F804EBE4FB6E8923
:109FB40040F8048B51F804EBE4FB6E9AA0E8000629
:109FC400062B00F0CA800C68A0F11800A1F118015A
:109FD400A2F1180252F804EB4FF0000550F8046B9C
:109FE400E4FB6E5652F804EB50F8047BE4FB6E6716
:109FF40052F804EB50F8048BE4FB6E7852F804EB4F
:10A0040050F8049BE4FB6E8952F804EB50F804AB5F
:10A01400E4FB6E9A52F804EB50F804BBE4FB6EAB1D
:10A02400A0F1180052F8044B51F804EB4FF0000C67
:10A03400E4FB6EC540F804CB51F804EBE4FB6E5628
:10A0440040F8045B51F804EBE4FB6E6740F8046BE2
:10A0540051F804EBE4FB6E7840F8047B51F804EB10
:10A06400E4FB6E8940F8048B51F804EBE4FB6E9A30
:10A0740040F8049B51F804EBE4FB6EABA0E8000C41
:10A08400072B6AD008B40C68A0F11C00A1F11C01D4
:10A09400A2F11C0252F804EB4FF0000550F8046BD7
:10A0A400E4FB6E5652F804EB50F8047BE4FB6E6755
:10A0B40052F804EB50F8048BE4FB6E7852F804EB8E
:10A0C40050F8049BE4FB6E8952F804EB50F804AB9F
:10A0D400E4FB6E9A52F804EB50F804BBE4FB6EAB5D
:10A0E40052F804EB50F804CBE4FB6EBCA0F11C0066
:10A0F40052F8044B51F804EB4FF00003E4FB6E35C7
:10A1040040F8043B51F804EBE4FB6E5640F8045B62
:10A1140051F804EBE4FB6E6740F8046B51F804EB70
:10A12400E4FB6E7840F8047B51F804EBE4FB6E89A1
:10A1340040F8048B51F804EBE4FB6E9A40F8049B5E
:10A1440051F804EBE4FB6EAB40F804AB51F804EBBC
:10A15400E4FB6EBCA0E8001808BCBDE8F08F10B5A5
:10A16400002253B28B4205DA1BB2002440F823408C
:10A174000132F6E710BD10B500231A465CB28C42DA
:10A1840004DA50F8244001332243F7E7B2FA82F0AC
:10A19400400910BD4A11012301F01F0150F82200AB
:10A1A4008B40184070470139C9B24BB2002B0BDA0F
:10A1B400013111F0FF0315D059B201F18043013B85
:10A1C40050F82320002304E050F82330002BEAD079
:10A1D400EEE712B152080133FBE7481E03EB4010CF
:10A1E40080B200E0184600B2704730B5002463B274
:10A1F400934206DA1BB2013451F8235040F823503D
:10A20400F5E730BD10B5013AD2B253B2002B09DBE9
:10A214001BB250F8234051F823309C4204D8F2D2A8
:10A22400FF2002E0002000E0012040B210BD00EB5E
:10A2340081010023884206D251F8042D43EA5203D7
:10A244000B60D307F6E7704770B59DF910401D46C3
:10A2540023460646FFF79AFD30B928463146224682
:10A26400FFF7D0FF012807D0304631462A4623465F
:10A27400BDE87040FFF7BABD70BD70B59DF91040E0
:10A284001D4623460646FFF7B1FD38B13046314638
:10A294002A462346BDE87040FFF778BD70BD000034
:10A2A4002DE9F043B3B002AC9DF9E8901F46804617
:10A2B4004B462046FFF7CAFD22AB494638468DE897
:10A2C4001800FFF770FFC0EB891086B2474B32B21B
:10A2D4001340002BBCBF03F1FF3363F01F034FF0A7
:10A2E400200592FBF5F5EDB2B8BF01336DB29CB217
:10A2F40012A82946FFF733FF23B2002B28B213DD3F
:10A3040012AA002102EB80000A464A4513D257F8EC
:10A31400225005FA03F4214340F82210C3F120012E
:10A3240025FA01F10132F0E712AB03EB8000394664
:10A334004A46FFF75AFF0FFA89F512AB6F00012462
:10A3440003EB8505330444D40022114653B2BB42C7
:10A3540022DA0DF1C80E0EEB840E0DF1C80C18B202
:10A364005EF8C8EC0CEB83035EF820E053F8803C05
:10A37400C3EB0E035B1A734502D08CBF012100218D
:10A38400C4F1010E0DF1C80C0CEB8E0E01325EF817
:10A39400C8EC4EF82030D9E7621A544212A8494654
:10A3A4005441FFF744FF32AA09F1FF3302EB830360
:10A3B40002EB8902284652F8801C53F8802C013E97
:10A3C40042EAC172494643F8802CB6B2FFF72FFF28
:10A3D400B8E732AB03EB8404404654F8C81C4A4641
:10A3E400FFF703FF33B0BDE8F08300BF1F00008018
:10A3F40030B51C4691B0054693F900306846FFF726
:10A4040025FDD4F8AC3028466946984711B030BDD4
:10A4140013460A46FFF7ECBF2DE9F04115468AB012
:10A424000446884602A80021202203F010F92E7861
:10A434000323204641462A462F1D76B20293FFF796
:10A44400E7FF2046214602AA3B460096FFF715FF88
:10A454002046214642462B46FFF7CAFF0096204677
:10A46400214605F184023B46FFF7EEFE0AB0BDE843
:10A47400F0810000F0B50C4689B008220646FFF7CB
:10A48400B4FEE36A0393236B0493636B0593A36B9A
:10A494000693E36B0793002769466A4608236846D8
:10A4A400029701970097FFF771FC314605466A460B
:10A4B40008233046FFF76AFC236B0393636B049312
:10A4C400A36B0593E36B0693054469466A46082328
:10A4D40068460797FFF75AFC314605446A46082345
:10A4E4003046FFF753FC236A0093636A0193A36A1F
:10A4F4000293A36B0693E36B0793054431466A46C4
:10A5040008233046059704970397FFF73FFC636AD7
:10A514000093A36A0193E36AA26B0293636B0393B0
:10A5240004920693E26B236A05920544079331462D
:10A534006A4608233046FFF729FCE36A0093236B3D
:10A544000193636B0293236A0693A36A07930544FA
:10A5540031466A4608233046059704970397FFF768
:10A5640045FC236B0093636B0193A36B0293E36B32
:10A574000393636A0693E36A07932D1A31466A4686
:10A584000823304605970497FFF730FC636B00936C
:10A59400A36B0193E36B0293236A0393636A0493AB
:10A5A400A36A0593236B07932D1A31466A46082341
:10A5B40030460697FFF71AFCA36B0093E36B0193F5
:10A5C400636A0393A36A0493E36A0593636B079333
:10A5D4002D1A314630466A46082302970697FFF73C
:10A5E40005FC2D1A16D5304631460D4A0823FFF7CF
:10A5F400CDFB4519F7D410E0094831460822FFF78E
:10A6040001FE012809D030463146054A0823FFF7E8
:10A61400EDFB2D1A002DEFD0F5E709B0F0BD00BF1A
:10A62400F4D80200F0B589B01C4607460E4615461C
:10A63400684611461A46FFF7EBFE384639466A4625
:10A644002346FFF7D5FE684669462A462346FFF7A8
:10A65400CFFE304631466A462346FFF7C9FE09B0AD
:10A66400F0BD2DE9F0438BB08046129D15F9046BC3
:10A67400009614461F4689462B4602A811464246B8
:10A68400FFF7FBFD02A80146129AFFF7C1FE404600
:10A69400414602AA129BFFF7ABFE2046214602AABE
:10A6A400129BFFF7A5FE2B46384639464A460096CC
:10A6B400FFF7E3FD02A83946129AFFF7A9FE02A8A4
:10A6C400014642462B460096FFF7D7FD02A80146F5
:10A6D40022462B460096FFF7D0FD204621464246EF
:10A6E4002B460096FFF7C9FD484649462246129B71
:10A6F400FFF77EFE2046414602AA2B460096FFF74E
:10A70400BCFD384639462246129BFFF771FE384697
:10A7140039464A462B460096FFF7AFFD204602A96C
:10A724003246FFF762FD0BB0BDE8F0832DE9F04738
:10A734008846B3F902101F460825CB1D202493FB3D
:10A74400F5F51F31954291FBF4F44FFA84F928BFD3
:10A75400154606464946FFF702FD2A46304641465D
:10A76400FFF708FBB7F90230ED009D4220D9ED1A3E
:10A7740006EB840100228E420AD251F8040D20FA1D
:10A7840005F313430B60C5F1200300FA03F2F2E76B
:10A794002437384631464A46FFF734FD012807D0AE
:10A7A400304631463A464B46BDE8F047FFF71EBBFC
:10A7B400BDE8F087F8B5036813F0010506460F46B7
:10A7C400144605D001463A462346FFF7DFFA05460C
:10A7D40030462146FFF72BFD45B104F18042013A92
:10A7E40056F8223043F0004346F82230F8BDF0B565
:10A7F4000646A1B00F460846194615461C46FFF703
:10A80400BAFC20B130462146FFF7A9FC73E0684644
:10A8140039462246FFF7E9FC08A829462246FFF7F5
:10A82400E4FC10A82146FFF79AFC012318A821464E
:10A834001093FFF794FC684608A92246FFF7E2FC50
:10A84400002853D0009BDA0704D468462146FFF75A
:10A85400EEFC26E0089BDB0704D408A82146FFF79A
:10A86400E6FC3DE000281EDD08AA2346694668464A
:10A87400FFF7BCFA68462146FFF7D9FC10A818A9CF
:10A884002246FFF7BFFC002805DA10A801462A4635
:10A894002346FFF77BFA10A8014618AA2346FFF7C0
:10A8A400A5FA10A81DE008A86A4623460146FFF74A
:10A8B4009DFA08A82146FFF7BAFC18A810A9224659
:10A8C400FFF7A0FC002805DA18A801462A4623460B
:10A8D400FFF75CFA18A8014610AA2346FFF786FA88
:10A8E40018A829462246FFF765FFA4E7304610A9B9
:10A8F4002246FFF77AFC21B0F0BD2DE9F04793F929
:10A90400006092B004468946104631461546984682
:10A91400FFF731FC002840F0978002A849464246E0
:10A92400FFF776FD43460AA8214602AAFFF760FD19
:10A9340002A801464246FFF76BFD43464846494696
:10A944002A46FFF755FD08F10407284629464246E2
:10A95400FFF75EFD204621462A463B460096FFF758
:10A9640073FC284629462A463B460096FFF76CFCB2
:10A97400284621462A463B460096FFF77EFC2046A1
:10A9840021462A464346FFF733FD28462146224600
:10A994003B460096FFF758FC20463B46009621466E
:10A9A4002A46FFF751FC2368DB07204613D53346BC
:10A9B40021463A46FFF7EAF9314682462046FFF738
:10A9C40036FC06F18043013B54F8230040EACA7088
:10A9D40044F8230002E03146FFF729FC28462146CB
:10A9E4004246FFF715FD284629460AAA3B4600962B
:10A9F400FFF743FC284629460AAA3B460096FFF780
:10AA04003CFC0AA801462A463B460096FFF735FC63
:10AA1400204621460AAA4346FFF7EAFC02A802465A
:10AA24003B4621460096FFF728FC2046294632463D
:10AA3400FFF7DBFB284649463246FFF7D6FB48467C
:10AA440002A93246FFF7D1FB12B0BDE8F08700003F
:10AA540000487047F0D802002DE9F04FEFB01E46D1
:10AA6400789D05902B780393B5F9023092461F33F5
:10AA7400202293FBF2F3DBB206939DF9187095F94B
:10AA8400012007F1FF3926AB002443F829406EABBF
:10AA940003EB89034EA88B46314643F8804C43F8B8
:10AAA400604CFFF767F995F9012056A8B118FFF734
:10AAB40061F99DF90C604EA83146FFF75CFB8046B6
:10AAC400002840F0468156A83146FFF754FB04465F
:10AAD400002840F03C8105F1240840464EA93A463E
:10AAE400FFF790FB012840F03481404656A93A46CE
:10AAF400FFF788FB0128089040F02B813B461EA8F5
:10AB040056A94246FFF773FE0DF1380C60465946CC
:10AB140052462B464CF82940CDF810C0FFF706FEEC
:10AB2400DDF810C00097604661461EAA4346CDF882
:10AB340024C00DF5BC79FFF7B3FB4346009716A874
:10AB44004EA91EAAFFF7ACFB484632460599FFF70B
:10AB54004CFBB300049309EB030B049A059B584682
:10AB640099183246FFF741FB05F144031946324672
:10AB740036A80793FFF739FB05EB860132463EA85A
:10AB8400443105F1040AFFF730FB494600961EA83C
:10AB940036AA5346FFF771FB4A465B4636A83EA9E0
:10ABA4000095FFF75EFD1EA8014633465246FFF7A7
:10ABB4001EFE1EAA484659462B46FFF733FDDDF814
:10ABC40024C0079B0B936046059B0C933946CDF834
:10ABD40014C00A94CDF83490FFF7E5FA39460446D8
:10ABE40016A8FFF7E0FAA042B8BF204684B2DDF809
:10ABF40014C0671E3FB260463946FFF7CBFA3946A8
:10AC040010F1000916A818BF4FF00109FFF7C2FAA6
:10AC1400002814BF0223002343EA09090DF1280B7D
:10AC240032465BF8297026A83946FFF7DEFA049B02
:10AC34003246F9182EA8FFF7D8FA31461EA8FFF7B6
:10AC44008EFA023C089B1E93A6B20FFA86F9B9F15C
:10AC5400000F26AF47DB2B461EAAD5F8A440384682
:10AC64002EA9A04749460EA8FFF794FA4946041CAA
:10AC740016A818BF0124FFF78DFA002814BF022379
:10AC840000231C430AAB53F82490B9F1000F27D0DA
:10AC94009DF90C4036A849462246FFF7A6FA049BC4
:10ACA4003EA809EB03012246FFF79FFA36A83EA906
:10ACB4001EAA2B46FFF7B6FC46A8394636AA5346C9
:10ACC4000094FFF7DAFA36A83EA93A462EAB00956F
:10ACD400FFF7C7FC1EA8014646AA2B46FFF788FBD0
:10ACE400013EB6B2B1E71EA8014652469DF90C30AA
:10ACF400FFF77DFD38462EA91EAA2B46FFF792FCCE
:10AD04009DF91840404639462246FFF77BFA012850
:10AD140005D03846394642462346FFF767F8039B79
:10AD2400013BDBB200245AB2002A0CDB12B26EA93A
:10AD340001EB820157F8222051F8801C013B4A4064
:10AD44001443DBB2EFE7B4FA84F0400902E0404672
:10AD540000E020466FB0BDE8F08F008800F00100ED
:10AD6400704741DF70470000014B01221A707047A1
:10AD740064290020BFF34F8F0549064BCA6802F4CB
:10AD8400E0621343CB60BFF34F8F00BFFDE700BF0A
:10AD940000ED00E00400FA05024B034800221A709B
:10ADA40001F05EBC6429002079AD0200042810B5CE
:10ADB400044609D8022811D816D00D4B1B68B3B12C
:10ADC4002046BDE810401847831F012BF5D8094BD6
:10ADD400094800221A7001F043FCEEE707494FF4DA
:10ADE400701000F0F7F9E8E701F082FBE5E710BD29
:10ADF400682900206429002079AD02009DAD02007D
:10AE04000020704738B5594B594A18604FF0A04399
:10AE14000020C3F8402701F039FC0446002840F024
:10AE24009F8000F0A3FA012800F09580022800F02A
:10AE34009980002840F094804FF08043D3F8004478
:10AE440014F480343AD04FF48032C3F8002404461A
:10AE5400484D2B6A012B44D04FF4701400F020FBB2
:10AE6400454A20211820FDF7B3FA08B1FEF765FF23
:10AE74004FF08043D3F81C2502F0F802B02A09D120
:10AE8400D3F81C25D20742BFD3F81C2502F04E028A
:10AE9400C3F81C25FFF7B4FF002861D120463749C9
:10AEA40000F098F9364800F003FD002858D100F06E
:10AEB4001DFBFDF715FBFFF754FFF8E7D3F820253A
:10AEC40002F0F802A82A0AD1D3F82025D00706D523
:10AED400D3F8202502F05602C3F82025B8E7012450
:10AEE400B6E74FF440535A68264B9A4209D001F012
:10AEF4007FFCAA69014694B1234801F053FF90B93D
:10AF0400AAE76A6B1CB995F86032012BEFD01F4891
:10AF14004FF4805101F046FF0028E8D19CE795F8F2
:10AF2400A132012BE8D14FF0A043D3F81035D90357
:10AF340092D54FF08043D3F81C3513F0B10F8BD169
:10AF440001F004FC60B9124B1870124801F088FB40
:10AF540000F024F804E00E4B0F481C7001F080FB55
:10AF6400032038BD4FF4A02478E700BF68290020EF
:10AF74000C00030034410020442500209DAD020054
:10AF8400B1AD0200DBE5B151D5430020944300206C
:10AF9400642900206DAD020079AD020008B5074BAD
:10AFA4004FF0FF32C3F88020C3F8802101F0C2F8CB
:10AFB400BDE808404FF4805000F02AB800E100E0FA
:10AFC40080F3088808470246C1F30B0070B5E8B95E
:10AFD400B2F53C3F1AD80139090B130B01EB1231BE
:10AFE40001254FF08044994200D270BD03F01F0246
:10AFF4005E0905FA02F203D0012E04D00133F2E710
:10B00400C4F80026FAE7C4F80426F7E70720ECE7BB
:10B0140010B504461448C0F53C31FFF7D4FF08B11D
:10B02400FEF78BFE01F0E4FB104B9B6903F6FF7304
:10B0340023F47F6323F00F0319180020FFF7C3FFE5
:10B0440008B1FEF77AFEEFF305830023D4E900018B
:10B0540083F3148883F3108883F3118883F31388AC
:10B06400BDE81040FFF7ACBF00800200344100206F
:10B074001FB518490B785BBB4FF08043A024D3F86D
:10B084001824D2035CBF01229A60134B0022C3F838
:10B094000021D3F8000103900398C3F84021D3F8AA
:10B0A400400102900298C3F84421D3F8440101906E
:10B0B40001980A4880F811434FF4003404600220D8
:10B0C400C3F8082501229A601A60C3F804030A70C1
:10B0D40004B010BD702900200010014000E100E020
:10B0E40037B56FF07F42154C057BD4F804358A429E
:10B0F40028BF0A46891A13444A1E942A23F07F4320
:10B1040005F5A8729BBF963B96314160416044F8B7
:10B1140022300B4B4FF4F86043F001039847094B7E
:10B12400AA00134400221A601B680193019B4FF488
:10B134008033AB40C4F8043303B030BD0010014089
:10B14400A0D90200401101402DE9F7431C4ED6F866
:10B15400043153B11B4A1368013313600023C6F84A
:10B164000431D6F804310093009B174C174D184F47
:10B174004FF000084FF480392B6873B1C5F8008094
:10B184002B680193019B237B09FA03F3C6F8083368
:10B19400616851B12046FFF7A3FF0435BD4204F1B5
:10B1A4001004E9D103B0BDE8F083A16811B12046D1
:10B1B400FFF796FF2368002BEFD09847EDE700BF19
:10B1C400001001406C290020DC22002040110140C5
:10B1D4004811014070B50B4B1D682A7B4FF4803336
:10B1E4009340094A0E46C2F80833044640B1FFF7BB
:10B1F4003FFF2E6021462846BDE87040FFF770BF30
:10B2040070BD00BFFC2200200010014070B5074B48
:10B214001D6804460E46A860FFF72AFF2E602146EB
:10B224002846BDE87040FFF75BBF00BF0023002045
:10B23400014B01221A707047712900202DE9F74F44
:10B2440006468846A8EB06052D0B02F6FF77144642
:10B2540000F026F9082D28BF08252B03DFF868B075
:10B2640001933F0B0CB9234629E0BD422CBFBA46DB
:10B27400AA464FF000025146304634BFDDF8049030
:10B28400A14600F021FF0346C8B909F1030222F0E8
:10B2940003024146304600F009FF034678B9DBF863
:10B2A40030304B44CBF8303001F0E0F9A7EB0A071B
:10B2B400A4EB09044E44C84403460028D2D01846DF
:10B2C40003B0BDE8F08F00BF3441002010B501F099
:10B2D400B3FA124A916C01F500535C68104B9C421E
:10B2E40018D1D2E90C32934216D0884204D1BDE879
:10B2F4001040002001F0BAB9D21A02F6FF7222F40B
:10B304007F6222F00F0219441844FFF797FF0028C8
:10B31400EDD010BD0320FCE70020FAE73441002003
:10B32400DBE5B15138B50F4BDA6A5D6A9C6CAC2A27
:10B3340010D15B6B1C44ED1A0B482A46214602F0DF
:10B3440025F968B100F0D2F829462046BDE8384016
:10B3540000F0D2BE002CEFD101F05EFA0446EBE718
:10B3640038BD00BF344100200080020070B5264C77
:10B37400E36AAA2B37D005D8012B0BD0A52B2ED0EE
:10B38400002070BDAC2BFBD1FFF7A0FF48BBFFF73B
:10B39400C9FF26E0A66C656A01F02AFA864229D123
:10B3A40001F026FA00222946FDF702F9A36A984221
:10B3B40002BF0123C4E90703A5610025134801F076
:10B3C4000DFA134B134800221A7001F04FF968B9B3
:10B3D40075B1236A012B14BF01200220D1E7FFF7C6
:10B3E40075FF0125EAE7FFF79DFFE6E70320C8E7BD
:10B3F4000120C6E7236BEA1AF1181844FFF71EFF71
:10B404000028DAD1CCE700BF3441002058410020A5
:10B414007129002035B2020010B50024D4F8F83F99
:10B42400013304D1084940F6F870FEF707FBD4F85D
:10B43400FC3F013307D1BDE810404FF4383140F6EA
:10B44400FC70FEF7FBBA10BD008002000A4AD2F875
:10B4540000347BB109480023D2F80815D940C90744
:10B4640048BF03F5C07103F1010348BF42F821004E
:10B47400072BF1D1704700BF000001403546526EE2
:10B48400FFF7E4BF054B002282B0C3F80021D3F8D4
:10B4940000310193019B02B0704700BF00000140DE
:10B4A40038B50E4D2B78BBB90D4BD3F800248AB1B7
:10B4B400D3F80445FFF7CAFF40F61650A042B8BFC0
:10B4C40020460849A0F54860FFF7A0FE064B4FF45C
:10B4D40080321A6001232B7038BD00BF722900200E
:10B4E4000000014085B4020000E100E0034BD3F802
:10B4F40000340BB1FFF7AABF704700BF0000014042
:10B50400BFF34F8F0549064BCA6802F4E062134348
:10B51400CB60BFF34F8F00BFFDE700BF00ED00E03D
:10B524000400FA054FF08053D3F83001421C04BFE5
:10B534004FF0704393F8E00F831F5842584170470F
:10B544004FF0704393F8E02F062A09D1D3F8E83F6F
:10B55400C3F30313033B032B02D8024AD05C7047A6
:10B5640000207047AED902004FF08053D3F8300169
:10B57400421C04BF4FF0704393F8E00F062804D038
:10B58400A0F10A0358425841704701207047000057
:10B5940008B5FFF7C7FF40B14FF08053A44AD3F872
:10B5A4002433C3F30423C2F84035FFF7C9FF10B1B5
:10B5B400A04BA14A5A67FFF7D7FF48B14FF0805319
:10B5C4004FF08042D3F84432C3F34233C2F83C35DF
:10B5D400FFF7B6FF30B1994AD2F8FC3023F08073FC
:10B5E400C2F8FC30FFF7C0FF40B14FF080430022A7
:10B5F400C3F80C21C3F81021C3F83825FFF7A0FFC6
:10B6040020B14FF080430322C3F8A025FFF798FF31
:10B6140060B18B4B0522C3F810260122C3F888269B
:10B624000022C3F818263F22C3F814264FF0805393
:10B63400D3F83021501C09BF4FF07043D3F8343194
:10B6440093F8E02FD3F8E83F08BFC3F30313062AA7
:10B654004ED1033B032B03D87A4AD35C002B49D049
:10B664004FF08052784BD2F80414C3F82015D2F866
:10B674000814C3F82415D2F80C14C3F82815D2F80A
:10B684001014C3F82C15D2F81414C3F83015D2F8DA
:10B694001814C3F83415D2F81C14C3F84015D2F8A2
:10B6A4002014C3F84415D2F82414C3F84815D2F86A
:10B6B4002814C3F84C15D2F82C14C3F85015D2F83A
:10B6C4003014C3F85415D2F83414C3F86015D2F802
:10B6D4003814C3F86415D2F83C14C3F86815D2F8CA
:10B6E4004014C3F86C15D2F84424C3F8702501E063
:10B6F4000A2AB5D0FFF716FF48B14FF080534FF038
:10B704008042D3F8583203F04F03C2F8E43EFFF707
:10B714002BFF48B14FF08043D3F80024D10744BF36
:10B724006FF00102C3F800244FF08053D3F83021A6
:10B73400062A0ED1D3F83431033B032B02D8434AF3
:10B74400D35CBBB1424AD2F83C3743F48063C2F8BD
:10B754003C374FF08053D3F830210A2A0AD1D3F86A
:10B7640034313BB14FF08042D2F8E43E43F00F0352
:10B77400C2F8E43E4FF01023D3F80022002A03DB82
:10B78400D3F80422002A23DA324B0122C3F8042519
:10B79400D3F80024002AFBD04FF010221521C2F860
:10B7A4000012D3F80024002AFBD04FF010231522F6
:10B7B400C3F80422274BD3F80024002AFBD000222C
:10B7C400C3F80425D3F80024002AFBD0FFF798FE21
:10B7D400D3F80022D20703D4D3F80432DB0722D5EE
:10B7E4001C4B0122C3F80425D3F80024002AFBD003
:10B7F4004FF010220021C2F80012D3F80024002ACE
:10B80400FBD04FF010230022C3F80422114BD3F8CD
:10B814000024002AFBD00022C3F80425D3F8002416
:10B82400002AFBD0D2E70C4B0C4A1A6008BD00BFBB
:10B834000030014000C007400DF0ADBA00ED00E05B
:10B8440000500040A6D9020000C00040AAD902005E
:10B854000010004000E00140042300200090D003C9
:10B8640013681F2B10B5144607D900220830FDF7C2
:10B8740018FB08B92023236010BD48F21450FBE7DD
:10B884000830FDF7EBBA0830FDF7B8BA831F012B77
:10B8940010B5044602D8002000F088FF034B1B6853
:10B8A4001BB12046BDE81040184710BD7429002084
:10B8B40008B5074B18600020FFF7E8FF054800F0C3
:10B8C4005DFF20B9BDE80840024800F0C5BD08BDD1
:10B8D4007429002091B802006CDF70476DDF704757
:10B8E40072DF704773DF704774DF704775DF70472E
:10B8F40076DF70477ADF70477CDF70477DDF704703
:10B904007FDF704786DF70478FDF7047A8DF70479F
:10B91400AADF7047ADDF7047AEDF7047B0DF704716
:10B92400B1DF7047B5DF704762DF704766DF70478D
:10B9340013DF704701460148FCF759BFC0D6020027
:10B9440070B518228CB000210DEB020001F07FFECF
:10B954002823089316231E4CADF806300023CDE9A6
:10B9640003330593022306222370237159230125EF
:10B974000926A27063710322FE236570E270A3712D
:10B984000DF10601A0198DF818508DF82D50029470
:10B99400ADF80C60FFF7B2FFB8B9BDF806302672F7
:10B9A4005A19E271BDF80C200A4C134402A906AAE4
:10B9B4002046ADF80C30FFF793FF30B92078FFF73D
:10B9C40093FF20782946FFF78DFF0CB070BD00BFB0
:10B9D400F639002008230020154938B50B680246C3
:10B9E40013F0010022D0134882421ED0124A10885C
:10B9F4004FF6FF72904213D043F004030B601321FF
:10BA0400FFF776FF90B90D4DC82445F001054FF4BA
:10BA14007A40A847013CFAD1BDE8384001F09ABC0D
:10BA2400074B1878FFF760FFF6E7002038BD00BF2A
:10BA3400183A0020B8D602000A230020A0DB020036
:10BA440008230020F0B50388212B8BB0044631D89D
:10BA54000F2B04D8012B00F0E6800BB0F0BD103B97
:10BA6400112BFAD801A252F823F000BFE9BA020060
:10BA740007BB02005FBA0200CFBB02000FBD020089
:10BA84005FBA02005FBA02005FBA02005FBA020046
:10BA94005FBA02001DBD02005FBA02005FBA020075
:10BAA4005FBA02005FBA02005FBA02005FBA020026
:10BAB40003BC0200503B9AB2062ACED8062BCCD83F
:10BAC40001A252F823F000BF33BB020037BC0200CE
:10BAD4001DBD02005FBA02005FBA02008BBB020008
:10BAE40017BC0200904D83882B80904B1B680BB1D0
:10BAF400012098478E4928880BB0BDE8F040FFF735
:10BB0400F5BE894B4FF6FF721A808A4B1B685A07A1
:10BB140004D4FFF715FF08B1FEF70FF9834B1B6838
:10BB2400002B9AD002200BB0BDE8F0401847824E9B
:10BB3400E288B3889A4290D18048FCF734FE0546E7
:10BB440000288AD0228A04F1120101F057FD18223C
:10BB5400002104A801F07BFD08238DF81030784BF8
:10BB64000693784B0596CDE9073504A8238AADF8EA
:10BB7400243000F067FC00283FF46FAF6F4829467B
:10BB8400FCF735FE69E7E188F6291CD8CB1E9B0734
:10BB94000DD0CB1F9BB2013B5A4202F0030203F0CB
:10BBA400030301F1FF3158BF5342C91A89B25E4BF6
:10BBB4001888FFF7B7FE00283FF44FAF0BB0BDE87D
:10BBC400F040FEF7BAB8F721F1E7574C022304938B
:10BBD400208802AB04AA42F605210593FFF79AFEDA
:10BBE40008B1FEF7AAF8002320881A468521FFF73A
:10BBF40087FE00283FF431AFFEF79FF82DE70023BE
:10BC040004A980888DF810308DF81130FFF77CFE80
:10BC1400EFE7A379002B7FF420AF434B132118885F
:10BC2400FFF766FEC7E7404B00211888FFF77EFE4A
:10BC3400C1E7A379002B3FF410AF022B7FF40DAFC3
:10BC44003D4D2189AA8991427FF407AFA27B012A45
:10BC54007FF403AF4FF480320592228A324EADF85E
:10BC64001820628AADF81A2004F11402079201AF79
:10BC7400298A3088049302AA02930397FFF74AFEA5
:10BC840060B93846FFF769F840B940F2FD133088CF
:10BC9400ADF8143004A9FFF741FEDEE6002304A941
:10BCA4003088ADF81430FFF739FE014600287FF4E0
:10BCB400D4AE182204A801F0CAFC237D204A8DF8D2
:10BCC4001030022B0595069218D0062B10D0012BAC
:10BCD40010D11D4B1A881D4B1A80637DD4F8162091
:10BCE4000893012B099205D1194800F05FFD01E08A
:10BCF400637D089304A800F0A5FBAEE6124AB4F8ED
:10BD040015301380114A1380F4E700231A461946AC
:10BD14008088FFF7F7FD4EE70023A0881A461946EE
:10BD2400FFF7FEFD47E700BF0A2300201C3A00206E
:10BD3400A6DB0200183A0020E2390020C0D6020037
:10BD440099BD020039B90200203A0020223A0020AD
:10BD5400B8D602007FB50023CDF80B308DF80F3034
:10BD64000A4BADF806109B89ADF8083001238DF815
:10BD74000A300DF10603CDE90430054B02A91888F9
:10BD8400FFF7CAFD07B05DF804FB00BFE2390020ED
:10BD94000A23002010B5044686B000210D2202A813
:10BDA400019101F054FC2378082B0BD1364A374912
:10BDB40013880988013B9BB21380D9B1D3B90323FB
:10BDC40011802370627823788DF805306021012A70
:10BDD4008DF804108DF806200ED00B2A12D100F035
:10BDE40081F98DF80700002000F076F9042101A8FC
:10BDF400FFF7B0FF06B010BD062B05D0082B29D0E5
:10BE0400032B27D00321F2E7E1688DF80710D4E96A
:10BE14000123080A8DF80800080C090E8DF80A1091
:10BE2400110A8DF80B208DF80C10110C120E8DF8E0
:10BE34000E201A0A8DF80F308DF810201A0C1B0EE4
:10BE44008DF80D108DF809008DF811208DF8123041
:10BE54000F21CCE7D4E90123110A8DF807208DF8CE
:10BE64000810110C120E8DF80A201A0A8DF80B30E6
:10BE74008DF80C201A0C1B0E8DF809108DF80D206E
:10BE84008DF80E300B21B2E7223A0020203A002030
:10BE94002DE9F0413E4B94B005464FF6FF721A80EF
:10BEA40001204FF659632A4602A98DF80A00ADF81D
:10BEB4000830FFF72BFD0446002865D1354B04AA52
:10BEC40003F11007164618685968144603C408336A
:10BED400BB422246F7D1A91C3046FFF725FD044694
:10BEE400002851D101461C220DA801F0B0FB9DF899
:10BEF40034308DF8044043F004038DF834300223C9
:10BF0400ADF80C30AB788DF80E3003238DF8063085
:10BF1400F423CDE90A44ADF82C302B464FF0110838
:10BF240033F8040B0C9403AF01AE08AA0DA98DF8E5
:10BF3400058008970996FFF7EBFC044620BB0146F1
:10BF44001C220DA801F083FB18238DF83430012343
:10BF5400ADF80C30AB788DF80E3013238DF8063025
:10BF64001723CDE90A44ADF82C302B4608AA33F840
:10BF74000C0B8DF804400DA90C94CDE908768DF8CE
:10BF84000580FFF7C5FC0446204614B0BDE8F081E7
:10BF94000A23002088DB020030B5314C236813F0FB
:10BFA400010585B05AD12F4B18602F48FCF7E4FBEC
:10BFB400029500F0B2F800284ED12C48FFF7B8FCE7
:10BFC400002849D101F088F9002845D102A801F0E0
:10BFD40055FA002840D102A9012001F059FA00289D
:10BFE4003AD102A801F0A6FA002835D100F09EFB50
:10BFF40030B11F4800F08AFB236843F0020323603A
:10C00400112302A88DF80430FFF768FC20BB9DF8CB
:10C01400093002A801338DF80930FFF75DFCD8B967
:10C024002568AB074BBF124912498A69072248BFEA
:10C03400043192B201A8FFF75FFC68B90E48FFF71C
:10C0440059FC48B90D48FFF723FF28B9FFF778FCDE
:10C0540010B945F00105256005B030BD0020FBE7AF
:10C06400183A00201C3A0020C0D6020000800200CA
:10C074007829002080DB0200A6DB0200E2390020E0
:10C0840043690BB1C0681847704700000449054B69
:10C094000022904208BF19460348FCF7C2BB00BF08
:10C0A4005CD7020030D70200C822002007B50093F5
:10C0B40013460A4601460348FCF7B7FB03B05DF894
:10C0C40004FB00BFC822002013460A46014601486B
:10C0D400FCF7B1BBC8220020014B18700B2070473D
:10C0E400243A0020024B002218781A70704700BFCF
:10C0F400243A002018DF704730B585B00546102279
:10C104000C466846002101F0A2FAA408684601958D
:10C114000294FFF7EFFF05B030BD1FB50023CDE952
:10C1240001330393684602230093FFF7E3FF05B04E
:10C134005DF804FB4FF000534FF480521A60002066
:10C1440070470000014B06201B681847303A002056
:10C154000A2803D90B38C0B2FFF7BEBF70470000EE
:10C1640010B5044686B00020FCF76CFB014638B1DC
:10C17400174A1821204606B0BDE81040FCF74CB918
:10C184001822684601F063FA0423124A8DF800303D
:10C19400114B116D1B68994212D1104B186800F0B5
:10C1A40065FF8DF80100FFF7D3FFD4E901138DF883
:10C1B4000100684698470A4800F058FA06B010BDD6
:10C1C40001238DF801306846D4E901139847F5E757
:10C1D40065C1020034410020283A00202C3A002096
:10C1E40049C10200F0B5044687B018220021684610
:10C1F40001F02DFA22788DF8002001238DF801300A
:10C20400531E0B2B00F21281DFE813F01D00100007
:10C214001D001D0010011D0010011D001001100162
:10C2240010010C00824B07201B689847D4E90113C6
:10C23400684698479DF80130012B00F0EC807C4B58
:10C2440005201B68E6E0062A7A4901D0012A01D1BB
:10C2540022690A700A78012A04D0022A53D00023E2
:10C264000B7093E0072BE1D801A252F823F000BF32
:10C2740095C2020031C20200FFC20200D3C2020012
:10C2840031C20200F9C2020031C20200ADC2020092
:10C29400674B03201B689847606900F0D1FCFFF7E7
:10C2A40057FF8DF80100C1E7A18A206900F0E0FC86
:10C2B400FFF74EFF604B8DF80100DA6B1B6C0293A5
:10C2C400E3680192002BB1D020699847AEE75B493F
:10C2D4005B4800F01BFDFFF73BFF01288DF80100D0
:10C2E400A4D1002000F0C2F900289FD00A238DF8C1
:10C2F40001309BE74FF4007303934F4BDA6B1B6CD5
:10C304000192029392E7072B90D801A252F823F0EE
:10C3140035C3020031C20200EBC30200F5C30200C0
:10C3240031C202001FC4020031C2020095C30200E0
:10C3340000F0BEFC08B90823D9E762690AB90323EF
:10C34400D5E7C2F30B0333B13B4B3C495B6D096842
:10C3540013448B42F3D1B2F5805F01D90423C6E7BD
:10C36400354B3649586D096815188D42E3D85A641F
:10C37400DA6C9A6418651863314B1B68002201213A
:10C384001844FFF7A1FE00283FF450AF0523AEE7A1
:10C3940000F08EFC0028CED0274DA18AD5E91432B6
:10C3A4009B1A6A6C0B449342C9D8254B2F6B1B68AC
:10C3B400206905F148021F44FCF7FAF8E368A28AF1
:10C3C400216906463846FFF771FE08B1E3687BE74A
:10C3D400A38A2A6BAE641A442A632A6D0296134414
:10C3E4002B65019322E7144B9A6C02921B6DF8E7BC
:10C3F400114BD3E91402596C821A8A429BD19A6C6C
:10C404005865002120465964DA64FFF7A9FE084BF9
:10C414001B680420984707B0F0BD074B9A6C1B6D4E
:10C4240001934FF4805302920393FFE602235EE7E5
:10C43400303A00200C23002034410020283A002008
:10C444002C3A002083681BB1024A1821FBF7E4BF91
:10C4540007207047E9C1020038B50546C0B1012084
:10C46400FFF714FE044648B900F0DCFB00F020FCA2
:10C4740030B9084B00201D60FFF72EFE204638BD62
:10C484000549064800F042FC0128F2D00324F5E7F0
:10C494000724F3E7303A0020283A00202C3A002001
:10C4A4002DE9F04115464FF46072064688461F4652
:10C4B40001F06CF828B915B90020BDE8F081A8474F
:10C4C400FAE7002201213046FFF7FEFD70B94FF470
:10C4D40060724146384601F091F82B464FF4607281
:10C4E40039463046FFF7E2FD0028E5D00320E4E7B3
:10C4F4002DE9F0413F4C2368013362D000225821DA
:10C50400201DFCF755F827683A1A57425741DFF8BF
:10C51400E8803A4ED8F800502B68013366D00022E8
:10C524005821281DFCF744F82B6883424BD16C68D2
:10C53400012C0AD00022C32105F51870FCF738F845
:10C54400D5F85C42231A5C425C41002F3DD0294956
:10C554002A484FF4607201F051F86CB1D8F80040E9
:10C5640027485422211D01F049F826484FF432721D
:10C5740004F15C0101F042F87768012F34D1224CB8
:10C58400A4F5E4750FCD0FC40FCD0FC40FCD0FC4A8
:10C5940095E80F0084E80F0004F11005A4F5DC749D
:10C5A4000FCC0FC594E80700002386F8603286F8A4
:10C5B400E232F36986F8A17285E80700C6F8A23270
:10C5C40010E00027A3E70024BFE72CB1D8F800103F
:10C5D4000A484FF46072CDE708484FF460720021B6
:10C5E40001F035F802237360BDE8F081002FF3D029
:10C5F4000024ACE700F002001023002034410020A6
:10C6040038410020904100205844002070B50C4C63
:10C61400054600225821201DFBF7CAFF0022206096
:10C62400C32104F51870FBF7C3FF2A46C4F85C0263
:10C634002146044B0448BDE87040FFF731BF00BFFA
:10C6440034410020B43D002000F0020002460248BC
:10C65400024B0068FFF724BF10230020343A002067
:10C664000149FFF7F3BF00BF00F0020038B50546EB
:10C674000020FFF7CBFF044618B903492846FFF70B
:10C68400E5FF204638BD00BF3441002010B5FFF758
:10C69400FDFC044628B9FFF72BFF2046FFF7E6FF11
:10C6A40000B1032010BD000010B5084C4FF4007217
:10C6B400FF2104F15C0000F0CAFF2022002104F1F4
:10C6C400380000F0C4FF0023236310BD3441002070
:10C6D40029DF704738B50C4D0446D5F8643378B17A
:10C6E40001330FD1002218210430FBF761FF2146EA
:10C6F4002060072205F55970BDE83840FFF7E8BF10
:10C704000E2038BD0820FCE700F0020050B1064BB3
:10C7140003F11C0253F8041B40F8041B9342F9D1A3
:10C72400002070470E20704764F3020010B5064CD9
:10C73400002218212046FBF73BFF54F8043C1B1A47
:10C744005842584110BD00BF68F3020010B50A4CAE
:10C75400D4F82433D4F864231340013309D04FF4BC
:10C764003C30FDF753F9C92221464FF43C30FDF724
:10C774007BF9002010BD00BF34410020F8B5094FFB
:10C78400094CE41B0646E4080025A54201D100201B
:10C79400F8BD57F83530304698470028F8D10135B0
:10C7A400F3E700BFB8D60200C0D60200F8B5094EC0
:10C7B400094CA41B0746E40800250436A54201D110
:10C7C4000020F8BD56F83530384698470028F8D18F
:10C7D4000135F3E7B8D60200C0D60200034A0023AD
:10C7E4000360436083601363704700BF34410020DB
:10C7F4004FF44053074A5968914201BF986800F6C4
:10C80400FF7020F47F6020F00F0018BF4FF48050B9
:10C81400704700BFDBE5B15108B5FFF7E9FF054BF1
:10C824009B69184400F6FF7020F47F6020F00F002D
:10C8340008BD00BF344100204FF480507047000011
:10C844002DE9F74F1F46244BDFF890B01B6ADFF841
:10C85400909001910446154600934FF000084FF460
:10C86400405AB8F1010F5FFA88F61AD0022E24D08C
:10C87400FFF7D2FF9DB1009B013B59425941A9EBFF
:10C884000000A04201D3019BEBB1D1B908F101082A
:10C89400B8F1030FE5D1A04216D2042018E02946CE
:10C8A400EDE7FFF7A5FF37B9DAF80410B1EB0B0198
:10C8B40018BF0121E3E74146E1E701214FF480502D
:10C8C400DDE7A042E9D316B10648FFF787FF002051
:10C8D40003B0BDE8F08F00BF34410020DBE5B15167
:10C8E400006002004C41002090F8552012F0FB0F2C
:10C8F40007D190F8643023B1836ECBB10B60012073
:10C90400704712F0010303D090F8563003B1836DE1
:10C914009207F2D590F85C20002AEED0054A006E0A
:10C92400C2F53832904201D80344E6E70420704748
:10C934000F207047008002002DE9FF472F49304D3A
:10C944008A6B304C304FDFF8C490DFF8C4A06E46D9
:10C954005C313046FCF7E2FC96E80F0085E80F00F6
:10C9640000212C4B39704FF447722046C9F800104F
:10C97400CAF80010EB6000F06AFE274922462846F8
:10C98400FCF769FF20B90027384604B0BDE8F087FA
:10C994003F78002FF7D094F86C3194F800801BB3E3
:10C9A400B8F1000FEFD194F87231002BEBD0DAF824
:10C9B4000020D9F800103046FCF7B0FC96E80F00D0
:10C9C40085E80F004FF4B272414604F5BA7000F0E6
:10C9D4003EFE124904F5BA722846FCF73CFF0028D3
:10C9E400D1D004F5BA7406E0B8F1000FCBD0A37926
:10C9F400002BC8D008340A4B1C60C5E73441002022
:10CA040000480020E4440020E0440020DC440020EE
:10CA1400D844002029CA020010DB02005CDA0200BC
:10CA2400BC4800205B68DA680D4B9A4230B508D1E7
:10CA34000C4C236813B90C490B681BB10B4B002237
:10CA44001A7030BDD0E901321A4413F9015B002D8C
:10CA5400A2EB0300F9DB23600860044B0122EFE73B
:10CA64005CDA0200DC440020D8440020E0440020CA
:10CA74004FF44052164952688A42034626D000F5C4
:10CA840000504068A0EB010CDCF1000040EB0C000E
:10CA94008A421AD103F500535968914215D14FF4D3
:10CAA40040521178142982BF50690A4AB0FBF2F04F
:10CAB4001A7898BF0020142A83BF5B69054AB3FB28
:10CAC400F2F30023C01A18BF012070470020DFE7EB
:10CAD400DBE5B15140420F0000B591B0FDF7AEF86F
:10CAE400684608492022FDF7DCF86A4606490748EB
:10CAF4004023FCF7FBFF064B01221A7011B05DF8CE
:10CB040004FB00BFB0D80200104800207CD802000B
:10CB1400B4440020F0B5A3B007460C4615461E46A3
:10CB240078222023002104A8029300F090FD002322
:10CB340003931C4B1B780BB9FFF7CEFF5CB367BBA9
:10CB440002AB0193184B00931849289B324604A862
:10CB5400FDF75AF818BB402D21D1154B214604F19D
:10CB640040021C4651F8040B43F8040B9142F9D1DE
:10CB74000F482021FDF7A1F84023CDE900430A4ADC
:10CB8400029B0C4903A8FCF7CDFF00280CBF012031
:10CB9400052023B0F0BD1320FBE71620F9E70A2097
:10CBA400F7E700BFB444002058480020B4D902007D
:10CBB4007848002010480020F0B5ABB004460D467C
:10CBC40016461F467822202300210CA8039300F068
:10CBD4003EFD114B1B780BB9FFF77EFF2FB12146A9
:10CBE400202204A8FDF752F804AC03AB0B4F0193C9
:10CBF4000B49009733462A460CA8FDF705F848B9B7
:10CC040020222146384600F0C1FCB0FA80F04009E9
:10CC14002BB0F0BD0020FBE7B4440020B544002055
:10CC2400B4D9020008B5044B986B08B1FFF784FE31
:10CC3400024B187008BD00BF34410020B8480020E2
:10CC440010B5044658B1B0F5007F0AD8064B00224F
:10CC54001A70FFF729FD054B01209C6310BD0320CA
:10CC6400FCE70420FAE700BFB84800203441002064
:10CC740070B50E4C0646E06BA36B42189A420D4603
:10CC840011D85C300A462044314600F0B7FCE36B0F
:10CC940004F140022B4429463046E363FBF788FC49
:10CCA4002064012070BD0320FCE700BF3441002054
:10CCB400014B1878704700BFB848002013B5104CDA
:10CCC40094F86C21B2B194F8D802B4F8DA2204F5DD
:10CCD400377104F5B8740B4B1B6800930A4B1B683F
:10CCE400FFF718FF012809D1201D02B0BDE810404C
:10CCF40000F0C0B9114610460434ECE702B010BD90
:10CD0400E4440020D8440020DC440020204BD3E934
:10CD14000E329A422DE9F04106460D4633D1DFF832
:10CD2400748098F800704FB1FFF776FD1A4B3060AD
:10CD340029461868BDE8F041FFF7D6BDFFF7FCFDB2
:10CD440018B3FFF7BBFF0128376004462F6017D1E3
:10CD5400114B29461868FFF7C7FD012804460FD177
:10CD640003463A4628683946FFF76AFD38B9FFF7A3
:10CD740053FD88F8004030602046BDE8F08104246B
:10CD8400FFF792FCF8E70824F6E70524F4E700BF70
:10CD940034410020B8480020BC48002001237230F0
:10CDA400FFF70ABF13B50446084623781146032B40
:10CDB40003D8DFE803F021050F18002002B010BDEE
:10CDC4000022D4F80140FBF7F3FB844214BF002097
:10CDD4000120F3E70A4600230146601C02B0BDE8C7
:10CDE4001040FFF7E9BE009103464022611C002079
:10CDF400FFF790FE0128E9E70120DFE72DE9F04382
:10CE0400A3B005460E461446002178221F4604A806
:10CE140020239DF8AC800393DDF8A89000F017FC64
:10CE240041220021284600F012FCB6F89430A342B7
:10CE340082BF442303FB046393F8968085F8008043
:10CE4400B8F1030F1ED8DFE808F00902111F002211
:10CE540049463846FBF7ACFBC5F801004A4639465B
:10CE64002846FFF79FFF23B0BDE8F08303AB01938F
:10CE74006B1C00930A494B463A4604A8FCF7C4FECF
:10CE84000028EBD00020EEE744214C4333199A34B8
:10CE9400B3F898203119681C00F0B0FBDEE700BF3E
:10CEA400B4D902002DE9F0476A4B1D68A4B00446CA
:10CEB4000F4690460A4601462846FFF76FFF0028B2
:10CEC40000F0C58095F855603EBB4FF00109CDE9EF
:10CED400007923463246294613A8FFF78FFF00281E
:10CEE40078D0B8F1000F64D0DFF86C81412213A927
:10CEF40008F2A12000F082FB6B68C8F82C90C8F8F7
:10CF04002060C8F80830002239462046FBF750FB61
:10CF1400514B0125C3E9097094E04122002102A884
:10CF240000F095FB06F001094122002113A806F048
:10CF3400020600F08CFBB9F1000F3ED004F500525C
:10CF4400464B5068984245D1D5F858A00AF5FF538E
:10CF54000AF6FF71C1F30B011F335B1A9168994202
:10CF640038D34FF44053596881420CD119781029B1
:10CF740088BF1969137898BF0021102B8CBF1369DF
:10CF84000023994226D12046FFF772FD00B10EB36B
:10CF94000123CDE900A300222346294602A8FFF776
:10CFA4002DFFB8B1AA6DA318BA1A4EB9B8F1000F83
:10CFB4001AD1294B01255D6112E03A462346F4E774
:10CFC4000021CDE9002113A84A462946FFF716FFA0
:10CFD4000028EBD10525B8F1000F30D1FFF764FB31
:10CFE400284624B0BDE8F087DFF86C80B9F1000F63
:10CFF40021D02046FFF73CFD18B108F11800FFF7D7
:10D00400EDFB1748412202A900F0F8FA002E14BFE4
:10D01400AC23A523C8F82C30AB6DC8F83430002EEF
:10D024003FF471AF0F48412213A900F0E7FA6B688F
:10D03400C8F80C3067E7AA23C8F82C30EFE70A4891
:10D04400FFF7CCFBFFF730FB034B9C64C8E71725C5
:10D05400C1E700BFBC48002034410020DBE5B151EA
:10D064009443002016440020584100200122FFF779
:10D0740019BF000090F85420F0B50346002A4DD0A3
:10D0840090F85500032849D893F86E20032A43D119
:10D094001A7A002A42D0DA68342A41D14FF4405532
:10D0A40020496C681A8A8C421FD142B15969A9B1CE
:10D0B400D2B203F114040021CEB2B24201D812203C
:10D0C40023E054F8047BAE89B74201F10101F3D1A6
:10D0D4001A788AB9012818BF0F2016E010B9012A5E
:10D0E400EDD1F5E70128F3D1E9E712B15A69002A35
:10D0F400E5D11A78002AE2D001285B680A4A05D8EB
:10D104009068834234BF10200120F0BDD068834270
:10D114008CBF01201020F8E71420F6E70F20F4E775
:10D124001120F2E7DBE5B1513441002038B1054B61
:10D134000360054B436001230372002070470E20F7
:10D14400704700BF77D1020051D1020069B10B785A
:10D15400022B0CD1022804D0032814BF082011206C
:10D16400704703230B70002070470E20704708207F
:10D17400704710B50C4681B10B78012B06D00ED93F
:10D18400033B012B94BF0820112010BDFFF7A2FA26
:10D194000028FAD102232370F7E70E20F5E70820D0
:10D1A400F3E7000070B5144B144A0C21D21AB2FBF9
:10D1B400F1F2816911F8025C044635B90069002175
:10D1C400914205D1012323600EE04FF0FF30F6E7D2
:10D1D4001E68AE420CD1461C07D19D68D4E90001FB
:10D1E400D4E90223A847206070BD5E688642F4D06B
:10D1F40001310C33E4E700BFD4D60200E0D60200CC
:10D204001EF0040F0CBFEFF30880EFF30980FFF763
:10D21400C9BF00BF10DF704711DF704713B5044664
:10D2240009496846FBF734FD019808B902B010BDFE
:10D23400D0E900312046984718B16846FBF732FD23
:10D24400F2E71120F2E700BFB4DB020013B5044695
:10D2540007496846FBF71CFD019B0BB902B010BDE2
:10D264002046D3E9002190476846FBF71BFDF3E70E
:10D27400CCDB0200084B9A6822B11A6822F48002BF
:10D284001A607047054B4FF48002C3F88020BFF347
:10D294004F8FBFF36F8F70472823002000E100E019
:10D2A4000B4991F816335A09EC231341DB0706D5D1
:10D2B400084B9A683AB94FF480030B60704742F206
:10D2C4000200FCF73ABD1A6842F480021A60704703
:10D2D40000E100E028230020F7B5194F3C7864BB37
:10D2E400184E012520463570FFF798FF112821D0EC
:10D2F4002046FFF7ABFF144B8DF8034018680190EC
:10D304000DF10300FBF71AF9104901A8FFF782FF9A
:10D314000446B0FA80F0400938709DF80300FBF72A
:10D3240031F93CB90A4B34701C70FFF7B9FF284639
:10D33400FFF78CFF204603B0F0BD0824FAE700BFD6
:10D34400C1480020C0480020AEDB0200399D020025
:10D35400C2480020F7B5154F3B781BB3144E01208B
:10D364003070FFF75BFF11284FF000051CD002203E
:10D37400FFF76CFF0DF107008DF80750FBF7DEF89F
:10D38400FFF74AFF04469DF807003D70FBF7FAF8E3
:10D394002CB903203470FFF76DFFFFF757FF2046C9
:10D3A40003B0F0BD0824FAE72C46F8E7C148002092
:10D3B400C0480020054B1B7833B1054B1B780BB1DB
:10D3C400FFF7C8BFFFF788BF08207047C048002098
:10D3D400C1480020014B1878704700BFC1480020A5
:10D3E40007B508496846FBF753FC019B13B903B022
:10D3F4005DF804FBD3E9002090476846FBF752FC34
:10D40400F3E700BFC0DB0200FFF7EABF60DF70474D
:10D4140069DF704761DF704730B5134DADF5017DAD
:10D424004FF4FA740DF1020103A8ADF80240FFF7BE
:10D43400F1FF70B9294601A8FBF72AFC029B002BD7
:10D44400F0D003A8D3E90021904701A8FBF72AFCF8
:10D45400F4E7052805D00DF5017DBDE83040FCF763
:10D464006CBC0DF5017D30BDD8DB0200024B1B788E
:10D474000BB1FFF7D1BF7047C348002018B1034B6D
:10D484000360002070470E20704700BFC8220020B0
:10D49400F0B5074685B00D46002947D00024244A3C
:10D4A4000A60CDE90144012606238DF8040001A990
:10D4B4002020ADF8083003948DF80660FFF7A8FF2C
:10D4C4002A68039401A94020CDE901448DF8056040
:10D4D400FFF79EFFF7232A68039401A92320CDE9CF
:10D4E4000144ADF806308DF80470FFF791FF2A6807
:10D4F400039401A93046CDE901448DF80460FFF797
:10D5040087FF4FF4B0632A68019301A9A120CDE9F4
:10D514000244FFF77DFF2A68039401A9A020CDE906
:10D524000144FFF775FF204605B0F0BD0E20FBE770
:10D53400C822002008B5FFF769FF10B9014B01228A
:10D544001A7008BDC34800204BDF70471FB50E4C4E
:10D5540001A8FFF7F9FF70B9214602A8FBF798FB71
:10D56400039B002BF4D00198D3E90021904702A833
:10D57400FBF798FBF4E7052804D004B0BDE810409D
:10D58400FCF7DBBB04B010BDE4DB0200A2B310B5B2
:10D5940094460F2A19D902460B4640EA010414F0B6
:10D5A400030F02D00CF1FF3C12E01946104604327E
:10D5B40004330C68D0F800E0A64506D1104619469D
:10D5C400ACF1040CBCF1040FEFD8BCF1010C0FD08A
:10D5D4000A4603468444114618460133013204784E
:10D5E40091F800E0744503D1184611466345F2D121
:10D5F40000780B78C01A10BD00207047844640EABA
:10D60400010313F0030F18D18446202A0BD32DE90C
:10D61400F007B1E8F807A0E8F807A2F12002202AF1
:10D62400F7D2BDE8F007042A07D351F8043B40F8C9
:10D63400043BA2F10402042AF7D2002A05D011F80F
:10D64400013B00F8013B013AF9D16046704784463A
:10D65400002A2DD010F0030F04D000F8011B013A6A
:10D6640026D0F7E7C9B241EA012141EA0141202A63
:10D6740012D3A2F120022DE9F0030B460C460D460D
:10D684000E460F4688468946A0E8FA03203AFBD2A4
:10D69400BDE8F00320320BD0042A05D340F8041B64
:10D6A400043A05D0042AF9D200F8011B013AFBD14F
:04D6B4006046704715
:08D6B8009DBF0200DDB9020074
:10D6C00094290020D0390020E13900209C29002035
:04D6D000F400000062
:0CD6D400000000000300000031D1020043
:08D6E00049BA0200000000003D
:08D6E800F989020000000000B6
:08D6F000B98B020000000000EC
:10D6F80071D402000000000051D5020000000000B3
:08D70800AD8B020000000000DF
:10D71000000000000000000085C0020000100000B2
:04D720000000030002
:10D7240000100000040000000100000091880200C5
:10D73400B5880200C5880200D58802002989020044
:10D744009D880200A1880200A58802000010000044
:10D7540004000000010000003D8A02001D8A02004E
:10D764000D8A0200498C0200F98B0200E189020053
:10D77400E5890200E9890200982F8A4291443771B1
:10D78400CFFBC0B5A5DBB5E95BC25639F111F15940
:10D79400A4823F92D55E1CAB98AA07D8015B831282
:10D7A400BE853124C37D0C55745DBE72FEB1DE802E
:10D7B400A706DC9B74F19BC1C1699BE48647BEEF5D
:10D7C400C69DC10FCCA10C246F2CE92DAA84744AE8
:10D7D400DCA9B05CDA88F97652513E986DC631A85E
:10D7E400C82703B0C77F59BFF30BE0C64791A7D53D
:10D7F4005163CA0667292914850AB72738211B2EC5
:10D80400FC6D2C4D130D385354730A65BB0A6A76AC
:10D814002EC9C281852C7292A1E8BFA24B661AA8B8
:10D82400708B4BC2A3516CC719E892D1240699D6C8
:10D8340085350EF470A06A1016C1A419086C371E41
:10D844004C774827B5BCB034B30C1C394AAAD84E1F
:10D854004FCA9C5BF36F2E68EE828F746F63A5785A
:10D864001478C8840802C78CFAFFBE90EB6C50A4ED
:10D87400F7A3F9BEF27871C64800280000204000E2
:10D8840055AA0200E99302008F930200DD9802007A
:10D894004D9902006D990200DF920200A1920200EC
:10D8A400799802000000000011121314311D2E6338
:10D8B400129B5DAB0506E6C6B73D17736A639C4AC7
:10D8C400373AE9DCB15419B93D90935D6E30810368
:10D8D400E70867630CC3BE6C0FCF387E70DB9A1108
:10D8E400BE78C506663407E190C5C89B08200001D0
:10D8F400FFFFFFFFFFFFFFFFFFFFFFFF0000000030
:10D90400000000000000000001000000FFFFFFFF16
:10D91400512563FCC2CAB9F3849E17A7ADFAE6BCCD
:10D92400FFFFFFFFFFFFFFFF00000000FFFFFFFFFF
:10D9340096C298D84539A1F4A033EB2D817D0377A5
:10D94400F240A463E5E6BCF847422CE1F2D1176B40
:10D95400F551BF376840B6CBCE5E316B5733CE2B13
:10D96400169E0F7C4AEBE78E9B7F1AFEE242E34F42
:10D974004B60D2273E3CCE3BF6B053CCB0061D657F
:10D98400BC86987655BDEBB3E7933AAAD835C65A08
:10D99400FFA802001DA4020079A402000338FDD8E8
:10D9A40070470000010100000001010000000000B8
:10D9B4008BB8020085B8020065B8020020000000A0
:10D9C40078000000000000000100010000000000D9
:10D9D400010000000000000002000500010000003A
:10D9E40042000000000000000000000000000000F1
:10D9F4000000000000000000010011000100FFFF12
:10DA04000100000000000000020017000200FEFFF9
:10DA1400640100005CDA0200000000000000000065
:10DA240000000000000000000100010000000000F0
:10DA340001000000000000000200050001000000D9
:10DA440022000000000000000000000000000000B0
:10DA54000000000000000000010011000400FCFFB1
:10DA64000400000000000000020011000400FCFF9C
:10DA74000400000000000000030021000400FCFF7B
:10DA84000400100000000000040011000100FFFF6A
:10DA94000100000000000000050011000200FEFF6C
:10DAA4000400000000000000060011000400FCFF58
:10DAB4000400000000000000070011000400FCFF47
